:100000000C94FE000C9424010C9424010C94240103
:100010000C9424010C9424010C9424010C942401CC
:100020000C9424010C9424010C9424010C942401BC
:100030000C9424010C9424010C9424010C942401AC
:100040000C9424010C9424010C9424010C9424019C
:100050000C9424010C9424010C9424010C9424018C
:100060000C9424010C9424010C9424010C9424017C
:100070000C9424010C9424010C9424010C9424016C
:100080000C9424010C9424010C9424010C9424015C
:100090000C9424010C9424010C9424010C9424014C
:1000A0000C9424010C9424010C9424010C9424013C
:1000B0000C9424010C9424010C9424010C9424012C
:1000C0000C9424010C9424010C9424010C9424011C
:1000D0000C9424010C9424010C9424010C9424010C
:1000E0000C9424010C9424010C9424010C942401FC
:1000F0000C9424010C9424010C9424010C942401EC
:100100000C9424010C9424010C9424010C942401DB
:100110000C9424010C9424010C9424010C942401CB
:100120000C9424010C9424010C9424010C942401BB
:100130000C9424010C9424010C9424010C942401AB
:100140000C9424010C9424010C9424010C9424019B
:100150000C9424010C9424010C9424010C9424018B
:100160000C9424010C9424010C9424010C9424017B
:100170000C9424010C9424010C9424010C9424016B
:100180000C9424010C9424010C9424010C9424015B
:100190000C9424010C9424010C9424010C9424014B
:1001A0000C9424010C9424010C9424010C9424013B
:1001B0000C9424010C9424010C9424010C9424012B
:1001C0000C9424010C9424010C9424010C9424011B
:1001D0000C9424010C9424010C9424010C9424010B
:1001E0000C9424010C9424010C9424010C942401FB
:1001F0000C9424010C9424010C94240111241FBE9E
:10020000CFEFCDBFDFE3DEBF00E00CBF18BE19BEED
:100210001ABE1BBE13E2A0E0B0E2E6E8FDE100E09A
:100220000BBF02C007900D92AA3FB107D9F71BBEC2
:1002300028E2AAEFB3E201C01D92AA3AB207E1F7A1
:100240000E94A5090C94C10E0C940000CF93DF937B
:1002500000D0CDB7DEB78A836B8319821CC08B8137
:10026000882F90E081709927892B21F099818A81CC
:10027000892789838A81882F90E0880F991F982F7A
:100280008A81882314F483EC01C080E089278A8363
:100290008B8186958B838B81882309F789812396AF
:1002A000CDBFDEBFDF91CF910895CF93DF93CDB760
:1002B000DEB72797CDBFDEBF8E839F831B821C8254
:1002C00043C08E819F81FC0187858D838EE090E005
:1002D00089839A832BC089819A8101964E815F819F
:1002E00029813A81240F351FF90140812E813F81F8
:1002F000820F931FFC01408389819A81805F9D4D0D
:10030000FC0140812E813F8189819A81820F931F58
:10031000FC018081642F0E942601982F8D818927FE
:100320008D8389819A81019789839A8389819A81B2
:1003300099238CF68E819F812D81FC0120838B81F6
:100340009C8101968B839C838B819C8140970CF4CC
:10035000B8CF2796CDBFDEBFDF91CF910895CF9361
:10036000DF93CDB7DEB72797CDBFDEBF8E839F83E8
:100370001B821C8241C08E819F81FC0180818D8304
:1003800019821A822BC089819A8101962E813F8120
:10039000820F931FFC0140812E813F8189819A81C8
:1003A000820F931FFC01408389819A81805F9D4D5C
:1003B000FC0140812E813F8189819A81820F931FA8
:1003C000FC018081642F0E942601982F8D8189274E
:1003D0008D8389819A81019689839A8389819A8103
:1003E0000F978CF28E819F812D81FC0127878B8155
:1003F0009C8101968B839C838B819C8140970CF41C
:10040000BACF2796CDBFDEBFDF91CF9108952F924F
:100410003F924F925F926F927F928F929F92AF9294
:10042000BF92CF92DF92EF92FF920F931F93CF93E1
:10043000DF93CDB7DEB7C056D109CDBFDEBF9E0179
:100440002B5B3F4FF90180839183CE01895B9F4FE6
:10045000FC016083718319821A8232C029813A813A
:10046000CE01895B9F4FFC0180819181820F931F98
:10047000FC0140819E012B5E3F4F89819A81820F52
:10048000931FFC01408389819A819C01205F3F4F2B
:10049000CE01895B9F4FFC0180819181820F931F68
:1004A000FC0140819E012B5D3F4F89819A81820F23
:1004B000931FFC01408389819A81019689839A83E5
:1004C00089819A81409754F22D893E894F89588DB0
:1004D000698D7A8D8B8D9C8DFE01EB5BFF4F0190BA
:1004E000F081E02D208331834283538364837583BD
:1004F000868397832D8D3E8D4F8D58A169A17AA15A
:100500008BA19CA1FE01EB5BFF4F0190F081E02DE0
:1005100020873187428753876487758786879787C7
:100520002DA13EA14FA158A569A57AA58BA59CA593
:10053000FE01EB5BFF4F0190F081E02D208B318BB2
:10054000428B538B648B758B868B978B2DA53EA529
:100550004FA558A969A97AA98BA99CA9FE01EB5BB3
:10056000FF4F0190F081E02D208F318F428F538F0C
:10057000648F758F868F978F81E090E089839A834F
:1005800074C21D821E821F82188619861A861B86D7
:100590001C861D861E861F86188A198A1A8A1B8A3F
:1005A0001C8A89818C8BCE0105960E945501AD88ED
:1005B000BE88CF88D88CE98CFA8C0B8D1C8D2D8150
:1005C0003E814F81588569857A858B859C852A2C4B
:1005D00022263B2C33264C2C44265D2C55266E2C93
:1005E00066267F2C7726802E8826912E99262DAA86
:1005F0003EAA4FAA58AE69AE7AAE8BAE9CAEAD8C19
:10060000BE8CCF8CD8A0E9A0FAA00BA11CA12D858F
:100610003E854F85588969897A898B899C89FA2D0D
:10062000F2272A96FFAF2A97EB2DE3272B96EFAF01
:100630002B97FC2DF4272C96FFAF2C97ED2DE5275B
:100640002D96EFAF2D97FE2DF6272E96FFAF2E9706
:10065000EF2DE7272F96EFAF2F97F02FF827609613
:10066000FFAF6097E12FE9276196EFAF6197CE0169
:10067000CD962A962FAD2A97FC0120832B962FAD7D
:100680002B97FC0121832C962FAD2C97FC01228304
:100690002D962FAD2D97FC0123832E962FAD2E97EF
:1006A000FC0124832F962FAD2F97FC0125836096A4
:1006B0002FAD6097FC01268361962FAD6197FC01F9
:1006C00027831B821C821DC09E012B5C3F4F8B81A8
:1006D0009C81820F931FFC018081882F90E0805FB6
:1006E0009F4DFC0140819E012B5C3F4F8B819C8183
:1006F000820F931FFC0140838B819C8101968B8329
:100700009C838B819C814097FCF2CE01C5960E9410
:100710005501ADA8BEA8CFA8D8ACE9ACFAAC0BADDA
:100720001CAD2DA13EA14FA158A569A57AA58BA509
:100730009CA5FA2DF2276296FFAF6297EB2DE32777
:100740006396EFAF6397FC2DF4276496FFAF649731
:10075000ED2DE5276596EFAF6597FE2DF62766969A
:10076000FFAF6697EF2DE7276796EFAF6797F02FFC
:10077000F8276896FFAF6897E12FE9276996EFAFF2
:1007800069976296FFAD6297FDAB63962FAD639755
:100790002EAB64968FAD64978FAB6596EFAD659782
:1007A000E8AF6696FFAD6697F9AF67962FAD67978E
:1007B0002AAF68968FAD68978BAF6996EFAD699752
:1007C000ECAFCE01CD96FC01A080FC01B180FC0114
:1007D000C280FC01D380FC01E480FC01F580FC01B7
:1007E0000681FC0117812DA53EA54FA558A969A931
:1007F0007AA98BA99CA9FA2DF2276A96FFAF6A976E
:10080000EB2DE3276B96EFAF6B97FC2DF4276C96DF
:10081000FFAF6C97ED2DE5276D96EFAF6D97FE2D31
:10082000F6276E96FFAF6E97EF2DE7276F96EFAF27
:100830006F97F02FF827A096FFAFA097E12FE92739
:10084000A196EFAFA197CE01CD966A962FAD6A978C
:10085000FC0120836B962FAD6B97FC0121836C9676
:100860002FAD6C97FC0122836D962FAD6D97FC0127
:1008700023836E962FAD6E97FC0124836F962FAD68
:100880006F97FC012583A0962FADA097FC012683CE
:10089000A1962FADA197FC0127832D893E894F8911
:1008A000588D698D7A8D8B8D9C8D2DA33EA34FA382
:1008B00058A769A77AA78BA79CA72D8D3E8D4F8D32
:1008C00058A169A17AA18BA19CA12DA73EA74FA7F2
:1008D00058AB69AB7AAB8BAB9CAB2DA93EA94FA9AA
:1008E00058AD69AD7AAD8BAD9CAD2D8B3E8B4F8BEA
:1008F000588F698F7A8F8B8F9C8FFE01FD96208198
:1009000031814281538164817581868197812D8FE8
:100910003E8F4F8F58A369A37AA38BA39CA3898191
:100920009A8187709927892B09F09AC089819A81C9
:100930008C0115950795159507952D893E894F8949
:10094000588D698D7A8D8B8D9C8DFE01EB5BFF4FF1
:10095000A081B181F801E295F295F07FFE27E07F5A
:10096000FE27EA0FFB1F2083318342835383648376
:1009700075838683978389819A818C011595079564
:10098000159507952D8D3E8D4F8D58A169A17AA1A2
:100990008BA19CA1FE01EB5BFF4FA081B181F8010F
:1009A000E295F295F07FFE27E07FFE27EA0FFB1F1E
:1009B000389620833183428353836483758386838F
:1009C000978389819A8195958795959587958C01CF
:1009D0000F5F1F4F2DA13EA14FA158A569A57AA574
:1009E0008BA59CA5FE01EB5BFF4FA081B181F801B7
:1009F000E295F295F07FFE27E07FFE27EA0FFB1FCE
:100A000020833183428353836483758386839783F2
:100A100089819A8195958795959587958C010F5F2A
:100A20001F4F2DA53EA54FA558A969A97AA98BA945
:100A30009CA9FE01EB5BFF4FA081B181F801E2951B
:100A4000F295F07FFE27E07FFE27EA0FFB1F389626
:100A500020833183428353836483758386839783A2
:100A600089819A81019689839A8389819A81819764
:100A70000CF487CDC05ADF4FCDBFDEBFDF91CF91E1
:100A80001F910F91FF90EF90DF90CF90BF90AF90AC
:100A90009F908F907F906F905F904F903F902F909E
:100AA0000895CF93DF9300D01F92CDB7DEB789832F
:100AB0009A836B837C832B813C8189819A81B901E4
:100AC0000E9407022496CDBFDEBFDF91CF9108952B
:100AD0002F923F924F925F926F927F928F929F924E
:100AE000AF92BF92CF92DF92EF92FF920F931F933C
:100AF000CF93DF93CDB7DEB7E097CDBFDEBF8D8B51
:100B00009E8B6F8B788FEF89F88D208131814281A8
:100B1000538164817581868197812D833E834F83C4
:100B2000588769877A878B879C87EF89F88D20851E
:100B300031854285538564857585868597852D87A2
:100B40003E874F87588B698B7A8B8B8B9C8B198256
:100B50001A82A8C0AD80BE80CF80D884E984FA8490
:100B60000B851C852D893E8989819A818295929574
:100B7000907F9827807F9827F901E80FF91F20813F
:100B800031814281538164817581868197812A2CCC
:100B900022263B2C33264C2C44265D2C55266E2CCD
:100BA00066267F2C7726802E8826912E99262D82E8
:100BB0003E824F82588669867A868B869C86AD8473
:100BC000BE84CF84D888E988FA880B891C892D894E
:100BD0003E8989819A8182959295907F9827807F1E
:100BE0009827820F931FFC01389620813181428122
:100BF00053816481758186819781AA2DA227A98F4F
:100C0000EB2DE327EA8FFC2DF427FB8FAD2DA527D5
:100C1000AC8FEE2DE627ED8FFF2DF727FE8FA02F4F
:100C2000A827AF8FE12FE927E8A3F98DFD872A8D4B
:100C30002E878B8D8F87AC8DA88BED8DE98BFE8DEC
:100C4000FA8B2F8D2B8B88A18C8B1B821C821DC055
:100C50009E012B5F3F4F8B819C81820F931FFC0174
:100C60008081882F90E0805F9F4DFC0140819E0134
:100C70002B5F3F4F8B819C81820F931FFC01408330
:100C80008B819C8101968B839C838B819C81409777
:100C9000FCF2CE0105960E94550189819A81019648
:100CA00089839A8389819A8109970CF453CFAD8007
:100CB000BE80CF80D884E984FA840B851C858D8919
:100CC0009E89FC01E057FF4F208131814281538191
:100CD0006481758186819781FA2DF227F9A3AB2D66
:100CE000A327AAA3EC2DE427EBA3FD2DF527FCA356
:100CF000AE2DA627ADA3EF2DE727EEA3F02FF82703
:100D0000FFA3A12FA927A8A78F89988D29A1FC014E
:100D100020832AA1FC0121832BA1FC0122832CA189
:100D2000FC0123832DA1FC0124832EA1FC0125833A
:100D30002FA1FC01268328A5FC0127838F89988D8C
:100D4000FC013896AD84BE84CF84D888E988FA88BF
:100D50000B891C898D899E89DC01A856BF4F2C9177
:100D600011963C91119712964C91129713965C91A3
:100D7000139714966C91149715967C911597169667
:100D80008C91169717969C91AA2DA227A9A7AB2DF7
:100D9000A327AAA7AC2DA427ABA7AD2DA527ACA749
:100DA000AE2DA627ADA7AF2DA727AEA7A02FA827AA
:100DB000AFA7A12FA927A8AB29A520838AA5818346
:100DC000ABA5A2832CA523838DA58483AEA5A58383
:100DD0002FA5268388A98783E096CDBFDEBFDF914C
:100DE000CF911F910F91FF90EF90DF90CF90BF9028
:100DF000AF909F908F907F906F905F904F903F90BB
:100E00002F9008952F923F924F925F926F927F9210
:100E10008F929F92AF92BF92CF92DF92EF92FF920A
:100E20000F931F93CF93DF93CDB7DEB7E097CDBF7E
:100E3000DEBF8D8B9E8B6F8B788F8F89988DFC0199
:100E4000A080FC01B180FC01C280FC01D380FC01C8
:100E5000E480FC01F580FC010681FC0117818D898D
:100E60009E89FC01E057FF4F2081318142815381EF
:100E700064817581868197812A2C22263B2C33261A
:100E80004C2C44265D2C55266E2C66267F2C77260E
:100E9000802E8826912E99262D823E824F8258865A
:100EA00069867A868B869C868F89988D0896FC0148
:100EB000A080FC01B180FC01C280FC01D380FC0158
:100EC000E480FC01F580FC010681FC0117818D891D
:100ED0009E89FC01E856FF4F208131814281538178
:100EE0006481758186819781FA2DF227F98FEB2D28
:100EF000E327EA8FFC2DF427FB8FED2DE527EC8F00
:100F0000FE2DF627FD8FEF2DE727EE8FF02FF82728
:100F1000FF8FE12FE927E8A3F98DFD878A8D8E8762
:100F2000EB8DEF87FC8DF88B8D8D898BEE8DEA8BA9
:100F3000FF8DFB8B88A18C8B88E090E089839A835E
:100F4000B8C0CE0105960E94AF011B821C821DC055
:100F50009E012B5F3F4F8B819C81820F931FFC0171
:100F60008081882F90E0805F9E4DFC0140819E0132
:100F70002B5F3F4F8B819C81820F931FFC0140832D
:100F80008B819C8101968B839C838B819C81409774
:100F9000FCF2AD80BE80CF80D884E984FA840B85D2
:100FA0001C852D893E8989819A8182959295907FB1
:100FB0009827807F9827F901E80FF91F2081318158
:100FC000428153816481758186819781FA2DF22750
:100FD000F9A3EB2DE327EAA3FC2DF427FBA3ED2DCA
:100FE000E527ECA3FE2DF627FDA3EF2DE727EEA3C3
:100FF000F02FF827FFA3E12FE927E8A7F9A1FD8348
:101000008AA18E83EBA1EF83FCA1F8878DA189874C
:10101000EEA1EA87FFA1FB8788A58C87AD84BE84FB
:10102000CF84D888E988FA880B891C892D893E8964
:1010300089819A8182959295907F9827807F9827C1
:10104000820F931FFC0138962081318142815381A8
:101050006481758186819781EA2DE227E9A7FB2DBE
:10106000F327FAA7EC2DE427EBA7FD2DF527FCA726
:10107000EE2DE627EDA7FF2DF727FEA7E02FE827A7
:10108000EFA7F12FF927F8AB89A58D87EAA5EE87A1
:10109000FBA5FF878CA5888BEDA5E98BFEA5FA8BB8
:1010A0008FA58B8BE8A9EC8B89819A810197898325
:1010B0009A8389819A8199230CF043CF2D813E81B7
:1010C0004F81588569857A858B859C85EF89F88D58
:1010D000208331834283538364837583868397831C
:1010E0008F89988DFC0138962D853E854F855889CE
:1010F00069897A898B899C892083318342835383D0
:101100006483758386839783E096CDBFDEBFDF91CE
:10111000CF911F910F91FF90EF90DF90CF90BF90F4
:10112000AF909F908F907F906F905F904F903F9087
:101130002F900895CF93DF9300D0CDB7DEB7809185
:1011400006209091072020E232E2232F2F9320E205
:1011500032E22F93292F2F938F930E94340B0F90FD
:101160000F900F900F90809106209091072025E31B
:1011700032E2232F2F9325E332E22F93292F2F934F
:101180008F930E94340B0F900F900F900F908091CF
:1011900006209091072028E432E2232F2F9328E4A1
:1011A00032E22F93292F2F938F930E94340B0F90AD
:1011B0000F900F900F9080910620909107202AE0C9
:1011C00043E050E0BE016F5F7F4F0E947F0BCE0176
:1011D00001960E94C70B2396CDBFDEBFDF91CF9152
:1011E0000895CF93DF93CDB7DEB7C65CD109CDBFED
:1011F000DEBF9E012D533F4FF90180839183CE01C5
:101200008B539F4FFC0160837183CE018D559F4F9F
:1012100020E2E8E6F2E2DC0101900D922A95E1F786
:101220009E012D553F4FCE010396B9010E94070242
:10123000809106209091072027E532E2232F2F93FB
:1012400027E532E22F93292F2F938F930E94340B9F
:101250000F900F900F900F9019821A8214C08981FD
:101260009A819E012D533F4FF90120813181280F32
:10127000391FCE010396B9010E94020789819A8124
:10128000409689839A83CE018B539F4F29813A815F
:10129000FC0180819181281739070CF3CA53DF4F75
:1012A000CDBFDEBFDF91CF910895CF93DF931F9223
:1012B0001F92CDB7DEB789839A83809106209091E3
:1012C00007202A812F9329812F9328E832E2232FA8
:1012D0002F9328E832E22F93292F2F938F930E9488
:1012E000340B0F900F900F900F900F900F900F9066
:1012F0000F90DF91CF910895CF93DF93CDB7DEB7F5
:1013000080E590E020E530E0F90120812260FC01D9
:101310002083000081E590E0FC018081882F90E02F
:1013200082709927892BB1F388ED84BF81E0809387
:10133000400080E590E020E530E0F90120812E7F3B
:10134000FC012083DF91CF910895CF93DF93CDB738
:10135000DEB7C65FD109CDBFDEBF0E947C09809198
:101360000620909107200E946B0A81EFE8E0F3E2EB
:10137000DE01169601900D928A95E1F780E091E0EA
:101380008B839C8319821A8280910620909107207A
:101390002CE832E2232F2F932CE832E22F93292FCF
:1013A0002F938F930E94340B0F900F900F900F90FC
:1013B0000E949A088D838D81282F30E0809106202D
:1013C00090910720432F4F932F9321EA32E2232F4E
:1013D0002F9321EA32E22F93292F2F938F930E948C
:1013E000340B0F900F900F900F900F900F908D81F6
:1013F000882F90E08230910559F18330910569F191
:10140000019709F053C089819A81892B41F42B817E
:101410003C81CE010696B9010E94F10814C080916A
:101420000620909107202DEA32E2232F2F932DEAF8
:1014300032E22F93292F2F938F930E94340B0F901A
:101440000F900F900F9081E090E089839A8342C0C3
:10145000CE0106960E9455093DC0809106209091CC
:1014600007202FEB32E2232F2F932FEB32E22F9323
:10147000292F2F938F930E94340B0F900F900F9072
:101480000F9080910620909107202EEC32E2232FBE
:101490002F932EEC32E22F93292F2F938F930E94BC
:1014A000340B0F900F900F900F9014C08091062076
:1014B000909107202BEF32E2232F2F932BEF32E274
:1014C0002F93292F2F938F930E94340B0F900F90FF
:1014D0000F900F906DCFCF93DF931F921F92CDB7D8
:1014E000DEB789839A8389819A81FC018281938105
:1014F00029813A81F9012581FC01258389819A811D
:10150000FC018281938129813A81F9012581FC01C5
:10151000218389819A81FC018281938129813A8189
:10152000F9012481FC01268389819A81FC01828151
:10153000938129813A81F9012481FC0122838981E7
:101540009A81FC018081918120E3FC0123838981C0
:101550009A81FC018081918124E0FC0124838981AE
:101560009A81FC018081918123E0FC01258389819E
:101570009A81FC0180819181FC01178289819A8185
:10158000FC018081918122E2FC01268389819A817C
:10159000FC018081918129813A81F9012081318189
:1015A000F90124812861FC0124830F900F90DF91C1
:1015B000CF910895CF93DF9300D0CDB7DEB7898365
:1015C0009A836B83000089819A81FC0180819181DB
:1015D000FC018181882F90E080729927892B99F3F3
:1015E00089819A81FC01808191812B81FC0120837A
:1015F0002396CDBFDEBFDF91CF910895CF93DF93C8
:101600001F92CDB7DEB78983809106209091072085
:1016100069810E94DA0A0F90DF91CF910895CF93EC
:10162000DF9300D01F92CDB7DEB789839A836B8397
:101630007C830EC08B819C81FC01208189819A81F1
:10164000622F0E94DA0A8B819C8101968B839C8396
:101650008B819C81FC018081882361F72496CDBF1A
:10166000DEBFDF91CF910895CF93DF931F921F923A
:10167000CDB7DEB7CE010C9689839A8329813A8152
:101680008A859B85AC0160EB74E08AEF93E20E944F
:10169000ED0B888599856AEF73E20E940F0B0F901E
:1016A0000F90DF91CF910895CF93DF931F921F92F8
:1016B000CDB7DEB789839A83000089819A81FC01C6
:1016C00080819181FC0181818823BCF789819A8185
:1016D000FC0180819181FC0180810F900F90DF914E
:1016E000CF910895CF93DF93CDB7DEB780910620D9
:1016F000909107200E94540BDF91CF910895CF93D2
:10170000DF93CDB7DEB72A97CDBFDEBF8C839D8335
:101710006E837F83488759872A8719821A828C8132
:101720009D810E94540B8B838C819D816B810E94D3
:10173000DA0A9B818A85981749F42E813F81898135
:101740009A81820F931FFC01108219C02E813F8164
:1017500089819A81820F931F2B81FC0120838885C8
:1017600099859C012150310989819A8182179307BB
:1017700028F489819A81019689839A83D0CF8981BF
:101780009A812A96CDBFDEBFDF91CF910895FC01EB
:1017900088279927E89421912032E9F3293010F025
:1017A0002E30C8F32B3241F02D3239F4689404C046
:1017B0000E94E50B820F911D219120532A30C0F326
:1017C0001EF4909581959F4F08957AE0979F902DF4
:1017D000879F802D910D112408950F931F93CF9310
:1017E000DF93CDB7DEB72E97CDBFDEBF8C01CA0128
:1017F00046E04C8309831A8377FF02C060E070E8FB
:10180000FB013197ED83FE83A901BC01CE01019656
:101810000E94200C4D815E8157FD0AC02F813885C2
:10182000421753070CF49A01F801E20FF31F1082DC
:101830002E96CDBFDEBFDF91CF911F910F910895FE
:101840002F923F924F925F926F927F928F929F92D0
:10185000AF92BF92CF92DF92EF92FF920F931F93BE
:10186000CF93DF93CDB7DEB72C97CDBFDEBF7C0122
:101870006B018A01FC0116821782838181FFBDC141
:10188000CE0101964C01F7019381F60193FD8591FC
:1018900093FF81916F01882309F4ABC1853239F43C
:1018A00093FD859193FF81916F01853229F4B701F2
:1018B00090E00E942B0EE7CF512C312C20E02032FB
:1018C000A0F48B3269F030F4803259F0833269F43D
:1018D00020612CC08D3239F0803339F4216026C06C
:1018E0002260246023C0286021C027FD27C030ED7E
:1018F000380F3A3078F426FF06C0FAE05F9E300DCC
:101900001124532E13C08AE0389E300D1124332E3B
:1019100020620CC08E3221F426FD6BC1206406C00B
:101920008C3611F4206802C0883641F4F60193FD2C
:10193000859193FF81916F018111C1CF982F9F7D78
:101940009554933028F40C5F1F4FFFE3F9830DC0CB
:10195000833631F0833771F0833509F05BC022C0E4
:10196000F801808189830E5F1F4F44244394512CDA
:10197000540115C03801F2E06F0E711CF801A0800F
:10198000B18026FF03C0652D70E002C06FEF7FEFCE
:10199000C5012C870E94200E2C0183012C852F77F6
:1019A000222E17C03801F2E06F0E711CF801A080E2
:1019B000B18026FF03C0652D70E002C06FEF7FEF9E
:1019C000C5012C870E94150E2C012C852068222E23
:1019D000830123FC1BC0832D90E048165906B0F408
:1019E000B70180E290E00E942B0E3A94F4CFF5010B
:1019F00027FC859127FE81915F01B70190E00E944D
:101A00002B0E31103A94F1E04F1A51084114510451
:101A100071F7E5C0843611F0893639F5F80127FFF2
:101A200007C060817181828193810C5F1F4F08C064
:101A300060817181072E000C880B990B0E5F1F4F80
:101A40002F76722E97FF09C09095809570956195BD
:101A50007F4F8F4F9F4F2068722E2AE030E0A40105
:101A60000E94630EA82EA81844C0853729F42F7E43
:101A7000B22E2AE030E025C0F22FF97FBF2E8F363C
:101A8000C1F018F4883579F0B4C0803719F0883780
:101A900021F0AFC02F2F2061B22EB4FE0DC08B2DD0
:101AA0008460B82E09C024FF0AC09F2F9660B92E0B
:101AB00006C028E030E005C020E130E002C020E1AF
:101AC00032E0F801B7FE07C06081718182819381A5
:101AD0000C5F1F4F06C06081718180E090E00E5F57
:101AE0001F4FA4010E94630EA82EA818FB2DFF779C
:101AF0007F2E76FE0BC0372D3E7FA51450F474FE6A
:101B00000AC072FC08C0372D3E7E05C0BA2C372DA6
:101B100003C0BA2C01C0B52C34FF0DC0FE01EA0D84
:101B2000F11D8081803311F4397E09C032FF06C077
:101B3000B394B39404C0832F867809F0B39433FD33
:101B400013C030FF06C05A2CB31418F4530C5B18A2
:101B5000B32CB31468F4B70180E290E03C870E9494
:101B60002B0EB3943C85F5CFB31410F43B1801C091
:101B7000312C34FF12C0B70180E390E03C870E9413
:101B80002B0E3C8532FF17C031FD03C088E790E083
:101B900002C088E590E0B7010CC0832F867859F029
:101BA00031FF02C08BE201C080E237FD8DE2B70158
:101BB00090E00E942B0EA51438F4B70180E390E06A
:101BC0000E942B0E5A94F7CFAA94F401EA0DF11D4E
:101BD0008081B70190E00E942B0EA110F5CF332039
:101BE00009F451CEB70180E290E00E942B0E3A94A6
:101BF000F6CFF7018681978102C08FEF9FEF2C9679
:101C0000CDBFDEBFDF91CF911F910F91FF90EF907D
:101C1000DF90CF90BF90AF909F908F907F906F900C
:101C20005F904F903F902F900895FC010590615078
:101C300070400110D8F7809590958E0F9F1F0895E2
:101C4000FC016150704001900110D8F7809590958B
:101C50008E0F9F1F08950F931F93CF93DF93FB0168
:101C6000238121FD03C08FEF9FEF28C022FF16C004
:101C700046815781248135814217530744F4A0815E
:101C8000B1819D012F5F3F4F208331838C9326814B
:101C900037812F5F3F4F2683378310C0EB01092F19
:101CA000182F0084F185E02D1995892BE1F68E819E
:101CB0009F8101968E839F83812F902FDF91CF91FB
:101CC0001F910F910895FA01AA27283051F1203170
:101CD00081F1E8946F936E7F6E5F7F4F8F4F9F4FC0
:101CE000AF4FB1E03ED0B4E03CD0670F781F891F02
:101CF0009A1FA11D680F791F8A1F911DA11D6A0FD0
:101D0000711D811D911DA11D20D009F468943F9182
:101D10002AE0269F11243019305D3193DEF6CF0181
:101D20000895462F4770405D4193B3E00FD0C9F747
:101D3000F6CF462F4F70405D4A3318F0495D31FDB4
:101D40004052419302D0A9F7EACFB4E0A695979507
:101D5000879577956795BA95C9F7009761057105DD
:101D600008959B01AC010A2E069457954795379527
:101D70002795BA95C9F7620F731F841F951FA01D81
:061D80000895F894FFCF66
:101D8600A008400604080020B0096006408008202C
:101D9600FCEED61180FD7E1C6318FADAB013964C61
:101DA600E339B5DB016A4423C0A426281ECD5F852E
:101DB6002F81B38D7B567DB9C453AE421999594EC6
:101DC600D98E09E1702416AB06983145750241C3D8
:101DD600AF7AF05AEAC848A1BCF7BE30F63BCECC83
:101DE6002CA79C8AD50C33C569361291D3608BC952
:101DF600C2AA0FB110A647C7F903376ED29E2A664C
:101E0600EFE75D3C29AC5CA3F454C657872E0DCF93
:101E1600D4FF61EDAD3A43504FA50020E567649BC2
:101E2600720EECDE3E946D25DCE86C1FDD77D7057F
:101E36003F4AF379510B68921A657682B29F274B17
:101E46007193900AF15E55B75B7F78382D4D95A258
:101E5600078F21048CE2C16F74EBF27C889DA88900
:101E6600731B8349DFE9F8FE14583208CAD8CBBD84
:101E76002B34BB3DBFB89A155246B6D062A0221D80
:101E86001735E640A9BAFB84D1F5E086E497B46B32
:101E96008A143D00C39F38C0DB32B3A5557E9162DC
:101EA60064035A0DD8E736F0092CA8D107EF1C9B1E
:101EB6008BC2EE1735971AAE1B746EE050BC7D20B0
:101EC6004B3ADA56E1F1596ABB11854D73E394A09A
:101ED600F33E2B86163BE96646D3A1000FBD2F883D
:101EE60087A4E82979B6257BD92E43B87672B51E24
:101EF6005D82EC008EA96F8DA65815FF9A966BC76A
:101F060034B09000C83CAA9DBAA34124CB2606B99A
:101F16000421ABD2F71FFB7CCCCF535EC40000C1BB
:101F2600B25BA7B195BE0EFD392DE68F52CD6DADD4
:101F3600ED47BF7719896551CEF4613775842A401C
:101F46000C63AC22FE12EAB7E527F5E200DF4AE4AD
:101F560018C6603F28570067455FDCDE4F1D4E0000
:101F6600EBF86C5C8054029EDD300B13989C93D486
:101F7600FA330010FC8CF27199D544C99283017032
:101F860042B4CAA278F94C49D6680AF60005D78148
:101F960094208510C2C001FB01C0C21085209401A7
:101FA600312E204465637279707420454452206452
:101FB6006174610A00322E205072696E74204544A5
:101FC6005220646174610A00332E20454355207304
:101FD60074617475730A0044656372797074696E0E
:101FE6006720646174610A004411BBCEF0AA4AB44A
:101FF600FA1AD10AE09BBD3D88E336D94716EAD7DF
:102006005C0041CFA1F7D98025730A00426C616359
:102016006B20626F7820636F6E6E65637465640A09
:10202600004F7074696F6E3A2025640A00416C7225
:1020360065616479206465636F646564210A0043A1
:102046006172206E6F7420666F756E640A00486157
:10205600766520796F75207472696564207475726F
:102066006E696E67206974206F6E20616E64206FE2
:10207600666620616761696E3F0A0057726F6E6718
:1020860020696E7075740A0060ED8239430CD9C9F7
:10209600462013AB10E4522D30062FC4C045C73A74
:1020A600E94E8F2A895CC8642AF599046B94D5E0B9
:1020B600D975CED1D8838D93E38447858E696CBB61
:1020C6003AA1E9DDFF44C2D160ED8239430CD9C99A
:1020D600462013AB10E4522D962570EA4C6F646AC5
:1020E600F969D3A525942F016AE7293F61A1D5CFC8
:1020F60026D5BD87426748FF60ED8239430CD9C9B2
:10210600462013AB10E4522DAA3047EF1F72751309
:102116005556C36B4C43EC437E80A1C9BC5787AB75
:10212600B8FD6B9A4BE522CA8A13F39C6C373A5773
:10213600B420F35A290B3A4546F82189A53FA79BB7
:1021460062641030A868093169392D58782D9FE0EE
:102156008B22246AC5F8B7BFB5903692197EDC5437
:10216600533731DAA2583CD44FAA1A02062B232839
:0A21760034991DA53C789A0700007B
:00000001FF
