:100000000C9413010C9439010C9439010C943901AE
:100010000C9439010C9439010C9439010C94390178
:100020000C9439010C9439010C9439010C94390168
:100030000C9439010C9439010C9439010C94390158
:100040000C9439010C9439010C9439010C94390148
:100050000C9439010C9439010C9439010C94390138
:100060000C9439010C9439010C9439010C94390128
:100070000C9439010C9439010C9439010C94390118
:100080000C9439010C9439010C9439010C94390108
:100090000C9439010C9439010C9439010C943901F8
:1000A0000C9439010C9439010C9439010C943901E8
:1000B0000C9439010C9439010C9439010C943901D8
:1000C0000C9439010C9439010C9439010C943901C8
:1000D0000C9439010C9439010C9439010C943901B8
:1000E0000C9439010C9439010C9439010C943901A8
:1000F0000C9439010C9439010C9439010C94390198
:100100000C9439010C9439010C9439010C94390187
:100110000C9439010C9439010C9439010C94390177
:100120000C9439010C9439010C9439010C94390167
:100130000C9439010C9439010C9439010C94390157
:100140000C9439010C9439010C9439010C94390147
:100150000C9439010C9439010C9439010C94390137
:100160000C9439010C9439010C9439010C94390127
:100170000C9439010C9439010C9439010C94390117
:100180000C9439010C9439010C9439010C94390107
:100190000C9439010C9439010C9439010C943901F7
:1001A0000C9439010C9439010C9439010C943901E7
:1001B0000C9439010C9439010C9439010C943901D7
:1001C0000C9439010C9439010C9439010C943901C7
:1001D0000C9439010C9439010C9439010C943901B7
:1001E0000C9439010C9439010C9439010C943901A7
:1001F0000C9439010C9439010C9439010C943E078C
:1002000000000000000000000000000000000000EE
:1002100000000000000000000000000000000000DE
:1002200000000000000011241FBECFEFCDBFDFE3B0
:10023000DEBF00E00CBF18BE19BE1ABE1BBE11E225
:10024000A0E0B0E2E0EDFDE200E00BBF02C00790ED
:100250000D92A039B107D9F71BBE22E2A0E9B1E2A5
:1002600001C01D92A136B207E1F70E9446050C9429
:10027000E6160C940000CF93DF93CDB7DEB72A9734
:10028000CDBFDEBF8C839D836E837F834887598774
:100290002A8719821A8219821A8225C08C819D812F
:1002A0000E9494078B838C819D816B810E94120731
:1002B0002E813F8189819A81820F931F2B81FC01BE
:1002C00020839B818A85981749F42E813F818981FB
:1002D0009A81820F931FFC0110820CC089819A8140
:1002E000019689839A8329813A8188859985821725
:1002F0009307A0F689819A812A96CDBFDEBFDF9150
:10030000CF910895CF93DF931F92CDB7DEB70E94B0
:10031000481080910020909101208D30904FB9F4C9
:1003200080910A2090910B202AE130E2232F2F9315
:100330002AE130E22F93292F2F938F930E94740785
:100340000F900F900F900F908FEF0E9438128091B6
:100350009221909193219E012F5F3F4F8217930727
:1003600058F080919221909193219A959E012F5F50
:100370003F4F28173907A8F480910A2090910B204D
:1003800020E330E2232F2F9320E330E22F93292F15
:100390002F938F930E9474070F900F900F900F90E0
:1003A00033C080910220909103208D3A9A4B61F5E1
:1003B00080910A2090910B2020E430E2232F2F938C
:1003C00020E430E22F93292F2F938F930E947407FC
:1003D0000F900F900F900F908EE397E00E944512C0
:1003E00080910A2090910B202CE430E2232F2F9350
:1003F0002CE430E22F93292F2F938F930E947407C0
:100400000F900F900F900F900F90DF91CF91089564
:10041000CF93DF93CDB7DEB784E090E00E94A812BF
:10042000809390219093912180919021909191219E
:10043000FC01108211828091902190919121FC0108
:1004400012821382DF91CF910895CF93DF931F9291
:100450001F92CDB7DEB789839A83809190219091C6
:100460009121FC0180819181892B99F480919021C7
:100470009091912129813A81FC01208331838091DF
:1004800090219091912129813A81FC01228333832B
:1004900015C08091902190919121FC0182819381DE
:1004A00029813A81FC0121873287809190219091A6
:1004B000912129813A81FC01228333830F900F908F
:1004C000DF91CF910895CF93DF93CDB7DEB7CA5CAC
:1004D000D109CDBFDEBF8BE090E00E94A8128983D6
:1004E0009A8389819A814BE050E060E070E00E943D
:1004F000F31380910A2090910B202EE430E2232FF9
:100500002F932EE430E22F93292F2F938F930E9465
:1005100074070F900F900F900F9080910A20909188
:100520000B20BE016D5F7F4F2AE048EC50E00E9437
:100530003B01CE0103960E94011401969C01898122
:100540009A81FC012183328389819A81FC01818116
:1005500092810E94A8129C0189819A81FC012583C5
:10056000368389819A81FC01858196819E012D5F68
:100570003F4FB9010E94FA1380910A2090910B20FD
:1005800023E630E2232F2F9323E630E22F93292F07
:100590002F938F930E9474070F900F900F900F90DE
:1005A00080910A2090910B20BE016D5F7F4F2AE061
:1005B00048EC50E00E943B01CE0103960E940114DA
:1005C00001969C0189819A81FC012383348389816E
:1005D0009A81FC01838194810E94A8129C018981E7
:1005E0009A81FC012783308789819A81FC01878168
:1005F00090859E012D5F3F4FB9010E94FA13209113
:10060000942181E0820F8093942189819A81FC0159
:10061000208389819A81FC011186128689819A81C1
:100620000E942502C653DF4FCDBFDEBFDF91CF91C1
:100630000895CF93DF93CDB7DEB72797CDBFDEBF49
:100640008D836E837F8319821A828091902190918D
:100650009121FC01808191818B839C830BC08B81D4
:100660009C8189839A838B819C81FC018185928501
:100670008B839C838B819C81892B39F08B819C811E
:10068000FC0190818D81981751F78B819C81892B7A
:1006900059F08E819F81892B39F08E819F8129812C
:1006A0003A81FC01208331838B819C812796CDBFC9
:1006B000DEBFDF91CF910895CF93DF93CDB7DEB743
:1006C0002597CDBFDEBF8D83CE010396BC018D8102
:1006D0000E94190389839A8389819A81892BA9F4BD
:1006E00080910A2090910B2028E730E2232F2F934E
:1006F00028E730E22F93292F2F938F930E947407BE
:100700000F900F900F900F9060C08B819C81892B70
:1007100051F08B819C8129813A81F90121853285B3
:10072000FC01218732878091902190919121FC01D9
:100730002081318189819A812817390761F480915C
:1007400090219091912129813A81F9012185328569
:10075000FC01208331838091902190919121FC01B3
:100760002281338189819A8128173907E1F48B81AD
:100770009C81892B51F080919021909191212B8126
:100780003C81FC01228333830EC0809190219091A3
:1007900091212091902130919121F9012081318185
:1007A000FC012283338389819A81FC0185819681B2
:1007B0000E943D1389819A81FC01878190850E9466
:1007C0003D1389819A810E943D132596CDBFDEBFDE
:1007D000DF91CF910895CF93DF931F921F92CDB7F2
:1007E000DEB78091902190919121FC0180819181CF
:1007F00089839A8335C089819A81FC0167817085DC
:1008000089819A81FC014581568189819A81FC0107
:100810008081282F30E080910A2090910B20E72FD3
:10082000EF936F93652F6F934F93432F4F932F93B6
:1008300024EA30E2232F2F9324EA30E22F93292F4A
:100840002F938F930E9474078DB79EB70A96CDBFE2
:10085000DEBF89819A81FC018185928589839A8393
:1008600089819A81892B39F60F900F90DF91CF9172
:100870000895CF93DF9300D000D0CDB7DEB71B82B1
:100880001C8281E090E08B839C83809190219091E9
:100890009121FC018081918189839A831DC0898186
:1008A0009A818D839E8389819A81FC0181859285BD
:1008B00089839A838D819E81FC01858196810E9426
:1008C0003D138D819E81FC01878190850E943D139F
:1008D0008D819E810E943D1389819A81892BF9F631
:1008E0002696CDBFDEBFDF91CF910895CF93DF93E2
:1008F000CDB7DEB72A97CDBFDEBF8A8781E090E013
:1009000089839A8360E070E08A850E9419038B8353
:100910009C838B819C81892BA9F480910A209091E2
:100920000B2028E730E2232F2F9328E730E22F9384
:10093000292F2F938F930E9474070F900F900F9081
:100940000F9075C08B819C81FC01478150858B8104
:100950009C81FC012581368180910A2090910B2099
:10096000652F6F934F93432F4F932F932A812F938C
:1009700029812F932BEB30E2232F2F932BEB30E2A7
:100980002F93292F2F938F930E9474078DB79EB7B3
:100990000A96CDBFDEBF80910A2090910B2027ECF4
:1009A00030E2232F2F9327EC30E22F93292F2F9320
:1009B0008F930E9474070F900F900F900F908B8170
:1009C0009C81FC0181819281AC018B819C81FC0125
:1009D0006581768180910A2090910B202AE00E9407
:1009E0003B0180910A2090910B2028ED30E2232FCB
:1009F0002F9328ED30E22F93292F2F938F930E946E
:100A000074070F900F900F900F908B819C81FC01C9
:100A100083819481AC018B819C81FC01678170850D
:100A200080910A2090910B202AE00E943B012A9697
:100A3000CDBFDEBFDF91CF910895CF93DF93CDB7C8
:100A4000DEB780E590E020E530E0F901208122600A
:100A5000FC012083000081E590E0FC018081882F6B
:100A600090E082709927892BB1F388ED84BF81E0F3
:100A70008093400080E590E020E530E0F90120819E
:100A80002E7FFC012083DF91CF910895CF93DF93D8
:100A9000CDB7DEB7A697CDBFDEBF0E945D08DC01F3
:100AA000CB01917089839A8389819A819C0121501D
:100AB00031092B833C832DB73EB7281B390B2DBF43
:100AC0003EBF8DB79EB701968D839E838D819E819B
:100AD00080939221909393210E941D0580910A207A
:100AE00090910B200E9481060E94080280910A20AA
:100AF00090910B2028EE30E2232F2F9328EE30E246
:100B00002F93292F2F938F930E9474070F900F908C
:100B10000F900F9080910A2090910B2027E031E2F6
:100B2000232F2F9327E031E22F93292F2F938F9399
:100B30000E9474070F900F900F900F9080910A20E1
:100B400090910B2027E231E2232F2F9327E231E20D
:100B50002F93292F2F938F930E9474070F900F903C
:100B60000F900F9080910A2090910B202EE331E29C
:100B7000232F2F932EE331E22F93292F2F938F933F
:100B80000E9474070F900F900F900F9080910A2091
:100B900090910B2024E531E2232F2F9324E531E2BD
:100BA0002F93292F2F938F930E9474070F900F90EC
:100BB0000F900F9080910A2090910B202DE631E24A
:100BC000232F2F932DE631E22F93292F2F938F93ED
:100BD0000E9474070F900F900F900F9080910A2041
:100BE00090910B20BE01695F7F4F2AE040E150E009
:100BF0000E943B01CE0107960E94D51383309105D8
:100C0000B1F08430910534F48130910551F00297B0
:100C100059F061C08430910589F1059709F455C0F8
:100C20005AC00E94EB036CC00E94630269C08091AD
:100C30000A2090910B2026E731E2232F2F9326E7FD
:100C400031E22F93292F2F938F930E9474070F90D7
:100C50000F900F900F9080910A2090910B20BE0171
:100C6000695F7F4F2AE040E150E00E943B01CE01E6
:100C700007960E94D5130E945C0342C080910A200F
:100C800090910B2026E731E2232F2F9326E731E2C4
:100C90002F93292F2F938F930E9474070F900F90FB
:100CA0000F900F9080910A2090910B20BE01695FF8
:100CB0007F4F2AE040E150E00E943B01CE010796C1
:100CC0000E94D5130E9476041BC00E94390481E063
:100CD00090E00E94E61680910A2090910B202CE46F
:100CE00030E2232F2F932CE430E22F93292F2F93E0
:100CF0008F930E9474070F900F900F900F90000039
:100D0000F5CECF93DF931F921F92CDB7DEB78983C5
:100D10009A8389819A81FC018281938129813A8118
:100D2000F9012581FC01258389819A81FC01828159
:100D3000938129813A81F9012581FC0121838981EF
:100D40009A81FC018281938129813A81F901248170
:100D5000FC01268389819A81FC018281938129810A
:100D60003A81F9012481FC01228389819A81FC0165
:100D70008081918129813A81F90120813181F901B4
:100D80002381FC01238389819A81FC0180819181E7
:100D900029813A81F90120813181F9012381FC0106
:100DA000238389819A81FC018081918129813A8103
:100DB000F90120813181F9012381FC01238389819B
:100DC0009A81FC018081918124E0FC012483898146
:100DD0009A81FC018081918123E0FC012583898136
:100DE0009A81FC0180819181FC01178289819A811D
:100DF000FC018081918122E2FC01268389819A8114
:100E0000FC018081918129813A81F9012081318120
:100E1000F90124812861FC0124830F900F90DF9158
:100E2000CF910895CF93DF9300D0CDB7DEB78983FC
:100E30009A836B83000089819A81FC018081918172
:100E4000FC018181882F90E080729927892B99F38A
:100E500089819A81FC01808191812B81FC01208311
:100E6000000089819A81FC0180819181FC0181814E
:100E70002396CDBFDEBFDF91CF910895CF93DF934F
:100E80001F92CDB7DEB7898380910A2090910B2005
:100E900069810E9412070F90DF91CF910895CF933F
:100EA000DF9300D01F92CDB7DEB789839A836B831F
:100EB0007C830EC08B819C81FC01208189819A8179
:100EC000622F0E9412078B819C8101968B839C83E9
:100ED0008B819C81FC018081882361F72496CDBFA2
:100EE000DEBFDF91CF910895CF93DF931F921F92C2
:100EF000CDB7DEB7CE010C9689839A8329813A81DA
:100F00008A859B85AC0168E770E085E991E20E94E3
:100F100012148885998565E971E20E944F070F9048
:100F20000F90DF91CF910895CF93DF931F921F927F
:100F3000CDB7DEB789839A83000089819A81FC014D
:100F400080819181FC0181818823BCF789819A810C
:100F5000FC0180819181FC0180810F900F90DF91D5
:100F6000CF910895CF93DF93CDB7DEB780910A205C
:100F700090910B200E949407DF91CF910895CF9319
:100F8000DF93CDB7DEB72A97CDBFDEBF8C839D83BD
:100F90006E837F83488759872A8719821A828C81BA
:100FA0009D810E9494078B838C819D816B810E941F
:100FB00012072E813F8189819A81820F931F2B8195
:100FC000FC012083888599859C0121503109898104
:100FD0009A818217930728F489819A8101968983DF
:100FE0009A839B818A85981749F42E813F81898154
:100FF0009A81820F931FFC01108201C0D0CF89819A
:101000009A812A96CDBFDEBFDF91CF910895CF930D
:10101000DF93CDB7DEB72897CDBFDEBF86E298E17C
:10102000A4E3B1EC8093512290935222A0935322D7
:10103000B093542287E99BEEA8E5BEEA8093512243
:1010400090935222A0935322B09354228FEF9BE3AC
:10105000A2E2B5E68093592290935A22A0935B2294
:10106000B0935C2282E09FEFA1E0B0E089839A8395
:10107000AB83BC8389819A81AB81BC810BB6ABBF4A
:10108000FC0187919791A791B6910BBE8D839E83AA
:10109000AF83B8878D819E81AF81B885AC01BD01DA
:1010A00081E492E20E947E0A81E080930D222896DC
:1010B000CDBFDEBFDF91CF910895CF93DF93CDB742
:1010C000DEB780910D22882311F40E94070881E485
:1010D00092E20E94FD09DC01CB01BC01CD01DF9150
:1010E000CF910895EF92FF920F931F93CF93DF93C9
:1010F000CDB7DEB72A97CDBFDEBF89879A878985AE
:101100009A85FC0184859585A685B78589839A8310
:10111000AB83BC8389859A85FC0180819181A28102
:10112000B3819C01AD015F7789859A85FC0184813B
:101130009581A681B781282739274A275B2789858A
:101140009A85FC0180859185A285B38582279327A6
:10115000A427B5278D839E83AF83B8878D819E8119
:10116000AF81B885880F991FAA1FBB1F2D813E81B3
:101170004F81588582279327A427B5278D839E8387
:10118000AF83B88789819A81AB81BC819C01AD0115
:1011900056954795379527958D819E81AF81B88566
:1011A00082279327A427B52729813A814B815C8127
:1011B00082279327A427B52789839A83AB83BC838F
:1011C00089859A85FC0184819581A681B7812985CD
:1011D0003A85F90180839183A283B38389859A85B7
:1011E000FC0180859185A285B38529853A85F90121
:1011F00084839583A683B78389819A81AB81BC81DF
:101200009C01AD01012E1AE0220F331F441F551F10
:101210001A95D1F7102D8D819E81AF81B8858227D7
:101220009327A427B52729853A85F90180879187D7
:10123000A287B38729853A8589819A81AB81BC8150
:10124000F90184879587A687B78789859A85FC01E8
:10125000248135814681578189819A81AB81BC8106
:1012600081709927AA27BB27B095A0959095819565
:101270009F4FAF4FBF4F7C018D0189859A85FC013F
:1012800080899189A289B3898E219F21A023B123CE
:1012900082279327A427B52729853A85F9018483D6
:1012A0009583A683B78389859A85FC01208531853E
:1012B0004285538589819A81AB81BC818170992750
:1012C000AA27BB27B095A095909581959F4FAF4FCA
:1012D000BF4F7C018D0189859A85FC0184899589A0
:1012E000A689B7898E219F21A023B1238227932726
:1012F000A427B52729853A85F90180879187A28798
:10130000B3872A96CDBFDEBFDF91CF911F910F919A
:10131000FF90EF900895CF93DF93CDB7DEB72A9774
:10132000CDBFDEBF89879A8789859A85FC01848530
:101330009585A685B78589839A83AB83BC83898588
:101340009A85FC01208131814281538189859A856A
:10135000FC0180859185A285B385892F9A2FAB2FBB
:10136000BB27820F931FA41FB51F8D839E83AF835E
:10137000B88729813A814B815C818D819E81AF81C3
:10138000B88582279327A427B52789839A83AB83BF
:10139000BC838D819E81AF81B88581709927AA27F2
:1013A000BB27B095A095909581959F4FAF4FBF4FAC
:1013B0009C01AD0189859A85FC01808D918DA28D5E
:1013C000B38D82239323A423B52329813A814B81B2
:1013D0005C8182279327A427B52789839A83AB83CF
:1013E000BC8389819A81AB81BC81BC01CD012A96E5
:1013F000CDBFDEBFDF91CF910895CF93DF931F92D2
:101400001F92CDB7DEB789839A8389819A810E9422
:10141000720889819A810E948B09DC01CB01BC0191
:10142000CD010F900F90DF91CF910895CF93DF936F
:101430001F921F92CDB7DEB789839A8389819A81E3
:10144000FC0180819181A281B381BF77892B8A2B96
:101450008B2B09F04EC089819A81FC018481958192
:10146000A681B781892B8A2B8B2B09F042C08981F9
:101470009A81FC0180859185A285B385892B8A2B71
:101480008B2BB9F589819A81FC0184859585A68588
:10149000B785892B8A2B8B2B61F529813A8184E5CD
:1014A00090E0A0E0B0E0F90180839183A283B38350
:1014B00029813A8189E490E0A0E0B0E0F9018483D9
:1014C0009583A683B78329813A818EE490E0A0E0DA
:1014D000B0E0F90180879187A287B38729813A819B
:1014E00089E590E0A0E0B0E0F90184879587A687C0
:1014F000B7870F900F90DF91CF910895AF92BF9271
:10150000CF92DF92EF92FF920F931F93CF93DF93CF
:10151000CDB7DEB72C97CDBFDEBF8D839E834F83C3
:10152000588769877A872D813E818F819885A98523
:10153000BA85F90180839183A283B3838D819E81D3
:10154000FC0180899189A289B3892D813E81F901AD
:1015500084839583A683B7838D819E81FC018489D2
:101560009589A689B7892D813E81F9018087918768
:10157000A287B3878D819E81FC01808D918DA28D84
:10158000B38D2D813E81F90184879587A687B78722
:1015900081E090E089839A8375C089819A81FC01FA
:1015A000E370FF27EB87FC8789819A8183709927F5
:1015B0002D813E81880F991F880F991F820F931FDD
:1015C000DC01ED90FD900D911C9189819A815C0167
:1015D000990FCC08DD0889819A810197837099273A
:1015E0002D813E81880F991F880F991F820F931FAD
:1015F000FC01208131814281538189819A81019747
:10160000837099276D817E81880F991F880F991F9C
:10161000860F971FFC0180819181A281B381072EE3
:101620007EE1B695A795979587957A95D1F7702D18
:1016300082279327A427B5279C01AD0165E679E8A9
:1016400087E09CE60E947E12DC01CB018A0D9B1D87
:10165000AC1DBD1D8E259F25A027B1274D815E8124
:101660002B853C85220F331F220F331F240F351F7C
:10167000F90180839183A283B38389819A81019642
:1016800089839A8389819A8108970CF486CF8D810A
:101690009E810E94160A1B821C8209C08D819E8138
:1016A0000E9472088B819C8101968B839C838B8125
:1016B0009C8108979CF32C96CDBFDEBFDF91CF9124
:1016C0001F910F91FF90EF90DF90CF90BF90AF9060
:1016D0000895CF93DF93CDB7DEB72C97CDBFDEBF94
:1016E0008F83988769877A874B875C8719821A82EC
:1016F0001B821C821D821E8220C08D819E81880FCC
:10170000991F880F991F29853A85820F931FFC0125
:1017100080819181A281B38129813A814B815C8151
:1017200082279327A427B52789839A83AB83BC8319
:101730008D819E8101968D839E832D813E818B8537
:101740009C8528173907CCF289819A81AB81BC81AD
:101750002F813885AC01BD01C9010E947E0A2C96FB
:10176000CDBFDEBFDF91CF910895CF93DF93CDB78B
:10177000DEB78FE00E94410E80E090E00E94AD0C49
:1017800080E00E94010D80E00E94210D80E090E049
:101790000E94410D80E190E00E94610D81E00E9475
:1017A000810D81E00E94A10D80E090E00E94C10DBA
:1017B00080E090E00E94E10D80E090E00E94010E48
:1017C00084E090E00E94210E60E070E080E292E010
:1017D0000E94550E61E070E080E292E00E947A0E75
:1017E00068E070E080E292E00E949F0E60E070E0AE
:1017F00080E292E00E94C40EDF91CF910895CF93D2
:10180000DF931F921F92CDB7DEB789839A8380E062
:1018100092E029813A81FC01248735870F900F904F
:10182000DF91CF910895CF93DF9300D0CDB7DEB78E
:1018300080E096E02FE7FC01228381E00E94E10C2A
:1018400019821A825DC060E070E080E292E00E943E
:101850009F0E0E948E0C8B8368E070E080E292E025
:101860000E949F0E0E948E0C982F8B8189278B835C
:1018700060E170E080E292E00E949F0E0E948E0C78
:10188000982F8B8189278B8368E170E080E292E05A
:101890000E949F0E0E948E0C982F8B8189278B832C
:1018A00060E270E080E292E00E949F0E0E948E0C47
:1018B000982F8B8189278B8368E270E080E292E029
:1018C0000E949F0E0E948E0C982F8B8189278B83FC
:1018D00060E370E080E292E00E949F0E0E948E0C16
:1018E000982F8B8189278B838981880F89838B81AE
:1018F000982F91708981892B89838A818F5F8A8350
:101900008A81883008F49FCF80E00E94E10C8981B1
:101910002396CDBFDEBFDF91CF910895CF93DF93A4
:10192000CDB7DEB780E092E021E0FC01268384E0C1
:101930000E94CD0C000080E092E0FC018681882F9F
:1019400090E081709927892BB1F380E092E0FC014F
:1019500080899189DF91CF910895CF93DF931F9272
:101960001F92CDB7DEB789839A8380E092E020E0B2
:1019700032E0F90120812F73FC01208380E092E0A6
:1019800020E032E0F90130812981232BFC01208302
:101990000F900F90DF91CF910895CF93DF931F9217
:1019A000CDB7DEB7898380E092E020E032E0F90134
:1019B00030812981232BFC0120830F90DF91CF916F
:1019C0000895CF93DF931F92CDB7DEB789838981C6
:1019D000882351F080E092E020E032E0F90120819C
:1019E0002160FC01208309C080E092E020E032E029
:1019F000F90120812E7FFC0120830F90DF91CF9190
:101A00000895CF93DF931F92CDB7DEB78983898185
:101A1000882351F080E092E020E032E0F90121815A
:101A20002061FC01218309C080E092E020E032E0E7
:101A3000F90121812F7EFC0121830F90DF91CF914D
:101A40000895CF93DF931F92CDB7DEB78983898145
:101A5000882351F080E092E020E032E0F90121811A
:101A60002860FC01218309C080E092E020E032E0A0
:101A7000F9012181277FFC0121830F90DF91CF9114
:101A80000895CF93DF931F921F92CDB7DEB789835E
:101A90009A8380E092E020E032E0F9012181297F01
:101AA000FC01218380E092E020E032E0F901318105
:101AB0002981232BFC0121830F900F90DF91CF917F
:101AC0000895CF93DF931F921F92CDB7DEB789831E
:101AD0009A8380E092E020E032E0F90122812F78C1
:101AE000FC01228380E092E020E032E0F9013281C3
:101AF0002981232BFC0122830F900F90DF91CF913E
:101B00000895CF93DF931F92CDB7DEB78983898184
:101B1000882351F080E092E020E032E0F901228158
:101B20002260FC01228309C080E092E020E032E0E4
:101B3000F90122812D7FFC0122830F90DF91CF914B
:101B40000895CF93DF931F92CDB7DEB78983898144
:101B5000882351F080E092E020E032E0F901228118
:101B60002160FC01228309C080E092E020E032E0A5
:101B7000F90122812E7FFC0122830F90DF91CF910A
:101B80000895CF93DF931F921F92CDB7DEB789835D
:101B90009A8380E092E020E032E0F90123812F7304
:101BA000FC01238380E092E020E032E0F901338100
:101BB0002981232BFC0123830F900F90DF91CF917C
:101BC0000895CF93DF931F921F92CDB7DEB789831D
:101BD0009A8380E092E020E032E0F9012381277CC3
:101BE000FC01238380E092E020E032E0F9013381C0
:101BF0002981232BFC0123830F900F90DF91CF913C
:101C00000895CF93DF931F921F92CDB7DEB78983DC
:101C10009A8380E092E020E032E0F9012381287F7E
:101C2000FC01238380E092E020E032E0F90133817F
:101C30002981232BFC0123830F900F90DF91CF91FB
:101C40000895CF93DF931F921F92CDB7DEB789839C
:101C50009A8380E092E020E032E0F9012481287F3D
:101C6000FC01248380E092E020E032E0F90134813D
:101C70002981232BFC0124830F900F90DF91CF91BA
:101C80000895CF93DF931F92CDB7DEB7898380E0AD
:101C900092E020E032E0F90136812981232BFC011A
:101CA00026830F90DF91CF910895CF93DF9300D0DB
:101CB0001F92CDB7DEB789839A836B837C8389813A
:101CC0009A81FC018081282F237E89819A81FC01E1
:101CD000208389819A81FC0190818B81292F282B77
:101CE00089819A81FC0120832496CDBFDEBFDF91DC
:101CF000CF910895CF93DF9300D01F92CDB7DEB779
:101D000089839A836B837C8389819A81FC0180819A
:101D1000282F2C7F89819A81FC01208389819A81D7
:101D2000FC0190818B81292F282B89819A81FC01CC
:101D300020832496CDBFDEBFDF91CF910895CF934E
:101D4000DF9300D01F92CDB7DEB789839A836B8370
:101D50007C8389819A81FC018181282F2778898160
:101D60009A81FC01218389819A81FC0191818B8177
:101D7000292F282B89819A81FC0121832496CDBFAC
:101D8000DEBFDF91CF910895CF93DF9300D01F92F4
:101D9000CDB7DEB789839A836B837C8389819A81EF
:101DA000FC018281282F2C7F89819A81FC0122836A
:101DB00089819A81FC0192818B81292F282B89812D
:101DC0009A81FC0122832496CDBFDEBFDF91CF91A3
:101DD0000895EF92FF920F931F93CF93DF9300D05C
:101DE00000D0CDB7DEB78D839E838D819E81FC01AF
:101DF00020813181428153818D819E81FC018481CA
:101E00009581A681B7817C018D01689414F816959F
:101E10000795F794E7941694D1F7072E7BE1880F86
:101E2000991FAA1FBB1F7A95D1F7702D8E299F2964
:101E3000A02BB12B79018A01E81AF90A0A0B1B0BB6
:101E4000D801C70189839A83AB83BC838D819E812E
:101E5000FC0124813581468157818D819E81FC0161
:101E600080859185A285B3857C018D010D2EDFE0F3
:101E700016950795F794E794DA95D1F7D02D072EAC
:101E800071E1880F991FAA1FBB1F7A95D1F7702D9A
:101E90008E299F29A02BB12B82279327A427B52712
:101EA0002D813E81F90180839183A283B3838D814B
:101EB0009E81FC0120853185428553858D819E81DF
:101EC000FC0184859585A685B785820F931FA41F85
:101ED000B51F2D813E81F90184839583A683B78345
:101EE0008D819E81FC0124853585468557858981B4
:101EF0009A81AB81BC81820F931FA41FB51F2D81D6
:101F00003E81F90180879187A287B3878D819E8169
:101F1000FC01208131814281538189819A81AB8189
:101F2000BC81820F931FA41FB51F2D813E81F90133
:101F300084879587A687B7878D819E81FC018485DC
:101F40009585A685B785BC01CD012696CDBFDEBFA0
:101F5000DF91CF911F910F91FF90EF900895CF9354
:101F6000DF93CDB7DEB72A97CDBFDEBF8D839E83CB
:101F70004F83588769877A872D813E818FE294EA63
:101F8000A2ECB4E8F90180839183A283B3832D810D
:101F90003E818F819885A985BA85F90184879587C7
:101FA000A687B7878D819E81FC0184859585A6854E
:101FB000B7852D813E81F90180879187A287B387FC
:101FC0008D819E81FC0180859185A285B3852D81BF
:101FD0003E81F90184839583A683B78319821A828F
:101FE0001B821C820FC08D819E810E94E90E898117
:101FF0009A81AB81BC810196A11DB11D89839A8311
:10200000AB83BC8389819A81AB81BC814497A10554
:10201000B10548F32A96CDBFDEBFDF91CF91089579
:10202000CF93DF931F92CDB7DEB7898389818A3042
:1020300018F48981805D02C08981895A0F90DF91EF
:10204000CF910895CF93DF931F92CDB7DEB78983E9
:102050008981803330F089818A3318F489818053F3
:1020600013C08981813630F08981873618F48981DF
:1020700087550AC08981813430F08981873418F40A
:102080008981875301C080E30F90DF91CF9108953C
:102090000F931F93CF93DF93CDB7DEB72B97CDBFB1
:1020A000DEBF81E292E08A839B838A819B819C01CF
:1020B000F90185919591A591B4919F018C839D83A0
:1020C000AE83BF832A833B838C819D81AE81BF8198
:1020D00088879987AA87BB8788859985AA85BB85C4
:1020E000AC01BD0181E192E20E94AF0F1886198612
:1020F0001A861B86198218C08981882F90E0880F64
:10210000991F880F991F8C010F5D1D4D81E192E28F
:102110000E94E90EDC01CB01F80180839183A28348
:10212000B38389818F5F89838981883028F32B96D7
:10213000CDBFDEBFDF91CF911F910F910895CF9357
:10214000DF931F92CDB7DEB78983898180930E22FA
:102150000F90DF91CF910895CF93DF93CDB7DEB786
:102160002897CDBFDEBF8F8398871A82198230C02F
:102170008981882F90E080509E4F8B839C838B8138
:102180009C81FC0184918D838D818E838981882F30
:1021900090E08F5D9D4DFC0180819E8189278E831B
:1021A0008981882F90E02F813885820F931FFC0151
:1021B00090818E81982780910E228095892B882F7F
:1021C00090E0982F8A81892B8A8389818F5F898308
:1021D0008981803268F281E09A81992309F080E058
:1021E0002896CDBFDEBFDF91CF9108951F93CF9387
:1021F000DF93CDB7DEB72D97CDBFDEBF8C879D8730
:102200001A82198263C08981882F90E0880F991FF4
:1022100080509E4F8B839C838B819C81FC01849199
:102220008D838D818E838981882F90E0880F991FFF
:10223000019680509E4F8F8398878F819885FC01EF
:102240008491898789858A878981882F90E0880F82
:10225000991F8F5D9D4DFC0180819E8189278E8312
:102260008981882F90E0880F991F01968F5D9D4D81
:10227000FC0180819A8589278A878E810E9422109D
:10228000882F90E082959295907F9827807F98275D
:10229000182F8A850E942210812B8B878981882F95
:1022A00090E02C853D85820F931FFC0190818B85EA
:1022B000982780910E228095892B882F90E0982F67
:1022C0008A81892B8A8389818F5F89838981803183
:1022D00008F499CF81E09A81992309F080E02D9646
:1022E000CDBFDEBFDF91CF911F910895CF93DF93D4
:1022F0001F92CDB7DEB78983898180930F220F901B
:10230000DF91CF910895CF93DF93CDB7DEB72797B5
:10231000CDBFDEBF8E839F8319822AC08981882F1B
:1023200090E080509E4F8A839B838A819B81FC0131
:1023300084918C838C818D838981882F90E08F5D3F
:102340009D4DFC0180819D8189278D838981882F06
:1023500090E02E813F81820F931F20910F22322F18
:1023600030952D81232BFC01208389818F5F898308
:102370008981803298F22796CDBFDEBFDF91CF9161
:102380000895FF920F931F93CF93DF93CDB7DEB7DE
:102390002B97CDBFDEBF8A879B8719825CC089815E
:1023A000882F90E0880F991F80509E4F8A839B83CF
:1023B0008A819B81FC0184918C838C818D838981AE
:1023C000882F90E0880F991F019680509E4F8E8332
:1023D0009F838E819F81FC0184918887888589876E
:1023E0008981882F90E0880F991F8F5D9D4DFC019A
:1023F00080819D8189278D838981882F90E0880F36
:10240000991F01968F5D9D4DFC01808199858927DB
:1024100089878981882F90E02A853B858901080F6B
:10242000191F8D810E942210882F90E0829592952D
:10243000907F9827807F9827F82E89850E94221008
:102440009F2D982B80910F228095892BF8018083F6
:1024500089818F5F89838981803108F4A0CF2B9691
:10246000CDBFDEBFDF91CF911F910F91FF900895F7
:10247000CF93DF931F92CDB7DEB789838981809395
:1024800010220F90DF91CF910895CF93DF93CDB7B6
:10249000DEB72797CDBFDEBF8E839F83198225C00D
:1024A0008981882F90E080509E4F8A839B838A8108
:1024B0009B81FC0184918C838C818D838981882F01
:1024C00090E08F5D9D4DFC0180819D8189278D83EA
:1024D00080911022982F90958D81892B2E813F819C
:1024E000F901199589818F5F898389818032C0F2D2
:1024F0002796CDBFDEBFDF91CF910895DB018F938B
:102500009F930E948E12BF91AF91A29F800D911D4B
:10251000A39F900DB29F900D112408950E949912CF
:10252000A59F900DB49F900DA49F800D911D112427
:102530000895A29FB001B39FC001A39F700D811D9C
:102540001124911DB29F700D811D1124911D0895BC
:10255000CF93DF938230910510F482E090E0E09118
:102560005F22F091602220E030E0C0E0D0E03097C0
:1025700011F14081518148175907C0F04817590798
:1025800061F482819381209719F08A839B832BC009
:1025900080935F229093602226C02115310519F0A7
:1025A0004217530718F49A01BE01DF01EF010280C0
:1025B000F381E02DDCCF2115310509F1281B390B02
:1025C0002430310590F412968D919C9113976115EA
:1025D000710521F0FB018283938304C080935F2205
:1025E00090936022FD01329644C0FD01E20FF31F7B
:1025F00081939193225031092D933C933AC02091BD
:102600005D2230915E22232B41F4209116203091DF
:10261000172020935D2230935E2220911420309168
:1026200015202115310541F42DB73EB740911820F2
:1026300050911920241B350BE0915D22F0915E2210
:10264000E217F307A0F42E1B3F0B2817390778F089
:10265000AC014E5F5F4F2417350748F04E0F5F1FE8
:1026600040935D2250935E228193919302C0E0E0FB
:10267000F0E0CF01DF91CF9108950F931F93CF9397
:10268000DF93009709F48CC0FC0132971282138209
:1026900000915F22109160220115110581F42081C3
:1026A0003181820F931F20915D2230915E22281785
:1026B000390779F5E0935D22F0935E2271C0D8016D
:1026C00040E050E0AE17BF0750F412962D913C91B8
:1026D0001397AD012115310509F1D901F3CF9D0102
:1026E000DA012283338360817181860F971F8217FD
:1026F000930769F4EC0128813981260F371F2E5F7B
:102700003F4F208331838A819B8182839383452B32
:1027100029F4E0935F22F093602242C01296ED9379
:10272000FC931397ED01499159919E01240F351F98
:10273000E217F30771F480819181840F951F02964F
:102740008D939C9311978281938112968D939C9384
:102750001397E0E0F0E0D80112968D919C911397C9
:10276000009719F0F8018C01F6CF8D919C9198019A
:102770002E5F3F4F820F931F20915D2230915E228A
:102780002817390769F4309729F410925F221092C4
:10279000602202C01282138200935D2210935E2297
:1027A000DF91CF911F910F910895FC018827992700
:1027B000E89421912032E9F3293010F02E30C8F34B
:1027C0002B3241F02D3239F4689404C00E940A146F
:1027D000820F911D219120532A30C0F31EF4909551
:1027E00081959F4F0895DC0101C06D934150504089
:1027F000E0F70895FB01DC0101900D920020E1F764
:102800000895FC0101900020E9F7809590958E0FC6
:102810009F1F08957AE0979F902D879F802D910D9F
:10282000112408950F931F93CF93DF93CDB7DEB795
:102830002E97CDBFDEBF8C01CA0146E04C830983D1
:102840001A8377FF02C060E070E8FB013197ED83E7
:10285000FE83A901BC01CE0101960E9445144D8161
:102860005E8157FD0AC02F813885421753070CF44B
:102870009A01F801E20FF31F10822E96CDBFDEBF42
:10288000DF91CF911F910F9108952F923F924F9218
:102890005F926F927F928F929F92AF92BF92CF92F0
:1028A000DF92EF92FF920F931F93CF93DF93CDB7F9
:1028B000DEB72C97CDBFDEBF7C016B018A01FC0126
:1028C00016821782838181FFBDC1CE0101964C0122
:1028D000F7019381F60193FD859193FF81916F013B
:1028E000882309F4ABC1853239F493FD859193FFB8
:1028F00081916F01853229F4B70190E00E94501652
:10290000E7CF512C312C20E02032A0F48B3269F03B
:1029100030F4803259F0833269F420612CC08D325A
:1029200039F0803339F4216026C02260246023C04E
:10293000286021C027FD27C030ED380F3A3078F4E9
:1029400026FF06C0FAE05F9E300D1124532E13C0FF
:102950008AE0389E300D1124332E20620CC08E3256
:1029600021F426FD6BC1206406C08C3611F420686A
:1029700002C0883641F4F60193FD859193FF819161
:102980006F018111C1CF982F9F7D9554933028F40A
:102990000C5F1F4FFFE3F9830DC0833631F083379F
:1029A00071F0833509F05BC022C0F8018081898312
:1029B0000E5F1F4F44244394512C540115C038011D
:1029C000F2E06F0E711CF801A080B18026FF03C0F9
:1029D000652D70E002C06FEF7FEFC5012C870E946C
:1029E00045162C0183012C852F77222E17C0380124
:1029F000F2E06F0E711CF801A080B18026FF03C0C9
:102A0000652D70E002C06FEF7FEFC5012C870E943B
:102A10003A162C012C852068222E830123FC1BC032
:102A2000832D90E048165906B0F4B70180E290E09B
:102A30000E9450163A94F4CFF50127FC859127FEA9
:102A400081915F01B70190E00E94501631103A94D5
:102A5000F1E04F1A51084114510471F7E5C0843672
:102A600011F0893639F5F80127FF07C060817181BF
:102A7000828193810C5F1F4F08C060817181072E96
:102A8000000C880B990B0E5F1F4F2F76722E97FF4D
:102A900009C090958095709561957F4F8F4F9F4F9E
:102AA0002068722E2AE030E0A4010E948816A82E29
:102AB000A81844C0853729F42F7EB22E2AE030E0D2
:102AC00025C0F22FF97FBF2E8F36C1F018F488355C
:102AD00079F0B4C0803719F0883721F0AFC02F2FBC
:102AE0002061B22EB4FE0DC08B2D8460B82E09C0BB
:102AF00024FF0AC09F2F9660B92E06C028E030E060
:102B000005C020E130E002C020E132E0F801B7FE6C
:102B100007C060817181828193810C5F1F4F06C065
:102B20006081718180E090E00E5F1F4FA4010E94E0
:102B30008816A82EA818FB2DFF777F2E76FE0BC0D7
:102B4000372D3E7FA51450F474FE0AC072FC08C0F5
:102B5000372D3E7E05C0BA2C372D03C0BA2C01C0DC
:102B6000B52C34FF0DC0FE01EA0DF11D80818033CC
:102B700011F4397E09C032FF06C0B394B39404C087
:102B8000832F867809F0B39433FD13C030FF06C05D
:102B90005A2CB31418F4530C5B18B32CB31468F408
:102BA000B70180E290E03C870E945016B3943C85C8
:102BB000F5CFB31410F43B1801C0312C34FF12C010
:102BC000B70180E390E03C870E9450163C8532FFBD
:102BD00017C031FD03C088E790E002C088E590E0AF
:102BE000B7010CC0832F867859F031FF02C08BE209
:102BF00001C080E237FD8DE2B70190E00E945016DF
:102C0000A51438F4B70180E390E00E9450165A945E
:102C1000F7CFAA94F401EA0DF11D8081B70190E08D
:102C20000E945016A110F5CF332009F451CEB70100
:102C300080E290E00E9450163A94F6CFF701868128
:102C4000978102C08FEF9FEF2C96CDBFDEBFDF9143
:102C5000CF911F910F91FF90EF90DF90CF90BF9099
:102C6000AF909F908F907F906F905F904F903F902C
:102C70002F900895FC010590615070400110D8F725
:102C8000809590958E0F9F1F0895FC0161507040B4
:102C900001900110D8F7809590958E0F9F1F089591
:102CA0000F931F93CF93DF93FB01238121FD03C07B
:102CB0008FEF9FEF28C022FF16C0468157812481E5
:102CC00035814217530744F4A081B1819D012F5FE4
:102CD0003F4F208331838C93268137812F5F3F4F75
:102CE0002683378310C0EB01092F182F0084F1854C
:102CF000E02D1995892BE1F68E819F8101968E83B7
:102D00009F83812F902FDF91CF911F910F91089575
:102D1000FA01AA27283051F1203181F1E8946F930C
:102D20006E7F6E5F7F4F8F4F9F4FAF4FB1E03ED0B2
:102D3000B4E03CD0670F781F891F9A1FA11D680F50
:102D4000791F8A1F911DA11D6A0F711D811D911D83
:102D5000A11D20D009F468943F912AE0269F1124F8
:102D60003019305D3193DEF6CF010895462F47705C
:102D7000405D4193B3E00FD0C9F7F6CF462F4F70B7
:102D8000405D4A3318F0495D31FD4052419302D015
:102D9000A9F7EACFB4E0A6959795879577956795BB
:102DA000BA95C9F700976105710508959B01AC01BB
:102DB0000A2E06945795479537952795BA95C9F7E2
:102DC000620F731F841F951FA01D0895F894FFCFF5
:102DD000ADDE3FB3A008400604080420B009600639
:102DE00040800C2000006122200073756368206819
:102DF0006561702C206D75636820707230210A0047
:102E000077687920796F75207069766F743F0A0052
:102E1000596F757220666C61673A20000A00456E32
:102E200074657220646576696365206E616D653ACC
:102E3000200A00456E7465722070616972696E6760
:102E4000206B65793A200A004572726F723A20430E
:102E50006F756C64206E6F742066696E64206465A3
:102E6000766963652077697468207468697320697E
:102E700064210A0025642E206E616D653A20257359
:102E80002C206B65793A2025730A0025642E2025B5
:102E9000732C2025730A00456E746572206E657769
:102EA000206E616D653A2000456E746572206E6516
:102EB00077206B65793A200043686F6F7365206FE8
:102EC0006E65206F662074686520666F6C6C6F7726
:102ED000696E673A200A00312E205072696E7420A4
:102EE000616C6C20636F6E6E6563746564206465ED
:102EF00076696365730A00322E20436F6E6E6563D8
:102F000074206E6577206465766963650A00332EE8
:102F100020446973636F6E6E6563742064657669BF
:102F200063650A00342E204D6F64696679207374DE
:102F30006F726564206465766963650A00352E20CA
:102F4000457869740A00456E746572206E756D620D
:102F50006572206F66206465766963653A200000BB
:00000001FF
