:10000000B1C20000D5C20000D3C20000D1C20000BE
:10001000CFC20000CDC20000CBC20000C9C20000A8
:10002000C7C20000C5C20000C3C20000C1C20000B8
:10003000BFC20000BDC20000BBC20000B9C20000C8
:10004000B7C20000B5C20000B3C20000B1C20000D8
:10005000AFC20000ADC20000ABC20000A9C20000E8
:10006000A7C20000A5C20000A3C20000A1C20000F8
:100070009FC200009DC200009BC2000099C2000008
:1000800097C2000095C2000093C2000091C2000018
:100090008FC200008DC200008BC2000089C2000028
:1000A00087C2000085C2000083C2000081C2000038
:1000B0007FC200007DC200007BC2000079C2000048
:1000C00077C2000075C2000073C2000071C2000058
:1000D0006FC200006DC200006BC2000069C2000068
:1000E00067C2000065C2000063C2000061C2000078
:1000F0005FC200005DC200005BC2000059C2000088
:1001000057C2000055C2000053C2000051C2000097
:100110004FC200004DC200004BC2000049C20000A7
:1001200047C2000045C2000043C2000041C20000B7
:100130003FC200003DC200003BC2000039C20000C7
:1001400037C2000035C2000033C2000031C20000D7
:100150002FC200002DC200002BC2000029C20000E7
:1001600027C2000025C2000023C2000021C20000F7
:100170001FC200001DC200001BC2000019C2000007
:1001800017C2000015C2000013C2000011C2000017
:100190000FC200000DC200000BC2000009C2000027
:1001A00007C2000005C2000003C2000001C2000037
:1001B000FFC10000FDC10000FBC10000F9C100004B
:1001C000F7C10000F5C10000F3C10000F1C100005B
:1001D000EFC10000EDC10000EBC10000E9C100006B
:1001E000E7C10000E5C10000E3C10000E1C100007B
:1001F000DFC10000DDC10000DBC10000036EDB36A3
:100200003D9A9999993DABAAAA2A3E000000803FE9
:10021000084AD73B3BCE016E84BCBFFDC12F3D6C6D
:1002200074319ABD56833DDA3D00C77F11BED9E4D3
:10023000BB4C3E916BAAAABE000000803F07634200
:1002400036B79BD8A71A39685618AEBAAB558C1D6D
:100250003CB7CC5763BD6DEDFD753EF6177231BFEF
:10026000000000803F072C7AA5BA6CC590DA3B935A
:1002700065FC8BBC53F810FD3C5692834DBD879DA9
:100280003AB63DCBC9BF5BBE73DA0FC93F05A84C78
:10029000CDB2D44EB93836A9020C50B9918688082F
:1002A0003CA6AAAA2ABE000000803F08000000BEAB
:1002B000922449123EABAAAA2ABECDCCCC4C3E0019
:1002C000000080BEABAAAAAA3E00000000BF00004A
:1002D00000803F0000000000084178D3BB4387D175
:1002E000133D190E3CC3BD4282AD2B3E68EC8276B5
:1002F000BED98FE1A93E4C80EFFFBE01C4FF7F3F16
:100300000000000000028988083CABAAAA2A3E002F
:100310000000803F028988083EABAAAAAABE00005E
:1003200000803F0664EC1B3C04BC163E3BE5B93C38
:10033000C93C37C29E5A3D660498083EEA69AAAA9B
:100340003E000000803F696E6600494E46006E61C7
:100350006E004E414E004E414E494E495459494E51
:1003600046CDCCCC3D0AD7233C17B7D13877CC2B20
:10037000329595E6241FB14F0A000020410000C8C5
:100380004200401C4620BCBE4CCA1B0E5AAEC59D46
:100390007400407A10F35A00A0724E18090010A59C
:1003A000D4E80000E87648170000E40B540200008F
:1003B000CA9A3B000000E1F5050000809698000015
:1003C0000040420F000000A086010000001027003E
:1003D000000000E803000000006400000000000AC4
:1003E00000000000000100000000002C76D888DC2E
:1003F000674F0823DFC1DFAE59E1B1B796E5E3E40B
:1004000053C63AE651997696E8E6C28426EB898C83
:100410009B62ED407C6FFCEFBC9C9F40F2BAA56FE5
:10042000A5F490055A2AF75C936B6CF9676DC11BB4
:10043000FCE0E40D47FEF520E6B500D0ED902E037C
:1004400000943577050080841E080000204E0A00C5
:100450000000C80C333333330F986E12831141EF11
:100460008D2114893BE65516CFFEE6DB18D1844B6F
:10047000381BF77C1D901DA4BBE424203284725EDF
:10048000228100C9F124ECA1E53D276364696E6F08
:1004900070737578585B0053756E4D6F6E5475654B
:1004A000576564546875467269536174004A616E99
:1004B0004665624D61724170724D61794A756E4A4E
:1004C000756C4175675365704F63744E6F76446504
:1004D00063004A616E75617279204665627275616A
:1004E0007279204D6172636820417072696C204D91
:1004F0006179204A756E65204A756C79204175676F
:100500007573742053657074656D626572204F63F6
:10051000746F626572204E6F76656D6265722044FD
:100520006563656D626572200053756E6461792044
:100530004D6F6E64617920547565736461792057DD
:1005400065646E6573646179205468757273646163
:1005500079204672696461792053617475726461AF
:100560007920000011241FBECFEFCDBFDFE3DEBF37
:1005700000E00CBF18BE19BE1ABE1BBE13E2A0E0FD
:10058000B0E2EAECFFE700E00BBF02C007900D927B
:10059000AC34B107D9F71BBE24E2ACE4B3E201C02E
:1005A0001D92AF37B207E1F70E949E170C945A24B0
:1005B00027CDA0914C23B0914D23109769F0ED9178
:1005C000FC91119712968D919C91139780934C23D7
:1005D00090934D231995EDCF0895CF93DF93EC01C0
:1005E00084E090E00E94801B009781F0FC01C083B2
:1005F000D18320914C2330914D23228333838093E8
:100600004C2390934D2380E090E002C081E090E085
:10061000DF91CF91089580E090E00895892B49F013
:1006200081EA93E580933B2490933C248FEF9FEFE6
:10063000089580E090E008950BB66BBF602DFA013D
:10064000DC0102C007900D9221503040D8F76BBFFB
:100650000895FA010BB66BBF602DDC018D910790F8
:10066000502D402D4062413624F04B3714F4506237
:100670008062851B11F4002089F7990B6BBF0895E8
:10068000FA010BB66BBF602DDC010D900020E9F77D
:10069000119707900D920020E1F76BBF0895FA01C2
:1006A0000BB66BBF602DDC018D910790801911F4A2
:1006B0000020D1F7990B6BBF0895FA010BB66BBF01
:1006C000602DDC0107900D920020E1F76BBF0895CB
:1006D000CF93C62FDC01FA010BB6CBBFC02D0D9016
:1006E0002115310529F0002019F021503040F7CFB5
:1006F0001197BD01681B790B2115310589F0215037
:10070000304007902115310531F0002021F00D9285
:1007100021503040F6CF1C9231970BB601080BBE2A
:1007200007900020E9F731970BB601080BBECB010B
:100730008E0F9F1F841B950BCBBFCF910895FA019D
:100740000BB66BBF602DDC012115210549F021504E
:10075000304029F007900D92002029F0F8CF1C922C
:1007600007900020E9F7E41BF50B3197CF016BBF31
:1007700008950BB68BBF802DFB0107900020E9F791
:10078000609570956E0F7F1FCB018BBF0895FA01A6
:100790000BB66BBF602DDC012150304078F08D919D
:1007A0000790402D502D5062513624F05B3714F4E1
:1007B00040628062841B19F4002071F7881B990B3A
:1007C0006BBF0895FA010BB66BBF602DDC010D9075
:1007D0000020E9F711972150304030F007900020B9
:1007E0000D92C9F76BBF08951C926BBF0895FA0173
:1007F0000BB66BBF602DDC012150304030F08D9185
:100800000790801919F40020B9F7881B990B6BBF6A
:100810000895FA010BB66BBF602DDC01215030400A
:1008200048F007900D920020C9F701C01D92215099
:100830003040E0F76BBF08950BB68BBF802DFB01F6
:100840000790415050400110D8F7609570956E0F99
:100850007F1F8BBFCB010895FA010BB66BBF602DD4
:10086000DC010790002009F40895FA010BB66BBF74
:10087000602D07907D91772369F07015CD01D1F738
:100880000790002059F07C91772321F0701569F7CB
:100890001196F6CF882799276BBF089501970BB65D
:1008A0006BBF602D089560910E2070910F2005D0D0
:1008B00080910E2090910F200895CF92DF92EF92B9
:1008C000FF920F931F93CF93DF938C01EB01FC01F9
:1008D0008481B82FBB0FB80F8581782F770F780FE1
:1008E0009E0140E08B2F840F90E0A0E089569B4F43
:1008F000AF4FFC015A2F0E94983FF90161939F016D
:10090000872F840F90E0A0E083559B4FAF4FFC01F1
:100910005A2F0E94983FF90163834F5F433011F7CC
:1009200080E28F838B83BE01685F7F4FF8018381F4
:1009300040E2082E000C990BF4D5BE01655F7F4F95
:10094000F80182814AE3082E000C990BEAD5BE011A
:10095000625F7F4FF80181814AE3082E000C990BFA
:10096000E0D5BE016F5E7F4FF801808140E2082E26
:10097000000C990BD6D5F8018681978164E670E06A
:100980008459984F0E94AC3E6B017C01BE016C5EA5
:100990007F4F40E2C601C5D5BE016A5E7F4F40E091
:1009A000C701DF91CF911F910F91FF90EF90DF90E2
:1009B000CF90B7C5CF93DF93CDB7DEB72C97CDBF20
:1009C000DEBFBE016F5F7F4FC0D360910E2070917C
:1009D0000F20CE01019671DF80910E2090910F20A3
:1009E0002C96CDBFDEBFDF91CF9108950F931F935B
:1009F000CF93DF93CDB7DEB72C97CDBFDEBF8B0192
:100A0000BE016F5F7F4FA1D3B801CE01019655DFC4
:100A10002C96CDBFDEBFDF91CF911F910F9108952E
:100A20008F929F92AF92BF92CF92DF92EF92FF92FE
:100A30007C0160916324709164248091652490917D
:100A400066240E94843324E33EE649E458E40E948D
:100A50007A324B015C01C701A1D56B017C01C50154
:100A6000B4010E943C394B015C01C701B6019058AA
:100A70000E943C399B01AC01C501B4010E94CA37F8
:100A80006B017C0120E030E040E85FE30E942C36FF
:100A900018168CF020E030E040E85FEBC701B601AB
:100AA0000E945E3287FF0DC0C12CD12C90E8E92E48
:100AB0009FEBF92E06C0C12CD12C80E8E82E8FE3E5
:100AC000F82EC701B6010E94903028E433E347E4D2
:100AD00050E40E947A3220E030EC48EA57E40E9469
:100AE000CA370E944D33FF90EF90DF90CF90BF90B8
:100AF000AF909F908F900895621B730B840B950BA2
:100B000008958F929F92AF92BF92CF92DF92EF9211
:100B1000FF92FC0180809180A280B380C501B40166
:100B200021E23BE841EE51E00E94BF3E6055764233
:100B300082429E4F0E94843321EB37E449E95AE414
:100B40000E947A320E94C1386B017C01C501B40158
:100B50002DE335E841EE51E00E94BF3EDC01CB01C0
:100B6000805C9D43A34FBF4FBC01CD01660F771F33
:100B7000881F991F0E94843321ED35E449E95AE426
:100B80000E947A324B015C012FED33EE48E05DE3C9
:100B9000C701B6010E94CA37A50194010E949F3087
:100BA0000E94C1382DEC3CE044E154E40E94CA3775
:100BB0004B015C012DEC3CEC45EE53E4C701B60162
:100BC0000E94CA379B01AC01C501B4010E949F304D
:100BD0000E944D3388279927861B970BFF90EF9033
:100BE000DF90CF90BF90AF909F908F900895CF925D
:100BF000DF92EF92FF920F931F93FC010581002E6D
:100C0000000C110B0F5F1F4F012E000C220B330B3A
:100C10004381042E000C550B660B770BC2800C2C05
:100C2000000CDD08EE08FF088181082E000C990BEE
:100C3000AA0BBB0BBA01552744270B2EBBE0CC0CEB
:100C4000DD1CEE1CFF1CBA95D1F7B02D4C295D2997
:100C50006E297F29689414F8880F991FAA1FBB1F5B
:100C60001694D1F7842B952BA62BB72B408147FDEB
:100C70004F5F4595042E000C550B660B770B842BAC
:100C8000952BA62BB72B4681578140555109052E30
:100C9000000C660B770BE9E1440F551F661F771FA9
:100CA000EA95D1F7842B952BA62BB72BF5E1000FF6
:100CB000111F221F331FFA95D1F7BC01CD01602B04
:100CC000712B822B932B1F910F91FF90EF90DF9050
:100CD000CF900895AF92BF92CF92DF92EF92FF92A2
:100CE0000F931F93FC01608171818281938120E4C5
:100CF00037EB49E550E80E94133F0FE10E94A23F05
:100D00002954324A4F4F5F4F6F4F7F4F8F4F9F4F46
:100D1000E0E8AE2EF1E5BF2ECC24C394D12CE12C1B
:100D2000F12C00E010E00E943A3FB901CA011F9186
:100D30000F91FF90EF90DF90CF90BF90AF9008950C
:100D40006FE674E203D08FE694E20895CF92DF92CB
:100D5000EF92FF920F931F93CF93DF93CDB7DEB740
:100D60002897CDBFDEBF8B01FC016081718182813C
:100D7000938120E831E541E050E00E94BF3E6901E7
:100D80007A012CE330E040E050E00E94E13E29830C
:100D90003A834B835C8389819A81AB81BC81F80162
:100DA00060836CE370E00E94AC3EDC01CB01F80193
:100DB000A1838283C601069667E070E00E94983E98
:100DC00084832DEA3EE840E050E0C701B6010E946E
:100DD000E13E29833A836D837E838F83988789815F
:100DE0009A8124E6289F6001299FD00C11246D81EF
:100DF0007E818F81988525EB35E040E050E00E94B0
:100E0000E13E29833A836D837E83E980FA80EE0C8C
:100E1000FF1CEE0CFF1CEC0CFD1C8D819E81F5E689
:100E2000EF16F10410F0019604C024E6E216F10476
:100E300019F021E030E002C020E030E0A90144597F
:100E40005E4F4817590768F46DE671E0821B930BFB
:100E50000E94AC3EDC01CB01E80EF91ECD0120E082
:100E600030E044E6E40EF11CF801E682F782808768
:100E70009187255C3F4F8217930748F46FE170E03C
:100E80000E94AC3EDC01CB01F801858322C069E9F8
:100E900070E0821B930B0E94AC3EDC01CB01F82E6C
:100EA000FF0CFF0CF80E6DE370E0CD010E94AC3E2C
:100EB000DC01CB01E82EEE0C6FE170E0CD010E9469
:100EC000AC3EDC01CB0122E0280FF20EFE0CF80153
:100ED000F582A383F8011286138683818F5F838353
:100EE0002896CDBFDEBFDF91CF911F910F91FF906C
:100EF000EF90DF90CF9008959C0123703327232B30
:100F000059F464E670E00E94AC3E892B39F46370BA
:100F1000772781E0672B19F080E0089581E008953C
:100F200060910E2070910F2088D080910E209091BA
:100F30000F200895CF93DF93C0910E20D0910F2002
:100F4000AE0104D0CE01DF91CF910895CF92DF9210
:100F5000EF92FF920F931F93CF93DF938C017B014E
:100F6000EA0188839983C8DF282FA801405D574094
:100F70006DE671E0469FC001479F900D569F900D12
:100F800011248E0D9F1D4115510579F0BA017695FA
:100F90006795769567956F5F7F4F860F971F821BCA
:100FA00091094536510508F00197069667E070E013
:100FB0000E94983E6C01892B19F487E0C82ED12C31
:100FC000CC82DD82C7010B968C199D0967E070E029
:100FD0000E94AC3E65337105B1F481E0C81AD108B6
:100FE000EC18FD08822F90E084599E4F23E0E20E1A
:100FF000F11C8E159F053CF48881998101968883A8
:10100000998361E070E06A837B83672B69F4015008
:101010001109C80171DF682F70E064597E4FAE017D
:10102000C80194DFCC82DD82DF91CF911F910F91B7
:10103000FF90EF90DF90CF900895EF92FF920F9383
:101040001F93CF93DF938C01EB01FC018681978185
:101050008459984F64E670E00E94AC3E9B017C018D
:101060004DE2BE01C9015DD2BE016E5F7F4F4DE210
:10107000C70157D2BE016B5F7F4FF8018581082EF3
:10108000000C990B4DE201964CD2BE01685F7F4F78
:10109000F801838140E2082E000C990B42D2BE0178
:1010A000655F7F4FF80182814AE3082E000C990B9F
:1010B00038D2BE01625F7F4FF80181814AE3082E7A
:1010C000000C990B2ED2BE016F5E7F4FF80180811C
:1010D00040E0082E000C990BDF91CF911F910F91EA
:1010E000FF90EF901EC2CF92DF92EF92FF92F2DD5F
:1010F0006B017C0160916724709168248091692460
:1011000090916A242FE030E040E050E00E94E13E00
:10111000DA01C9018C0D9D1DAE1DBF1DBC01CD01A5
:1011200060587E4A8E4F9F4F20E831E541E050E005
:101130000E94E13EFF90EF90DF90CF9008956FE620
:1011400074E203D08FE694E20895CF92DF92EF929B
:10115000FF920F931F93CF93DF9300D01F92CDB7D1
:10116000DEB76C017B01E0916124F091622430973D
:1011700029F06BE774E219958C0102C00FEF1FEFA5
:10118000F601408151816281738180917B2490912D
:101190007C24A0917D24B0917E24840F951FA61FEE
:1011A000B71F101611064CF4A801012E000C660B97
:1011B000770B840F951FA61FB71F89839A83AB8374
:1011C000BC83B701CE010196C1DDF7010287138709
:1011D0002496CDBFDEBFDF91CF911F910F91FF907D
:1011E000EF90DF90CF9008958F929F92AF92BF9231
:1011F000CF92DF92EF92FF920F931F93CF93DF93E3
:10120000EC01EE81FF818F0104561109B9F0CF0185
:10121000855691096C0197FF03C023E0C20ED11CD3
:10122000D594C794D594C7946CE97FEF0E94AC3EE7
:10123000C60ED71E8FEFC81AD80A02C0C12CD12CF7
:101240002DE631E0D8010E94FD3E0D2C000CEE0889
:10125000FF08C60ED71EE81EF91E8B81082E000C53
:10126000990B8C01015011092D8122302CF422237D
:1012700071F1015E1F4F2BC0CF018459984F3CDEA6
:10128000282F30E0255C3F4F200F311F8D81082E25
:10129000000C990B02978530910514F027563F4FAB
:1012A00065E070E00E94AC3EAC0197FF02C04F5F6A
:1012B0005F4F559547959DE3949F8001959F100D35
:1012C0001124020F131F80FF02C0015E1F4FC801CF
:1012D000110FAA0BBB0B9C01AD012C0D3D1D4E1D2A
:1012E0005F1D60E871E581E090E00E947C3E4B016B
:1012F0005C01AA810A2E000CBB0B20E13EE00E949B
:10130000FD3E6B017C01A9810A2E000CBB0B2CE376
:1013100030E00E94FD3EC60ED71EE81EF91E688111
:10132000862F660F990BAA0BBB0B8C0D9D1DAE1D56
:10133000BF1DBC01CD01680D791D8A1D9B1DDF916C
:10134000CF911F910F91FF90EF90DF90CF90BF90C2
:10135000AF909F908F900895CF92DF92EF92FF927F
:101360000F931F93CF93DF9300D01F92CDB7DEB7BB
:101370008C013ADF69837A838B839C83F8018285B1
:10138000938597FF0EC0E0916124F091622430971D
:1013900041F06BE774E2CE0101961995F80182875E
:1013A0009387F801828593851816190694F4092EFF
:1013B000000CAA0BBB0B49815A816B817C816A01AD
:1013C0007B01C81AD90AEA0AFB0AC982DA82EB82CF
:1013D000FC8289819A81AB81BC8140917B245091B0
:1013E0007C2460917D2470917E24841B950BA60B38
:1013F000B70B89839A83AB83BC83B801CE01019676
:10140000A4DE69817A818B819C812496CDBFDEBF69
:10141000DF91CF911F910F91FF90EF90DF90CF90D0
:101420000895623019F468DD845E0895683008F02C
:101430006F5F61708EE1860F08954F925F926F9299
:101440007F928F929F92AF92BF92CF92DF92EF9254
:10145000FF92FC0180819181A281B381BC01CD0109
:10146000605A7F498A41910923E93EEE46E250E005
:101470000E94BF3E6B017C01F9E4CF1AF7E7DF0A57
:10148000F3E1EF0AF108C701B6010E94843328E4B2
:101490003AEB4BE959E40E947A322BED3FE049E404
:1014A00050E40E94CA374B015C010E9477322B0145
:1014B0003C01C501B4010E94C1389B01AC01C301CC
:1014C000B2010E94CA374B015C01C701B60125ED8C
:1014D00031E340E050E00E94E13ECA01B9010E94C0
:1014E00084336B017C0120E030E048E451E4C50125
:1014F000B4010E94CA379B01AC01C701B6010E942A
:101500009E300E944D33862FFF90EF90DF90CF905A
:10151000BF90AF909F908F907F906F905F904F9013
:1015200008951F93CF93DF93EB01142F6AE070E0CF
:101530000E94AC3E605D6883805D89831A83DF9181
:10154000CF911F9108958093612490936224089510
:10155000609363247093642480936524909366243D
:1015600020936724309368244093692450936A241D
:1015700008950FB6F89460936B2470936C24809355
:101580006D2490936E240FBE089560937B24709316
:101590007C2480937D2490937E2408958F929F9243
:1015A000AF92BF92CF92DF92EF92FF92FC018080C8
:1015B0009180A280B380C501B40121E23BE841EEF5
:1015C00051E00E94BF3E6055764282429E4F0E948B
:1015D000823321EB37E449E95AE40E947A320E94CF
:1015E000C1386B017C01C501B4012DE335E841EE42
:1015F00051E00E94BF3E6854774A824F9F4F0E943D
:10160000823321ED35E449E95AE40E947A324B01F4
:101610005C012FED33EE48E05DE3C701B6010E94A7
:10162000CA37A50194010E949F300E9477322CE3B3
:1016300036E741ED5EE30E94CA379058FF90EF9085
:10164000DF90CF90BF90AF909F908F9008958F9232
:101650009F92AF92BF92CF92DF92EF92FF92CF9381
:10166000DF93FC0180809180A280B3804ADAEC0194
:1016700060916724709168248091692490916A2414
:101680002FE030E040E050E00E94E13E750164014F
:10169000C21AD30AE40AF50AF0ECCF0EF8EADF1E0C
:1016A000E11CF11CC501B40120E831E541E050E046
:1016B0000E94BF3EA7019601261B370B480B590B12
:1016C0006E01DD0FEE08FF08CA01B9016C197D0932
:1016D0008E099F09DF91CF91FF90EF90DF90CF901F
:1016E000BF90AF909F908F900895CF92DF92EF922E
:1016F0000F936B01E82E7C2D6D2D5E2DAE2DC60156
:101700000196A11D442351F06C01EA2EE72FF62F1C
:101710000E94983F603279F74150EDCFF6010E9468
:10172000983F6C01EA2E80E0603239F4F9011082B2
:101730000F91EF90DF90CF9008958017B9F32F5F4E
:101740003F4FF901319760838F5FF6015E2D0E9454
:10175000983F9FEFC91AD90AE90AE6CF2F923F9224
:101760004F925F926F927F928F929F92AF92BF92B1
:10177000CF92DF92EF92FF920F931F93CF93DF935D
:10178000CDB7DEB7A297CDBFDEBF2C0169A37AA388
:101790004A017901612C712C9E012F5F3F4F690135
:1017A00084E6282E312C9AEEA92E92E2B92E29A198
:1017B0003AA16216730608F0C9C2D4018C91853231
:1017C00009F0B8C211961C91153431F01F3421F084
:1017D000B2E08B0E911C06C0F401128194012D5FC2
:1017E0003F4F4901193509F42EC20CF060C019347D
:1017F00009F43DC144F5133409F4E6C054F411343E
:1018000009F4BEC00CF0CAC0153209F070C21983C9
:1018100071C2163409F4E9C064F4143409F067C2E3
:10182000F70186819781B1010E94AC3E9F938F930F
:10183000E3C1173409F4F7C0183409F058C2D701CE
:1018400012968C912EC1143509F487C164F41235B7
:1018500009F46CC10CF023C11D3409F048C2D70152
:1018600011968C911EC1163509F4A3C10CF49FC1C9
:10187000173509F4B1C1183509F039C2F701808173
:10188000282F082E000C330B3F938F938181282F34
:10189000082E000C330B3F938F938281282F082E44
:1018A000000C330B3F938F9382E393E2BCC11D3650
:1018B00009F4EEC0ACF5143609F493C074F4123692
:1018C00009F466C00CF074C0113609F010C203E0D0
:1018D0009601D70114964C9157C0173609F4A3C04E
:1018E00074F4153609F003C2F7018381282F082EFE
:1018F000000C330B3F938F938FEE92E2C6C01836E5
:1019000009F446C01A3609F0F2C1D70118968D9134
:101910009C91199701969F938F9385E093E2B5C0B0
:10192000153709F433C1B4F4103709F4C0C034F4E6
:101930001E3609F0DCC18AE08983DCC1123709F464
:10194000C4C0143709F0D3C16BE173E2C6010E9431
:101950000F29D0C1183709F444C15CF4173709F0D6
:10196000C6C1F7018481282F082E000C330B3F934A
:1019700070C1193709F45AC11A3709F47AC1B7C1CD
:101980000FEF9601F701448169E275E080E00DC038
:1019900003E09601D70115964C9104C00FEF960114
:1019A000F701458162ED74E080E09FDE90E0A4C124
:1019B000B601C7010E945D04F601CF018C199D0993
:1019C00021912111FACF98C1D70116968D919C9142
:1019D00017978459984FB1010E94AC3E7F936F9343
:1019E0003AC0D70113968C915CC0D70113968C91A5
:1019F0001397282F082E000C330B3F938F931596C7
:101A00008C911597082E000C990B01969F938F933C
:101A100016968D919C9117978459984F9F938F9309
:101A200083EF92E200C1D70118966D917C911997CE
:101A300016968D919C911797AE01455E5F4F845924
:101A4000984F84DA173651F48B8D9C8DB1010E942A
:101A5000AC3E9F938F93EBEFF2E2A6C08C8D8F93F9
:101A60008B8D8F9340E053E25F934F93F7C0F70164
:101A700082816CE00E948B3E992321F0892F990F7F
:101A8000990BDCC08CE090E0D9C09F938F93E6C0A7
:101A9000F7018581082E000C990B0196CFC0D70164
:101AA0008C91282F082E000C330B3F93C8C081E483
:101AB0008983F70182818C3014F080E589838DE47D
:101AC0008A831B8282E090E017C1D70112968C9125
:101AD0006CE00E948B3E992321F0892F990F990B7E
:101AE00002C08CE090E0F7012081422F022E000C12
:101AF000550B5F932F932181422F022E000C550B23
:101B00005F932F939F938F932AE033E23F932F931A
:101B1000DF92CF920E94B32ECDBFDEBFF7012281AC
:101B20002C300CF4E9C020E52B87E6C0D7011196D4
:101B30008C911197282F082E000C330B3F938F9315
:101B400012968C91282F082E000C330B3F938F9305
:101B500082E293E29F938F93C3C0F7018081282F85
:101B6000082E000C330B3F938F938181282F082E72
:101B7000000C330B3F938F938281282F082E000C8B
:101B8000330B3F938F938DE193E24DC0D7011496B1
:101B90008C91082E000C990B009711F487E090E0CF
:101BA0009F938F93ECE2F3E2FF93EF9357C060E0D3
:101BB00014C0D70118966D917C91199716968D9146
:101BC0009C911797AE01455E5F4F8459984FBED9DF
:101BD0008E8D8F938D8D33C061E0C7014BD11F92E5
:101BE0002EC0D70116968D919C911797B1010E9436
:101BF000AC3E9F938F93F7018381282F082E000C12
:101C0000330B3F938F938581082E000C990B01961F
:101C10009F938F9320EE32E23F932F93DF92CF92E8
:101C20000E94B32E61C09F938F93F8CFD701169671
:101C30008D919C911797B1010E94AC3E9F938F9319
:101C4000BF92AF920BC0F701868197818459984F5C
:101C50009F938F932FE233E23F932F93DF92CF92A4
:101C60000E94B32E0F900F900F900F900F900F9037
:101C700043C060917B2470917C2480917D2490915D
:101C80007E242CE330E040E050E00E94E13E8901F8
:101C90009A01F801D7011A968D919C911B976CE3DC
:101CA00070E00E94AC3E161617061CF4FB01E00F14
:101CB000F11FCF016CE370E00E94AC3E97FF03C0C0
:101CC0009195819591099F938F93CF016CE370E07B
:101CD0000E94AC3E7F936F93E1E4F3E2FF93EF93B6
:101CE000DF92CF920E94B32ECDBFDEBF05C08FE33F
:101CF00089831A8281E090E09301280F391FA9A1FE
:101D0000BAA12A173B0798F4D201F601AF014C198A
:101D10005D09481759071CF441914D93F7CF97FF80
:101D200002C080E090E0480E591E390140CDF2011A
:101D300010820EC0D2018D932D01BFEF6B1A7B0A6A
:101D4000882331F0EFEF8E1A9E0A31CDD2011C921A
:101D5000C301A296CDBFDEBFDF91CF911F910F913E
:101D6000FF90EF90DF90CF90BF90AF909F908F90BB
:101D70007F906F905F904F903F902F900895CF92FB
:101D8000DF92EF92FF92CF93DF93EC0160DC6B0167
:101D90007C01CE010E94100522E030E040E050E0DE
:101DA0000E94E13EC701B601621B730B840B950BC9
:101DB000DF91CF91FF90EF90DF90CF900895CF9279
:101DC000DF92EF92FF92CF93DF93EC0140DC6B0147
:101DD0007C01CE010E94100522E030E040E050E09E
:101DE0000E94E13ECA01B9016C0D7D1D8E1D9F1D33
:101DF000DF91CF91FF90EF90DF90CF900895FC019D
:101E00000FB6F89460916B2470916C2480916D24CE
:101E100090916E240FBE309721F06083718382838E
:101E200093830895DC0113962C911397022E000CD6
:101E3000330BF90131972A5F3F4F14968C91A9011A
:101E4000481B510987FD5395CA01860F911D27E054
:101E500030E0B9010E94AC3EDF01A81BB90BCD01F7
:101E6000B7FD06C0B9010E94AC3E81E0860F08951F
:101E700080E00895FC0120853185C90107964481E1
:101E8000841B910947FD9395860F911DE7E0F0E0D3
:101E9000BF010E94AC3EA901481B590BCA0157FD66
:101EA00006C0BF010E94AC3E81E0860F089580E02D
:101EB00008958F938FB78F93F89480916B248F5FE1
:101EC00080936B2480916C248F4F80936C2480913D
:101ED0006D248F4F80936D2480916E248F4F80935B
:101EE0006E248F918FBF8F910895CF93DF9300D091
:101EF00000D0CDB7DEB78A839B836C834D835E832E
:101F0000198220C08C81882F90E02981222F30E017
:101F100002C0959587952A95E2F781709927892BBC
:101F200071F08981882F90E040962A813B81820F51
:101F3000931F2D813E81232F3327FC01208389812C
:101F40008F5F898389818830E8F28D819E818170DD
:101F50009927892BD1F08D819E8182709927892BB9
:101F600039F08A819B8105962C81FC01208306C073
:101F70008A819B8106962C81FC0120838A819B812A
:101F800001962C81FC01208306C08A819B810296E8
:101F90002C81FC01208300002696CDBFDEBFDF919F
:101FA000CF910895CF93DF93CDB7DEB72797CDBFFD
:101FB000DEBF8D836E837F838D8189838981882FA6
:101FC00090E09C012770332781E090E002C0880FE9
:101FD000991F2A95E2F7682F8D818A838A818B83E6
:101FE0008B818695869586958C838C81882F90E051
:101FF000880F991F82959295907F9827807F9827C8
:102000009A5F9C018E819F81AC01C9016EDF000047
:102010002796CDBFDEBFDF91CF910895CF93DF9399
:10202000CDB7DEB763E070E080E0BCDF63E070E076
:1020300081E0B8DF63E070E082E0B4DF63E070E08D
:1020400083E0B0DF63E070E084E0ACDF63E070E089
:1020500085E0A8DF63E070E086E0A4DF63E070E085
:1020600087E0A0DF60E078E188E09CDF60E078E175
:1020700089E098DF60E078E18AE094DF60E078E171
:102080008BE090DF0000DF91CF910895CF93DF9335
:102090001F92CDB7DEB78983000080EC90E0FC0191
:1020A0008081882F90E080729927892BB1F386EC8C
:1020B00090E02981FC01208300000F90DF91CF91F7
:1020C0000895CF93DF93CDB7DEB785EC90E0FC01A8
:1020D000108284EC90E023E3FC01208381EC90E00B
:1020E00028E1FC01208382EC90E026E0FC012083C3
:1020F00082EC90E022EC30E0F90120812F7BFC01A2
:10210000208381EC90E021EC30E0F901208120680F
:10211000FC0120830000DF91CF910895CF93DF93DE
:10212000CDB7DEB76097CDBFDEBF8F87988B7CC001
:102130008F8598899C012F5F3F4F2F87388BFC013B
:102140008081A4DF80E090E0A0E8BFE389839A83E8
:10215000AB83BC8320E030E04AE753E469817A81B5
:102160008B819C810E94CA37DC01CB018D839E83C9
:10217000AF83B88720E030E040E85FE36D817E8187
:102180008F8198850E945E3288232CF481E090E054
:1021900089879A873FC020E03FEF4FE757E46D8182
:1021A0007E818F8198850E942C3618164CF520E090
:1021B00030E040E251E469817A818B819C810E9408
:1021C000CA37DC01CB01BC01CD010E945233DC01D6
:1021D000CB0189879A870FC089E190E08B879C8724
:1021E0008B859C850197F1F78B879C8789859A85DC
:1021F000019789879A8789859A85892B69F714C001
:102200006D817E818F8198850E945233DC01CB01E4
:1022100089879A8789859A858D879E878D859E85F2
:102220000197F1F78D879E878F859889FC018081C2
:10223000882309F07DCF00006096CDBFDEBFDF911F
:10224000CF910895CF93DF93CDB7DEB780EC90E0C8
:10225000FC018081882314F481E001C080E0DF91DB
:10226000CF910895CF93DF93CDB7DEB70000EADFBB
:102270008823E9F386EC90E0FC018081DF91CF9127
:102280000895CF93DF931F921F92CDB7DEB7CE0193
:102290000A9689839A8329813A8188859985AC0138
:1022A00068E770E083E593E20E946B2F83E593E299
:1022B00035DF00000F900F90DF91CF910895CF93FD
:1022C000DF93CDB7DEB72597CDBFDEBF89839A8375
:1022D0006B834C832D838B81D9DE8C81282F30E05A
:1022E0008D81882F90E00197281739076CF48C8135
:1022F00091E0980F9C83882F90E029813A81820F8A
:10230000931F2B81FC0120838C812596CDBFDEBFDE
:10231000DF91CF910895CF93DF9300D000D0CDB758
:10232000DEB78C839D836E8319821A820FC09ADF79
:102330008B838B818D3019F481E08A8307C08C8177
:102340009D812E8149816B81BADF89838A818823AF
:1023500071F38981882F90E02C813D81820F931F3A
:10236000FC01108289812696CDBFDEBFDF91CF911F
:102370000895CF93DF93CDB7DEB785E090E025E0F9
:1023800030E0F901308120E22327FC0120830000A6
:10239000DF91CF910895CF93DF93CDB7DEB76C97E0
:1023A000CDBFDEBF8B8F9C8F8FEF9FEF8B839C8386
:1023B0001D821E821F821886D7C083E090E0FC0138
:1023C0008081882F90E0382F222789E090E0FC015F
:1023D0008081882F90E0820F931F89879A87898553
:1023E0009A8504970CF449C019821A8241C08981E8
:1023F0009A81880F991F815D9B4DFC01208131815D
:1024000089859A8502C0959587952A95E2F781700E
:1024100099278B879C878B859C850197A1F48D815B
:102420009E81892B81F489819A81880F991F815D12
:102430009B4DFC01808191818B839C8381E090E0A6
:102440008D839E8310C08B859C85019761F48D815F
:102450009E81019741F482E090E08D839E838FEF0F
:102460009FEF8B839C8389819A81019689839A83CC
:1024700089819A8106970CF4BACF8F81988544960A
:102480008F83988780E090E0A0EAB1E48D879E87F3
:10249000AF87B88B20E030E04AE753E46D857E8556
:1024A0008F8598890E94CA37DC01CB01898B9A8B72
:1024B000AB8BBC8B20E030E040E85FE369897A8930
:1024C0008B899C890E945E3288232CF481E090E005
:1024D0008D8B9E8B3FC020E03FEF4FE757E469892B
:1024E0007A898B899C890E942C3618164CF520E03D
:1024F00030E040E251E46D857E858F8598890E94A9
:10250000CA37DC01CB01BC01CD010E945233DC0192
:10251000CB018D8B9E8B0FC089E190E08F8B988FC4
:102520008F89988D0197F1F78F8B988F8D899E8970
:1025300001978D8B9E8B8D899E89892B69F714C09D
:1025400069897A898B899C890E945233DC01CB018D
:102550008D8B9E8B8D899E89898F9A8F898D9A8D7F
:102560000197F1F7898F9A8F2F8138858B8D9C8DFC
:10257000821793072CF08D819E81892B09F41DCF42
:102580008B819C816C96CDBFDEBFDF91CF9108958A
:102590000F931F93CF93DF93CDB7DEB7CE55D109FD
:1025A000CDBFDEBF19821A8228C489819A81892B06
:1025B00009F007C180E190E2892F8F9380E190E2DA
:1025C0008F935FDE0F900F9080E090E0AAE7B4E475
:1025D0008B879C87AD87BE8720E030E04AE753E4D5
:1025E0006B857C858D859E850E94CA37DC01CB0179
:1025F0008DA79EA7AFA7B8AB20E030E040E85FE32F
:102600006DA57EA58FA598A90E945E3288232CF423
:1026100081E090E089AB9AAB3FC020E03FEF4FE70D
:1026200057E46DA57EA58FA598A90E942C36181693
:102630004CF520E030E040E251E46B857C858D85EF
:102640009E850E94CA37DC01CB01BC01CD010E94EE
:102650005233DC01CB0189AB9AAB0FC089E190E02A
:102660008BAB9CAB8BA99CA90197F1F78BAB9CAB77
:1026700089A99AA9019789AB9AAB89A99AA9892BAB
:1026800069F714C06DA57EA58FA598A90E94523345
:10269000DC01CB0189AB9AAB89A99AA98DAB9EAB22
:1026A0008DA99EA90197F1F78DAB9EAB8BE190E2CE
:1026B000892F8F938BE190E28F93E3DD0F900F9042
:1026C00080E090E0AAE7B4E48F8F98A3A9A3BAA30F
:1026D00020E030E04AE753E46F8D78A189A19AA108
:1026E0000E94CA37DC01CB018BA39CA3ADA3BEA380
:1026F00020E030E040E85FE36BA17CA18DA19EA1CA
:102700000E945E3288232CF481E090E08FA398A78A
:102710003FC020E03FEF4FE757E46BA17CA18DA1C4
:102720009EA10E942C3618164CF520E030E040E2C5
:1027300051E46F8D78A189A19AA10E94CA37DC016A
:10274000CB01BC01CD010E945233DC01CB018FA330
:1027500098A70FC089E190E089A79AA789A59AA5B3
:102760000197F1F789A79AA78FA198A501978FA341
:1027700098A78FA198A5892B69F714C06BA17CA19C
:102780008DA19EA10E945233DC01CB018FA398A79B
:102790008FA198A58BA79CA78BA59CA50197F1F766
:1027A0008BA79CA788E290E2892F8F9388E290E222
:1027B0008F9367DD0F900F9088E893E18D839E8360
:1027C00009C08D819E8199230CF40196959587957A
:1027D0008D839E8381E090E08B839C830E94EC1E1E
:1027E00026E030E0B9010E94AC3E01968F87988BBD
:1027F0003BC1BFDD80E090E0A8E4B2E48D8B9E8B0E
:10280000AF8BB88F8E010F5B1F4F20E030E04AE79F
:1028100053E46D897E898F89988D0E94CA37DC01C7
:10282000CB01F80180839183A283B383CE018F5BB8
:102830009F4F20E030E040E85FE3FC016081718160
:10284000828193810E945E3288234CF4CE018B5B9F
:102850009F4F21E030E0FC012083318369C0CE012D
:102860008F5B9F4F20E03FEF4FE757E4FC01608113
:102870007181828193810E942C3618160CF046C01B
:1028800020E030E040E251E46D897E898F89988DA7
:102890000E94CA37DC01CB018E010B5B1F4FBC01CC
:1028A000CD010E945233DC01CB01F801808391837A
:1028B00024C0CE01895B9F4F29E130E0FC012083D9
:1028C0003183CE01895B9F4FFC018081918101970B
:1028D000F1F79E01295B3F4FF90180839183CE017F
:1028E0008B5B9F4F9E012B5B3F4FF9012081318114
:1028F00021503109FC0120833183CE018B5B9F4F36
:10290000FC0180819181892BA1F62CC08E010B5B8B
:102910001F4FCE018F5B9F4FFC01608171818281CF
:1029200093810E945233DC01CB01F80180839183B3
:10293000CE01875B9F4F9E012B5B3F4FF9012081AA
:102940003181FC0120833183CE01875B9F4FFC01E5
:10295000808191810197F1F79E01275B3F4FF9013B
:102960008083918306DD80E090E0A8E4B2E48F8369
:102970009887A987BA8720E030E04AE753E46F815F
:10298000788589859A850E94CA37DC01CB018FAB97
:1029900098AFA9AFBAAF20E030E040E85FE36FA99D
:1029A00078AD89AD9AAD0E945E3288232CF481E027
:1029B00090E08BAF9CAF3FC020E03FEF4FE757E484
:1029C0006FA978AD89AD9AAD0E942C3618164CF5DA
:1029D00020E030E040E251E46F81788589859A8576
:1029E0000E94CA37DC01CB01BC01CD010E945233E9
:1029F000DC01CB018BAF9CAF0FC089E190E08DAFC4
:102A00009EAF8DAD9EAD0197F1F78DAF9EAF8BADB3
:102A10009CAD01978BAF9CAF8BAD9CAD892B69F7BB
:102A20001EC06FA978AD89AD9AAD0E945233DC010A
:102A3000CB018BAF9CAF2BAD3CADCE01CF96FC0153
:102A400020833183CE01CF96FC0180819181019753
:102A5000F1F79E01215C3F4FF901808391838B81C7
:102A60009C8101968B839C832B813C818F859889E7
:102A70008217930708F0BDCE80E090E0A0E8B0E4B4
:102A8000898B9A8BAB8BBC8B8E01055B1F4F20E033
:102A900030E04AE753E469897A898B899C890E94EE
:102AA000CA37DC01CB01F80180839183A283B38311
:102AB000CE01855B9F4F20E030E040E85FE3FC0102
:102AC00060817181828193810E945E3288234CF4FF
:102AD000CE01815B9F4F21E030E0FC0120833183F8
:102AE00069C0CE01855B9F4F20E03FEF4FE757E481
:102AF000FC0160817181828193810E942C361816BD
:102B00000CF046C020E030E040E251E469897A8967
:102B10008B899C890E94CA37DC01CB018E01015B45
:102B20001F4FBC01CD010E945233DC01CB01F801E3
:102B30008083918324C0CE018F5A9F4F29E130E0DA
:102B4000FC0120833183CE018F5A9F4FFC0180818D
:102B500091810197F1F79E012F5A3F4FF901808330
:102B60009183CE01815B9F4F9E01215B3F4FF90115
:102B70002081318121503109FC0120833183CE0134
:102B8000815B9F4FFC0180819181892BA1F62CC034
:102B90008E01015B1F4FCE01855B9F4FFC01608161
:102BA0007181828193810E945233DC01CB01F80153
:102BB00080839183CE018D5A9F4F9E01215B3F4FB1
:102BC000F90120813181FC0120833183CE018D5AAE
:102BD0009F4FFC01808191810197F1F79E012D5A51
:102BE0003F4FF901808391838D819E81D4DB8D8F4E
:102BF0009E8F8F8598890197880F991F815D9B4DC6
:102C0000FC01208131818D8D9E8D2817390709F0B7
:102C1000E4C089819A81C29719F48EEF9AECF4C0CE
:102C200022E330E089819A81A901481B590BCA012E
:102C3000292F2F938F9380E390E2892F8F9380E346
:102C400090E28F938BEC93E2892F8F938BEC93E23E
:102C50008F930E94B32E0F900F900F900F900F90B4
:102C60000F908BEC93E25ADA80E090E0A8E4B2E4B3
:102C7000898F9A8FAB8FBC8F8E010B5A1F4F20E02C
:102C800030E04AE753E4698D7A8D8B8D9C8D0E94EC
:102C9000CA37DC01CB01F80180839183A283B3831F
:102CA000CE018B5A9F4F20E030E040E85FE3FC010B
:102CB00060817181828193810E945E3288234CF40D
:102CC000CE01875A9F4F21E030E0FC012083318301
:102CD00069C0CE018B5A9F4F20E03FEF4FE757E48A
:102CE000FC0160817181828193810E942C361816CB
:102CF0000CF046C020E030E040E251E4698D7A8D6E
:102D00008B8D9C8D0E94CA37DC01CB018E01075A46
:102D10001F4FBC01CD010E945233DC01CB01F801F1
:102D20008083918324C0CE01855A9F4F29E130E0F2
:102D3000FC0120833183CE01855A9F4FFC018081A5
:102D400091810197F1F79E01255A3F4FF901808348
:102D50009183CE01875A9F4F9E01275A3F4FF90119
:102D60002081318121503109FC0120833183CE0142
:102D7000875A9F4FFC0180819181892BA1F638C031
:102D80008E01075A1F4FCE018B5A9F4FFC01608165
:102D90007181828193810E945233DC01CB01F80161
:102DA00080839183CE01835A9F4F9E01275A3F4FC4
:102DB000F90120813181FC0120833183CE01835AC6
:102DC0009F4FFC01808191810197F1F79E01235A69
:102DD0003F4FF901808391830BC081E690E29ED939
:102DE000000040DA8D30E9F78FEF9FEF89839A83F7
:102DF00089819A81019689839A8389819A81C3976F
:102E00000CF4D3CB80E090E0C25ADF4FCDBFDEBFE1
:102E1000DF91CF911F910F910895CF93DF93CDB79D
:102E2000DEB72897CDBFDEBF19821A821B821C82B3
:102E30001B821C8210C08B819C81880F991F815D31
:102E40009B4D2FEF3FEFFC01208331838B819C81D1
:102E500001968B839C838B819C81069764F31B82F4
:102E60001C823CC0B9D72BE030E0B9010E94AC3ED7
:102E700002968F8398871D821E822CC08D819E8131
:102E8000880F991F815D9B4DFC01208131818F81CD
:102E900098852817390709F421C08D819E810597EF
:102EA000A1F48B819C81880F991F815D9B4D2F819F
:102EB0003885FC01208331838B819C8101968B8333
:102EC0009C838EEB9AEB89839A838D819E810196F8
:102ED0008D839E838D819E81069784F28091392413
:102EE00090913A24019609F4BDCF89819A81289660
:102EF000CDBFDEBFDF91CF910895CF93DF93CDB7E4
:102F0000DEB7809152238823A1F480E090E00E94F4
:102F1000423E65D761D780952EEB9227BC0180E0B9
:102F200090E00E94463E81E0809352238DEA9EED20
:102F300002C080E090E0DF91CF910895CF93DF93BE
:102F4000CDB7DEB76497CDBFDEBFBBD884E090E0DD
:102F500020E2FC01208381E990E2892F8F9381E9AF
:102F600090E28F938ED90F900F908BEA90E2892F89
:102F70008F938BEA90E28F9384D90F900F908AEE13
:102F800090E2892F8F938AEE90E28F937AD90F90F7
:102F90000F9087E291E2892F8F9387E291E28F93DE
:102FA00070D90F900F9083E591E2892F8F9383E57D
:102FB00091E28F9366D90F900F9086E991E2892F65
:102FC0008F9386E991E28F935CD90F900F90000068
:102FD00049D98D30E9F791DF8B839C838B819C816C
:102FE0008D3A9E4D19F080E090E0D4C016DF8B83BF
:102FF0009C838B819C818E3B9A4B19F080E090E002
:10300000C9C0C6DA8B839C838B819C818E3F9A4C8E
:1030100009F0BAC019821A82DFD624EF31E0B90173
:103020000E94AC3E8D839E8377C089819A810196F0
:1030300089839A8380E090E0A0E8BFE38F8398873C
:10304000A987BA8720E030E04AE753E46F817885AA
:1030500089859A850E94CA37DC01CB018B879C87C2
:10306000AD87BE8720E030E040E85FE36B857C857C
:103070008D859E850E945E3288232CF481E090E04D
:103080008F87988B3FC020E03FEF4FE757E46B8579
:103090007C858D859E850E942C3618164CF520E087
:1030A00030E040E251E46F81788589859A850E94FD
:1030B000CA37DC01CB01BC01CD010E945233DC01D7
:1030C000CB018F87988B0FC089E190E0898B9A8B19
:1030D00089899A890197F1F7898B9A8B8F859889CD
:1030E00001978F87988B8F859889892B69F714C0F2
:1030F0006B857C858D859E850E945233DC01CB01DA
:103100008F87988B8F8598898B8B9C8B8B899C89DB
:103110000197F1F78B8B9C8B29813A818D819E8160
:10312000281739070CF481CF8B819C818E3F9A4CF4
:1031300059F58AED91E2892F8F938AED91E28F9371
:10314000A0D80F900F9089E092E2892F8F9389E0A9
:1031500092E28F9396D80F900F9083E392E2892F9B
:103160008F9383E392E28F938CD80F900F908EE52C
:1031700092E2892F8F938EE592E28F9382D80F90FF
:103180000F9080E090E006C083E792E20E948E10EC
:1031900080E090E06496CDBFDEBFDF91CF910895CF
:1031A00097FF03C09195819591090895F091462468
:1031B000E09145240097A1F45F934F937F936F9321
:1031C0003F932F938DE792E29F938F93FF93EF931B
:1031D0000E94CD2B8DB79EB70A968DBF9EBF15C09E
:1031E0005F934F937F936F939F938F933F932F930F
:1031F00088EA92E29F938F93FF93EF930E94CD2BE7
:103200008DB79EB70C968DBF9EBF0E940D248F92E6
:103210009F92AF92BF92CF92DF92EF92FF920F9365
:103220001F93CF93DF935C017B01EA016901209733
:10323000D1F0CE01969587958C9D40018D9D900C87
:103240009C9D900C11248E0C9F1CB401C501F801AB
:103250001995009759F024F07401EC0CFD1C21978E
:10326000D695C795E4CF80E090E001C0C401DF911E
:10327000CF911F910F91FF90EF90DF90CF90BF9073
:10328000AF909F908F9008950F931F93CF93DF93EC
:10329000869F8001879F100D969F100D1124C801F5
:1032A0002FD2EC01009729F0A80160E070E00E94A5
:1032B0008428CE01DF91CF911F910F9108958F92B5
:1032C0009F92AF92BF92CF92DF92EF92FF920F93B5
:1032D0001F93CF93DF93CDB7DEB72997CDBFDEBF66
:1032E0006A01122FB02E2BE3201720F0FF24F39455
:1032F000F00E02C02CE3F22E0F2D27E0AE014F5F3F
:103300005F4F0E945D24BC014981842F8970813008
:1033100031F0E1FC06C0E0FE06C090E205C09DE28F
:1033200003C09BE201C090E05E2D507143FF3CC0A2
:10333000911102C083E001C084E0811718F4212FAD
:10334000281B01C020E051110BC0F601822F30E292
:10335000882319F031938150FBCFC20ED11C20E09D
:10336000992329F0D6019C93F60131966F01C6018D
:103370000396E2FE0AC03EE4D6013C9341E4119676
:103380004C93119712963C9306C03EE6F6013083AB
:1033900041E641833283FC01322F40E2332309F4BA
:1033A00042C041933150FACF42FF44C0911102C054
:1033B00083E001C084E0811718F4212F281B01C08D
:1033C00020E051110BC0F601822F30E2882319F062
:1033D00031938150FBCFC20ED11C20E0992329F0FC
:1033E000D6019C93F60131966F01C6010396E2FE69
:1033F0000BC039E4D6013C933EE411963C931197FF
:1034000036E412963C9307C039E6F60130833EE677
:10341000318336E63283FC01322F40E2332319F048
:1034200041933150FBCFFC01E20FF11D10828EEF72
:103430009FEFA6C021E030E0911102C020E030E013
:10344000161617061CF4FB01319602C0E1E0F0E00D
:103450002E0F3F1FBB2021F0EB2DF0E0319602C074
:10346000E0E0F0E02E0F3F1FE12FF0E02E173F07C6
:103470001CF4121B212F01C020E08E2D887159F4FD
:10348000F601822F30E2882319F031938150FBCF6F
:10349000C20ED11C20E0992329F0D6019C93F6019D
:1034A00031966F0151110BC0F601822F90E38823F2
:1034B00019F091938150FBCFC20ED11C20E00F2D4B
:1034C000060F9A81342F307144FF03C0913309F401
:1034D0000150101624F4093018F008E001C001E092
:1034E000AB0177FF02C040E050E0FB01E41BF50BAD
:1034F000A1E0B0E0AC0FBD1FEA0FFB1F8EE2A82ECB
:103500004B01801A91080B2D10E0119501951109BE
:103510004F3FBFEF5B0721F4D601AC9211966D01CE
:10352000641775072CF08416950614F4818101C088
:1035300080E3415051093196D60111967D01401723
:10354000510724F0D6018C936701E2CF6417750709
:1035500039F4963320F4953319F4311101C081E325
:10356000F6018083F701822F90E2882319F091936E
:103570008150FBCFF701E20FF11D108280E090E057
:103580002996CDBFDEBFDF91CF911F910F91FF90A4
:10359000EF90DF90CF90BF90AF909F908F90089565
:1035A000CF92DF92FF920F931F93CF93DF93EA01A5
:1035B000F02E122F283008F017E000E0212FAE0186
:1035C0000E945D249881292F2870DE0190FF06C09B
:1035D000211104C011962DE228830CC0F1FE03C016
:1035E00011963BE204C0F0FE03C0119630E238832E
:1035F000211105C092FF0DC066E473E002C06EE4C5
:1036000073E0F2FE02C06C5F7F4FCD010E94602626
:1036100045C0FD01319629812C93213309F09F7E0D
:103620001123B9F0AE014E5F5F4F6F01312F2EE2D3
:10363000DA016D91AD01D6012D936D013150262F28
:10364000B9F71150DF01A10FB11DFD01329611969E
:103650006C93F2FC02C025E601C025E42083DF0163
:10366000129687FF04C09DE2918381950AC0811163
:1036700006C094FF04C09DE2918390E308C09BE2E2
:10368000918390E38A301CF09F5F8A50FBCF9C931C
:10369000805D11968C93119712961C92CE01DF914A
:1036A000CF911F910F91FF90DF90CF900895EF92EF
:1036B0000F931F93CF93DF93E80147FD02C034E0DF
:1036C00001C034E1042E000C550B57FF03C0519587
:1036D00041955109E32E022F242FAE01F0DDCE01DA
:1036E000DF91CF911F910F91EF90089597FF07C041
:1036F00090958095709561957F4F8F4F9F4F08955E
:103700000F931F93CF93DF938230910510F482E0E3
:1037100090E0E0913F24F091402420E030E0A0E0F0
:10372000B0E0309719F1408151810281138148172F
:103730005907C8F08417950769F4109731F012966D
:103740000C93129713961C9327C000933F24109359
:10375000402422C02115310519F04217530718F4EF
:103760009A01BD01EF01DF01F801DBCF2115310521
:10377000F9F0281B390B2430310580F48A819B81B4
:103780006115710521F0FB018283938304C080934E
:103790003F2490934024FE01329644C0FE01E20F84
:1037A000F31F8193919322503109288339833AC0C2
:1037B00020913D2430913E24232B41F4209102207E
:1037C0003091032020933D2430933E24209100200B
:1037D000309101202115310541F42DB73EB74091BC
:1037E000042050910520241B350BE0913D24F091DD
:1037F0003E24E217F307A0F42E1B3F0B28173907CE
:1038000078F0AC014E5F5F4F2417350748F04E0F3C
:103810005F1F40933D2450933E248193919302C0B7
:10382000E0E0F0E0CF01DF91CF911F910F9108957B
:10383000CF93DF93009709F481C0FC013297128285
:103840001382A0913F24B0914024109781F42081ED
:103850003181820F931F20913D2430913E242817FF
:10386000390751F5E0933D24F0933E2467C0ED0104
:1038700020E030E0CE17DF0740F44A815B819E01F3
:1038800041155105F1F0EA01F5CFC283D3834081A0
:103890005181840F951FC817D90759F488819981E0
:1038A000840F951F0296808391838A819B818283F6
:1038B00093832115310529F4E0933F24F0934024AC
:1038C0003DC0E901EA83FB8349915991C40FD51F9B
:1038D000EC17FD0761F480819181840F951F02969A
:1038E000E90188839983828193818A839B83E0E0C5
:1038F000F0E012968D919C911397009719F0FD01BD
:10390000DC01F7CF8D919C9111979D012E5F3F4F68
:10391000820F931F20913D2430913E2428173907B0
:1039200069F4309729F410923F241092402402C089
:1039300012821382A0933D24B0933E24DF91CF9155
:103940000895DC01FB018C9190819D9381934150FE
:10395000510914161506BCF30895CF92DF92EF9229
:10396000FF920F931F93CF93DF937C016B01D42FB2
:10397000C52F8901F90119956D2F7C2F97FF10C074
:10398000C601F801199597FF02C0C60118C06D2F36
:103990007C2FC701F801199597FD0FC0C7010FC013
:1039A000C601F8011995181619067CF36D2F7C2FA6
:1039B000C701F801199597FDF1CF8D2F9C2FDF914D
:1039C000CF911F910F91FF90EF90DF90CF900895CE
:1039D0002F923F924F925F926F927F928F929F921F
:1039E000AF92BF92CF92DF92EF92FF920F931F930D
:1039F000CF93DF93CDB7DEB72A97CDBFDEBF8C0163
:103A00007B0149875A87690129853A85200F311F33
:103A100029833A8337E0E316F10468F569807A80F8
:103A200049855A85E49E5001E59EB00CF49EB00C89
:103A30001124A00EB11E6A147B0408F06DC173013D
:103A40000E151F0528F089859A85680E791EF3CF1B
:103A50004701E985FA858E1A9F0AB701C401F6016C
:103A60001995181619067CF749855A85B401C701BE
:103A700068DF7401E5CFC7019695879529853A855A
:103A8000829F5001839FB00C929FB00C1124A00E16
:103A9000B11EA701415051094B835C8357E0E516E5
:103AA000F10409F448C08B819C81829F3001839F7F
:103AB000700C929F700C1124600E711E99E2E91631
:103AC000F10490F1C70143E0969587954A95E1F797
:103AD000829F4001839F900C929F900C11241401AF
:103AE000220C331CA801420D531DB801680D791D2D
:103AF0009601C80132DF2C01A501480D591D919492
:103B0000819491089601B501C501880D991D25DFA5
:103B10005C01B301680D791D9601A301C3018219EF
:103B200093091BDF3C0101C028019601A301B501E7
:103B3000C20113DF5C0149855A85B501C80101DF67
:103B400069807A802B813C8149855A85249FF001C8
:103B5000259FF00D349FF00D1124ED83FE835F014E
:103B6000A00EB11E460D571D4B835C83250113012A
:103B700019821A828B809C8089859A85881A990A75
:103B8000A814B90408F44DC0B801C401F601199590
:103B900018161906B4F1892B69F449855A85B401C0
:103BA000C101CFDE89859A85280E391EE1E0F0E05B
:103BB000E983FA832B813C8149855A85240F351F7F
:103BC0002B833C83D7CFB801C501F6011995950128
:103BD00049855A85241B350B2F83388797FD15C0DF
:103BE000892B69F449855A85B201C501AADE298568
:103BF0003A85421A530A41E050E049835A83AF8024
:103C0000B884A814B904F8F60CC049855A85B501E2
:103C1000C40197DEAF80B88441E050E049835A8305
:103C2000C9CF89819A81892B09F44CC06D807E802F
:103C300029853A85620E731E600E711E7401E218AA
:103C4000F308A101401B510BE416F5060CF4A70183
:103C5000141615062CF4B401641B750BC80171DE33
:103C6000A2014A195B095A01A30144195509898522
:103C70009A85481B590BA416B50608F4A50114161D
:103C800015062CF4B301641B750BC4015ADEE985DB
:103C9000FA85EE15FF0540F4C701BF010E94983E6A
:103CA0009601AF01C80194DE29853A852A153B05A6
:103CB00098F583010A191B09C501B9010E94983EB4
:103CC0007B01A2CEE985FA85EE9E5001EF9EB00CF5
:103CD000FE9EB00C1124A00EB11E6A147B04E0F409
:103CE00073010E151F0528F089859A85680E791EC7
:103CF000F4CF4701E985FA858E1A9F0AB701C401FE
:103D0000F6011995181619067CF749855A85B401EC
:103D1000C70117DE7401E5CF2A96CDBFDEBFDF9164
:103D2000CF911F910F91FF90EF90DF90CF90BF90B8
:103D3000AF909F908F907F906F905F904F903F904B
:103D40002F9008958F929F92AF92BF92CF92DF9261
:103D5000EF92FF92CF93DF93EC01688179818A81A2
:103D60009B81611571058105910521F464E279ED6E
:103D70008BE597E02DE133EF41E050E00E94E13E1A
:103D800049015A019B01AC01A7EAB1E40E94033F3B
:103D90006B017C01ACEEB4EFA50194010E940F3FD2
:103DA000DC01CB018C0D9D1DAE1DBF1DB7FF03C0F7
:103DB0000197A109B04888839983AA83BB839F7721
:103DC000DF91CF91FF90EF90DF90CF90BF90AF90B9
:103DD0009F908F900895B6CF86E090E2B3CFA0E099
:103DE000B0E08093062090930720A0930820B09322
:103DF000092008958F929F92AF92BF92CF92DF9247
:103E0000EF92FF92CF93DF93EC01688179818A81F1
:103E10009B81611571058105910521F464E279EDBD
:103E20008BE597E02DE133EF41E050E00E94E13E69
:103E300049015A019B01AC01A7EAB1E40E94033F8A
:103E40006B017C01ACEEB4EFA50194010E940F3F21
:103E5000DC01CB018C0D9D1DAE1DBF1DB7FF03C046
:103E60000197A109B04888839983AA83BB83BC01C9
:103E7000CD019F77DF91CF91FF90EF90DF90CF90B2
:103E8000BF90AF909F908F9008958F929F92AF9226
:103E9000BF92CF92DF92EF92FF9260910A207091D1
:103EA0000B2080910C2090910D20611571058105EA
:103EB000910521F464E279ED8BE597E02DE133EF94
:103EC00041E050E00E94E13E49015A019B01AC01F2
:103ED000A7EAB1E40E94033F6B017C01ACEEB4EFB2
:103EE000A50194010E940F3FDC01CB018C0D9D1DAB
:103EF000AE1DBF1DB7FF03C00197A109B048809355
:103F00000A2090930B20A0930C20B0930D20BC01AD
:103F1000CD019F77FF90EF90DF90CF90BF90AF9053
:103F20009F908F90089560930A2070930B20809348
:103F30000C2090930D2008956F927F928F929F9204
:103F4000AF92BF92CF92DF92EF92FF920F931F93A7
:103F5000CF93DF93009781F4CB01DF91CF911F9135
:103F60000F91FF90EF90DF90CF90BF90AF909F9018
:103F70008F907F906F90C4CBFC01E60FF71F9C01E0
:103F800022503109E217F30708F4A5C0EC01D9016A
:103F90000D911C91119706171707A8F00530110510
:103FA00008F497C0C80104978617970708F491C0D2
:103FB00002501109061B170B019311936D937C930B
:103FC000CF0136DC86C05B01A01AB10A4C01800E1D
:103FD000911EA0913F24B0914024612C712CE12CC2
:103FE000F12C109709F446C08D919C911197A8155A
:103FF000B905B1F56C0142E0C40ED11CCA14DB0452
:1040000078F14C018A189B08640142E0C40ED11C6F
:104010001296BC9012971396AC91B5E0CB16D104D2
:1040200040F0B282A38380829182D9016D937C9308
:1040300009C00E5F1F4F800F911FF901808391838C
:10404000EB2DFA2FE114F10431F0D7011296ED9324
:10405000FC9313973EC0E0933F24F093402439C073
:104060006816790608F43C017D0112960D90BC910A
:10407000A02DB7CF80913D2490913E2488169906BB
:10408000E1F466167706C8F4809100209091012033
:10409000009741F48DB79EB74091042050910520C0
:1040A000841B950BE817F907B0F4E0933D24F093D7
:1040B0003E24F901608371830CC0CB0121DB7C01BC
:1040C000009749F0A801BE01ABD7CE01B1DBC70113
:1040D00004C0CE0102C080E090E0DF91CF911F913B
:1040E0000F91FF90EF90DF90CF90BF90AF909F9097
:1040F0008F907F906F9008958F929F92AF92BF9212
:10410000CF92DF92EF92FF920F931F93CF93DF93A3
:10411000EC016B016115710519F0FB01808391833E
:104120007E01FFEFEF1AFF0A0881802F90E021D572
:10413000892B11F0E701F4CF0D3239F47E0182E0D2
:10414000E80EF11C098111E008C00B3229F47E0150
:1041500092E0E90EF11C098110E0E701219743E0AC
:1041600050E06EE573E0CE01FDD5892BB9F42396BE
:1041700045E050E069E573E0CE01F4D5892B09F400
:104180002596C114D10419F0F601C083D183111111
:10419000F5C060E070E080E89FE7F9C043E050E0E0
:1041A00066E573E0CE01DED5892B59F4C114D10444
:1041B00009F4E9C0F2E0EF0EF11CF601E082F182B1
:1041C000E2C020E030E0A901C0E0D0E0F70160EDFE
:1041D000A62EA00E89E08A1530F1912F9260B92E9B
:1041E000812F887012FF04C0811124C0219622C043
:1041F00081112197A5E0B0E00E94033FDC01CB01D3
:10420000880F991FAA1FBB1F9C01AD012A0D311DEC
:10421000411D511D283989E93807480789E15807A8
:1042200048F0166006C09EEFA9120AC013FD40C0F8
:104230001860B12E8FEFE81AF80A00811B2DC6CF47
:10424000802F8F7D8534A1F580818D3211F410612E
:1042500006C08B3221F0319661E070E004C08181AC
:10426000329662E070E080538A3018F0E61BF70B5C
:104270001FC060E070E060389CE079075CF4DB010F
:10428000AA0FBB1FAA0FBB1F6A0F7B1F660F771FEA
:10429000680F711D3196DF0111978C9180538A3020
:1042A00050F314FF03C0719561957109C60FD71FB4
:1042B00011FF08C0C114D10429F0CF010197F60104
:1042C00080839183CA01B9010E948233212F237018
:1042D000233019F04B015C0106C04B015C01B7FAB9
:1042E000B094B7F8B09420E030E0A901C501B40162
:1042F0000E945E32882309F43EC0D7FF06C0D195E4
:10430000C195D10905E713E002C00DE813E068018B
:10431000F8E1CF1AD10890E2E92EF12CCE15DF0595
:1043200074F0F8012591359145915491C501B4017E
:104330000E94CA374B015C01CE19DF09EFCF045050
:104340001109F594E7940C151D0541F78A2D880F86
:104350008B2D881F8F3F49F020E030E0A901C50177
:10436000B4010E945E32811106C082E290E0809327
:104370003B2490933C24C501B40109C060E070E087
:1043800080E89FEF04C060E070E080EC9FE7DF9181
:10439000CF911F910F91FF90EF90DF90CF90BF9042
:1043A000AF909F908F9008953F924F925F926F923F
:1043B0007F928F929F92AF92BF92CF92DF92EF92B5
:1043C000FF920F931F93CF93DF935C016B017A01F0
:1043D0006115710519F0FB0180839183E114F104EB
:1043E00029F0C7010297839708F0E4C0E501219600
:1043F000F5011081812F90E0BCD3892B11F05E0173
:10440000F5CF1D3229F42196F501118101E007C095
:104410001B3221F4E5012296F501118100E0E1143F
:10442000F10409F1F0E1EF16F10429F43FC010E3C3
:10443000E114F10421F128E0E216F10401F154F451
:10444000E2E0EE16F10421F5812C912CA12CB0E4D0
:10445000BB2E3EC0FAE0EF16F10439F020E1E2167F
:10446000F104B1F430C0103319F1FAE0EF2EF12C61
:10447000ACEC8A2E982CA82CACE0BA2E29C078E09F
:10448000E72EF12C812C912CA12CE0E1BE2E20C036
:1044900060E070E080E090E897010F2C000C440B86
:1044A000550B0E94BF3E49015A0112C0103359F406
:1044B00088818F7D883509F0BACF198122960260F4
:1044C00080E1E82EF12C812C912CA12C68E0B62EF5
:1044D00040E060E070E0CB0127010F2C000C660883
:1044E0007708FE0150ED352E310E29E0231570F4CA
:1044F0002FEB210F2A3118F439EC332E06C02FE9A7
:10450000210F2A3118F529EA322E310E232D30E001
:104510002E153F05DCF447FD16C086169706A80643
:10452000B90670F0A30192010E947C3E630D711DDB
:10453000811D911D61307105810520E8920710F001
:104540004FEF01C041E021961081CBCF202F217089
:10455000C114D10471F0442329F02197F601C083DE
:10456000D18307C001FF19C02297F601C083D18310
:1045700014C047FF12C0222329F060E070E080E001
:1045800090E804C06FEF7FEF8FEF9FE722E230E00B
:1045900020933B2430933C2409C0222381F0909542
:1045A0008095709561957F4F8F4F9F4F462F372F86
:1045B000282F12C040E030E020E090E00DC097FFCF
:1045C000F5CF82E290E080933B2490933C246FEF00
:1045D0007FEF8FEF9FE7EACF642F732F822FDF915A
:1045E000CF911F910F91FF90EF90DF90CF90BF90F0
:1045F000AF909F908F907F906F905F904F903F9083
:1046000008953F924F925F926F927F928F929F9206
:10461000AF92BF92CF92DF92EF92FF920F931F93D0
:10462000CF93DF935C016B017A016115710519F07D
:10463000FB0180839183E114F10429F0C701029703
:10464000839708F0C8C0E5012196F5011081812FFC
:1046500090E08FD2892B11F05E01F5CF1D3229F445
:104660002196F501118101E007C01B3221F4E5011B
:104670002296F501118100E0E114F104B1F0F0E1BE
:10468000EF16F10429F4B0C010E3E114F10401F1D4
:104690002AE0E216F104B1F180E1E816F10471F0CC
:1046A000E8E0EE16F104F1F413C0103341F588810F
:1046B0008F7D883549F7198122960260F0E1EF2E4F
:1046C000F12C88248A94982CA82CAFE0BA2E20C014
:1046D00078E0E72EF12C88248A94982CA82CEFE11E
:1046E000BE2E16C06FEF7FEFCB0197010F2C000C91
:1046F000440B550B0E94BF3E49015A0109C08AE094
:10470000E82EF12C69E9862E982CA82C69E1B62EAA
:1047100040E060E070E0CB0127010F2C000C660840
:104720007708FE0150ED352E310E29E0231570F487
:104730002FEB210F2A3118F439EC332E06C02FE964
:10474000210F2A3130F529EA322E310E232D30E0A7
:104750002E153F05F4F44F3FC9F086169706A806BC
:10476000B90688F0A30192010E947C3E232D30E01F
:1047700040E050E0620F731F841F951F621773079C
:104780008407950710F44FEF01C041E02196108196
:10479000C8CFC114D10451F0442311F0219703C0B4
:1047A00001FF04C02297F601C083D18300FF07C038
:1047B00090958095709561957F4F8F4F9F4F4F3F9C
:1047C00079F482E290E080933B2490933C243FEF85
:1047D0002FEF9FEF0DC040E030E020E090E008C0F8
:1047E000462F372F282F04C0103309F067CF5FCF33
:1047F000642F732F822FDF91CF911F910F91FF9024
:10480000EF90DF90CF90BF90AF909F908F907F9070
:104810006F905F904F903F90089581E090E0F89402
:104820000C94E13F6627772767CCFC0188279927FE
:10483000E89421912032E9F3293010F02E30C8F3AA
:104840002B3239F02D3231F4689403C070D6820FC8
:10485000911D219120532A30C8F31EF49095819523
:104860009F4F08951F93FC0199278827BC01E89466
:1048700011911032E9F3193010F01E30C8F31B32D9
:1048800049F01D3241F4689405C03CD6610F711D9A
:10489000811D911D119110531A30B8F33EF490957B
:1048A0008095709561957F4F8F4F9F4F1F91089511
:1048B0000C94AC3EF8940C94E13F283008F027E0CB
:1048C0003327DA01990F311D87FD9160009661054C
:1048D000710539F432602E5F3D9330E32A95E1F79C
:1048E00008959F3F30F080387105610509F03C5F05
:1048F0003C5F3D93913008F08068911DDF93CF932A
:104900001F930F93FF92EF92192F987F9695E92F9F
:1049100096959695E90FFF27E551FC4F9927332788
:10492000EE24FF24A701E70105900894079428F4DA
:10493000360FE71EF81E491F511D660F771F881F8F
:10494000991F0694A1F70590079428F4E70EF81E26
:10495000491F561FC11D770F881F991F661F069498
:10496000A1F70590079428F4F80E491F561FC71F9A
:10497000D11D880F991F661F771F0694A1F7059018
:10498000079420F4490F561FC71FD81F990F661FA1
:10499000771F881F0694A9F784911095177041F02E
:1049A000D695C79557954795F794E7941A95C1F70B
:1049B000E1E9F3E068941590159135916591959131
:1049C00005907FE27395E118F10A430B560BC90B72
:1049D000D009C0F7E10CF11E431F561FC91FD01D9F
:1049E0007EF4703311F48A95E6CFE894015030F0EC
:1049F000080F0AF40027021708F4202F2395022F2E
:104A00007A3328F079E37D932A95E9F710C07D93F6
:104A10002A9589F606949795679537951795179473
:104A2000E118F10A430B560BC90BD00998F02395F6
:104A30007E9173957A3308F070E37C932013B8F776
:104A40007E9170617D9330F0839571E37D9370E387
:104A50002A95E1F71124EF90FF900F911F91CF91CC
:104A6000DF91992787FD909508950C94E13EDC0134
:104A70002D923D924D925D926D927D928D929D927E
:104A8000AD92BD92CD92DD92ED92FD920D931D936C
:104A9000CD93DD930F90FF91EF918DB78D938EB7EE
:104AA0008D938FB78D93ED93FD93882799270D9262
:104AB00020C0DC01CB0181309105811D2D903D90FE
:104AC0004D905D906D907D908D909D90AD90BD903E
:104AD000CD90DD90ED90FD900D911D91CD91DD91EA
:104AE000ED91FD910D900FBEEDBFFEBFED91FD91DB
:104AF0000D90EF93FF930F92089591110EC0809542
:104B00008078089599278F770895911106C0805372
:104B10008A5010F0865C06C008959927882708956A
:104B200085FDFBCF80629111F8CF81568A51E0F765
:104B300008959111F2CF80538A50E0F708959111B2
:104B4000ECCF80538A5028F0865C80628156865074
:104B5000B8F708959111E1CF8F3711F08052D8F74F
:104B60000895803209F09111D8CF80528F55E0F727
:104B700008959111D2CF803219F089508550D0F725
:104B800008959111CACF803211F08930D9F7089574
:104B90009111C3CF81528E55E0F78158B6DF88233B
:104BA000C1F781E008959111089581548A5108F464
:104BB000805E855A08959111089581568A5108F4AE
:104BC0008052855808954EE453E276C1FC0141506D
:104BD000504030F005900616D1F73197CF01089577
:104BE000882799270895FB01DC0104C08D91059069
:104BF000801921F441505040C8F7881B990B089543
:104C0000FB01DC012150304030F005900D9204167C
:104C1000C9F7CD010895882799270895FB01DC0184
:104C200002C005900D9241505040D8F70895FA0106
:104C3000309651F0E80FF91F3197C895061621F00C
:104C400041505040C9F7FA01CF010895FB01DC0142
:104C50008D9181341CF08B350CF4805E659161344C
:104C60001CF06B350CF4605E861B611189F3990BA7
:104C70000895FB01DC010D900020E9F711970590E4
:104C80000D920020E1F70895FC010590061621F031
:104C90000020D9F7C00108953197CF010895FC0194
:104CA000059006160110E1F73197CF010895FB0139
:104CB000DC018D91059080190110D9F3990B0895AD
:104CC000FB01DC0105900D920020E1F70895DC0165
:104CD0005D91552331F0FB01059005160110E1F7B8
:104CE000B9F7809590958A0F9B1F0895DC01FB0111
:104CF0004150504070F00D900020D1F7119704C042
:104D000005900D92002061F041505040C8F71C9270
:104D1000BF0105900020E9F7E61BF70BAE0FBF1FA0
:104D20000894A80BB90BCD010895DC01FB0141509B
:104D3000504058F049F005900D920020C1F7E61B55
:104D4000F70B3197CF0108951C9205900020E9F7E9
:104D5000F6CFFC0105900020E9F7809590958E0F25
:104D60009F1F0895FB01DC014150504088F08D9158
:104D700081341CF08B350CF4805E659161341CF03D
:104D80006B350CF4605E861B611171F3990B08950D
:104D9000881BFCCFFB01DC010D900020E9F7119787
:104DA0004150504028F0059000200D92C9F7089519
:104DB0001C920895FB01DC014150504030F08D9170
:104DC0000590801919F40020B9F7881B990B0895F4
:104DD000FB01DC014150504048F005900D9200204D
:104DE000C9F701C01D9241505040E0F70895FC0101
:104DF0000590615070400110D8F7809590958E0F06
:104E00009F1F0895DC0199278D91882341F0FB01B4
:104E1000059008160110E1F7B9F71197CD01089533
:104E2000FC0181E090E00590061609F4CF01002016
:104E3000D1F701970895FC01A081B181AD011096D1
:104E400081F03D91FB01059003160110E1F7C9F7D0
:104E5000002011F4D00102C01E921196FC01A08323
:104E6000B183CA010895DC015D91552331F0FB0146
:104E7000059005160110E1F7B9F3809590958A0F1A
:104E80009B1F0895FB0155915523A9F0BF01DC013B
:104E90004D9145174111E1F759F4CD0105900020DE
:104EA00049F04D9140154111C9F3FB014111EFCF7C
:104EB00081E090E001970895FA01A191B0810097F7
:104EC00019F41097E1F0CD01DC01CD010D90002027
:104ED00011F4C00113C0FB012591222319F0201504
:104EE000D9F7F3CFFB012591201519F41E921196E5
:104EF00006C02223C1F70D900020A1F7D001FA01CE
:104F0000A193B0830895FA010BB66BBF602DDC014D
:104F100004C08D910790801921F421503040C8F7CA
:104F2000881B990B6BBF08950F931F93CF93DF934B
:104F30008C01FC0101900020E9F7CF01801B910B4F
:104F40000E94801BEC01009711F0B80168D1CE01DE
:104F5000DF91CF911F910F91089540E553E275C203
:104F6000E1E0882321F4892B31F0E8E0E39587958F
:104F7000E8F78E2F99270895E1E0662351F4E85F62
:104F8000672B39F4E85F682B21F4E95F692B29F07E
:104F9000E3956795E8F78E2F99270895F90121E0A9
:104FA000309761F4FA01205F309741F4FB01205FF4
:104FB000309721F4FC01205F309749F0EE2319F47B
:104FC000295FEF2F2395E795E8F7822F992708951A
:104FD000FB01DC012150304030F001900D920416AD
:104FE000C9F7CD010895882799270895FC014150FC
:104FF000504030F001900616D1F73197CF01089557
:10500000882799270895FB01DC0104C08D91019048
:10501000801921F441505040C8F7881B990B08951E
:10502000FB01DC0102C001900D9241505040D8F7C5
:1050300008952115310511F11F930F93240F351F8A
:10504000680F791FFA011191AF01DC01A617B707AC
:1050500080F40D910117D1F7CD01FA01E217F307A2
:1050600050F4A617B70728F40D9101900015B1F37D
:10507000ECCF81E090E001970F911F9108952115E9
:10508000310511F11F930F93240F351F680F791FFE
:10509000FA011591AF01DC01A617B70780F40D9155
:1050A0000117D1F7CD01FA01E217F30750F4A61763
:1050B000B70728F40D9105900015B1F3ECCF81E00E
:1050C00090E001970F911F9108956817790768F490
:1050D000FB01DC01E40FF51FA40FB51F02C0029015
:1050E0000E9241505040D8F708959ACFFA01309669
:1050F00049F0E80FF91F0290061621F04150504088
:10510000D1F7FA01CF010895DC0101C06D93415040
:105110005040E0F70895FB01DC018D9181341CF0D3
:105120008B350CF4805E619161341CF06B350CF4AE
:10513000605E861B611189F3990B0895FB01519103
:105140005523B1F0BF01DC01052E4D91442369F0D8
:1051500010D0D9F7CD010190002049F04D914111B7
:1051600008D0C9F3FB014111EECF81E090E0019737
:105170000895402539F0403229F440294B57465EC6
:1051800008F018940895FB0155915523B1F0BF0123
:10519000DC01052E4D91442369F010D0D9F7CD01E3
:1051A0000590002049F04D91411108D0C9F3FB0151
:1051B0004111EECF81E090E001970895402539F04C
:1051C000403229F440294B57465E08F01894089560
:1051D000FB01DC010D900020E9F7119701900D9281
:1051E0000020E1F70895FC018191861721F08823C2
:1051F000D9F7992708953197CF010895FC010190BF
:1052000006160110E1F73197CF010895FB01DC018B
:105210008D91019080190110D9F3990B0895FB012C
:10522000DC0101900D920020E1F70895DC015D9111
:10523000552331F0FB01019005160110E1F7B9F794
:10524000809590958A0F9B1F0895DC01FB014150CA
:10525000504070F00D900020D1F7119704C00190DC
:105260000D92002061F041505040C8F71C92BF01E0
:1052700001900020E9F7E61BF70BAE0FBF1F089463
:10528000A80BB90BCD010895DC01FB014150504042
:1052900058F049F001900D920020C1F7E61BF70B82
:1052A0003197CF0108951C9201900020E9F7F6CFC5
:1052B000FC0101900020E9F7809590958E0F9F1FCB
:1052C0000895DC016C9161546A3108F060526F59A5
:1052D0006D93C1F70895FB01DC014150504088F007
:1052E0008D9181341CF08B350CF4805E61916134BA
:1052F0001CF06B350CF4605E861B611171F3990B29
:105300000895881BFCCFFB01DC010D900020E9F71C
:1053100011974150504028F0019000200D92C9F79C
:1053200008951C920895FB01DC014150504030F07B
:105330008D910190801919F40020B9F7881B990B01
:105340000895FB01DC014150504048F001900D925E
:105350000020C9F701C01D9241505040E0F7089568
:10536000FC016150704001900110D8F78095909534
:105370008E0F9F1F0895DC0199278D91882341F09E
:10538000FB01019008160110E1F7B9F71197CD0163
:105390000895FC0181E090E00190061609F4CF0128
:1053A0000020D1F701970895DC01FC01672F71916E
:1053B0007723E1F7329704C07C916D9370836291FB
:1053C000AE17BF07C8F30895FC01A081B181AD01FC
:1053D000109681F03D91FB01019003160110E1F759
:1053E000C9F7002011F4D00102C01E921196FC01F1
:1053F000A083B183CA010895DC015D91552331F08A
:10540000FB01019005160110E1F7B9F38095909525
:105410008A0F9B1F0895FB0151915523A9F0BF01ED
:10542000DC014D9145174111E1F759F4CD0101908F
:10543000002049F04D9140154111C9F3FB01411184
:10544000EFCF81E090E001970895FA01A191B0813A
:10545000009719F41097E1F0CD01DC01CD010D901A
:10546000002011F4C00113C0FB012191222319F087
:105470002015D9F7F3CFFB012191201519F41E92C5
:10548000119606C02223C1F70D900020A1F7D0018C
:10549000FA01A193B0830895DC016C9161566A31E1
:1054A00008F0605E6F5B6D93C1F70895453251055A
:1054B00018F4423008F004C0FB011082CB010895BB
:1054C000BB274A3031F4992322F4BDE290958195AF
:1054D0009F4F6BC02532310518F4223008F004C00C
:1054E000FA011082CA010895BB272A3051F499238A
:1054F00042F4BDE290958095709561957F4F8F4FF6
:105500009F4F28C0592F482F372F262F660F771F00
:10551000881F991F660F771F881F991F620F731FBF
:10552000841F951F660F771F881F991F08957AE0C3
:10553000979F902D879F802D910D112408952532DE
:10554000310518F4223008F004C0FA011082CA01B3
:105550000895BB27FA01A62F6217710581059105F1
:10556000330B30FB66F0AA27660F771F881F991F41
:10557000AA1FA21710F0A21B63953850A9F7A05DCF
:10558000AA3308F0A95DA19336F7B111B193108247
:10559000CA010ACF4532510518F4423008F004C060
:1055A000FB011082CB010895BB27FB015527AA27D9
:1055B000880F991FAA1FA41710F0A41B83955051A0
:1055C000B9F7A05DAA3308F0A95DA193009779F718
:1055D000B111B1931192CB01E7CEFC0193819F7C75
:1055E00093830895FC01238127FF10C0E1E4F4E2D6
:1055F000208131818217930711F410821182329633
:1056000024E2E734F207A1F70E94181C80E090E042
:1056100008950F931F93CF93DF93009731F4611593
:10562000710519F480E090E03AC08B01EC016EE066
:1056300070E081E090E00E944419FC01892B91F315
:1056400080E883830115110571F00287138781E8D3
:1056500083838091412490914224892B21F4E0930B
:105660004124F09342242097C9F0C087D1878381D9
:10567000826083838091432490914424892B71F428
:10568000E0934324F0934424809145249091462450
:10569000892B21F4E0934524F0934624CF01DF9138
:1056A000CF911F910F910895FC018381807290E04A
:1056B0000895FC018381807190E00895CF93DF937A
:1056C000EC012B8120FF33C026FF0AC02F7B2B83E8
:1056D0008E819F8101968E839F838A8190E029C06D
:1056E00022FF0FC0E881F9818081082E000C990B00
:1056F000009719F420622B831AC03196E883F9834E
:105700000EC0EA85FB85199597FF09C02B8101968C
:1057100011F080E201C080E1822B8B8308C02E81D2
:105720003F812F5F3F4F2E833F83992702C08FEF2A
:105730009FEFDF91CF910895CF92DF92EF92FF928A
:105740000F931F93CF93DF93FA01238120FD03C0B2
:1057500080E090E019C016161706D4F77A018C0184
:10576000EB016C01C130D10561F0C701A7DF8F3FAC
:10577000FFEF9F0769F3F60181936F0121970A9765
:1057800089F7F6011082C801DF91CF911F910F9127
:10579000FF90EF90DF90CF900895CF93DF93CDB738
:1057A000DEB7AE01465F5F4F688579858E819F8148
:1057B0000E946839DF91CF9108950F931F93CF9383
:1057C000DF93CDB7DEB708851985F801838188603E
:1057D0008383AE01445F5F4F6A857B85C8010E9469
:1057E0006839F8012381277F2383DF91CF911F91AF
:1057F0000F9108950F931F93CF93DF93FB012381A4
:1058000021FD03C08FEF9FEF2CC022FF16C0468101
:105810005781248135814217530744F4A081B18117
:105820009D012F5F3F4F208331838C9326813781E9
:105830002F5F3F4F2683378314C08B01EC01FB01A0
:105840000084F185E02D1995892BE1F6D801169693
:105850008D919C911797019616968D939C9317970F
:10586000CE01DF91CF911F910F910895EF92FF929A
:105870000F931F93CF93DF93DB0113962C9121FF9E
:1058800018C08B017C01D0E0C0E0F70181917F015D
:10589000882361F0D8011896ED91FC911997B80111
:1058A0001995892B91F3DFEFCFEFEFCF8D2F9C2F41
:1058B00002C08FEF9FEFDF91CF911F910F91FF906B
:1058C000EF900895EF92FF920F931F93CF93DF9382
:1058D0008C017B01DB0113968C9181FF17C0D0E016
:1058E000C0E0F8018491882371F0D7011896ED91FA
:1058F000FC911997B7011995892B11F0DFEFCFEFC4
:105900000F5F1F4FEECF8D2F9C2F02C08FEF9FEFA9
:10591000DF91CF911F910F91FF90EF9008958F929B
:105920009F92AF92BF92CF92DF92EF92FF920F932E
:105930001F93CF93DF935B014A017901F901238122
:1059400020FF19C0C0E0D0E0C815D905B9F08C011E
:105950006C01CA0CDB1CC8010C151D0551F0C701F8
:10596000ADDE8F3FFFEF9F0749F0F80181938F0174
:10597000F2CF2196E9CF80E090E001C0CE01DF9127
:10598000CF911F910F91FF90EF90DF90CF90BF903C
:10599000AF909F908F900895CF93DF93CDB7DEB7F0
:1059A000AE01465F5F4F688579858E819F810E9439
:1059B000233DDF91CF9108950F931F93CF93DF93F2
:1059C000CDB7DEB708851985F801838188608383A8
:1059D000AE01445F5F4F6A857B85C8010E94233D0D
:1059E000F8012381277F2383DF91CF911F910F91AE
:1059F00008958F929F92AF92BF92CF92DF92EF92D3
:105A0000FF920F931F93CF93DF935B014A017901BC
:105A1000D90113962C9121FF1DC0C0E0D0E0C8151C
:105A2000D905D9F08C016C01CA0CDB1CC8010C151E
:105A30001D0571F00F5F1F4FD7011896ED91FC9176
:105A40001997B701DC018C911995892B79F305C061
:105A50002196E5CF80E090E001C0CE01DF91CF91AB
:105A60001F910F91FF90EF90DF90CF90BF90AF907C
:105A70009F908F90089580914124909142241ECE52
:105A80000F931F93CF93DF93E0914124F091422431
:105A9000238120FD03C080E090E016C0C92FD82FDD
:105AA000082F192F809141249091422407DE8F3FC7
:105AB0002FEF920781F3F80181938F010A9791F7F5
:105AC000319710828D2F9C2FDF91CF911F910F91D5
:105AD0000895CF93DF93CDB7DEB7AE014A5F5F4F36
