:100000000C9413010C9439010C9439010C943901AE
:100010000C9439010C9439010C9439010C94390178
:100020000C9439010C9439010C9439010C94390168
:100030000C9439010C9439010C9439010C94390158
:100040000C9439010C9439010C9439010C94390148
:100050000C9439010C9439010C9439010C94390138
:100060000C9439010C9439010C9439010C94390128
:100070000C9439010C9439010C9439010C94390118
:100080000C9439010C9439010C9439010C94390108
:100090000C9439010C9439010C9439010C943901F8
:1000A0000C9439010C9439010C9439010C943901E8
:1000B0000C9439010C9439010C9439010C943901D8
:1000C0000C9439010C9439010C9439010C943901C8
:1000D0000C9439010C9439010C9439010C943901B8
:1000E0000C9439010C9439010C9439010C943901A8
:1000F0000C9439010C9439010C9439010C94390198
:100100000C9439010C9439010C9439010C94390187
:100110000C9439010C9439010C9439010C94390177
:100120000C9439010C9439010C9439010C94390167
:100130000C9439010C9439010C9439010C94390157
:100140000C9439010C9439010C9439010C94390147
:100150000C9439010C9439010C9439010C94390137
:100160000C9439010C9439010C9439010C94390127
:100170000C9439010C9439010C9439010C94390117
:100180000C9439010C9439010C9439010C94390107
:100190000C9439010C9439010C9439010C943901F7
:1001A0000C9439010C9439010C9439010C943901E7
:1001B0000C9439010C9439010C9439010C943901D7
:1001C0000C9439010C9439010C9439010C943901C7
:1001D0000C9439010C9439010C9439010C943901B7
:1001E0000C9439010C9439010C9439010C943901A7
:1001F0000C9439010C9439010C9439010C945B0571
:1002000000000000000000000000000000000000EE
:1002100000000000000000000000000000000000DE
:1002200000000000000011241FBECFEFCDBFDFE3B0
:10023000DEBF00E00CBF18BE19BE1ABE1BBE10E226
:10024000A0E0B0E2E0E3F1E200E00BBF02C0079003
:100250000D92A23BB107D9F71BBE21E2A2EBB0E29F
:1002600001C01D92A738B207E1F70E9455040C9413
:1002700096100C940000CF92DF92EF92FF92CF93F2
:10028000DF93CDB7DEB78DEA9EED8093BA209093D1
:10029000BB201092BD201092BE2009C08091BD20CD
:1002A0009091BE2001968093BD209093BE208091B6
:1002B000BD209091BE206C01990FEE08FF080E94AE
:1002C000AF06DC01CB01C816D906EA06FB0630F3FF
:1002D0008091BA209091BB208D3A9E4D09F0D3CFEA
:1002E000DF91CF91FF90EF90DF90CF900895CF9363
:1002F000DF931F921F92CDB7DEB719821A820E9438
:10030000AF06DC01CB018093B2200E94AF06DC0176
:10031000CB018093B3200E94AF06DC01CB01809318
:10032000B4200E94AF06DC01CB018093B5200E946F
:10033000AF06DC01CB018093B6200E94AF06DC0142
:10034000CB018093B7200E94AF06DC01CB018093E4
:10035000B8200E94AF06DC01CB018093B9200F903A
:100360000F90DF91CF910895CF93DF9300D01F922C
:10037000CDB7DEB789839A836B837C838B819C8125
:10038000089729813A81820F931F28E0E2EBF0E27F
:10039000DC0101900D922A95E1F72496CDBFDEBFD6
:1003A000DF91CF910895CF93DF93CDB7DEB7259737
:1003B000CDBFDEBF8A839B836C837D8319821092BD
:1003C000BD201092BE2054C08C819D819C0128507C
:1003D00031098091BD209091BE20820F931F9C0116
:1003E0008A819B81820F931FFC0120818091BD2017
:1003F0009091BE208E549F4DFC0180818227282F32
:1004000030E08091BA209091BB20820F931F80939F
:10041000BA209093BB208C819D819C01285031098A
:100420008091BD209091BE20820F931F9C018A81F4
:100430009B81820F931FFC0120818091BD209091B0
:10044000BE208E549F4DFC01908181E0291709F454
:1004500080E0882F90E0982F8981890F898380918F
:10046000BD209091BE2001968093BD209093BE2028
:100470008091BD209091BE2008970CF4A5CF0E94DA
:100480003506000000000000000000000000000031
:10049000000000000000000000000000000000005C
:1004A000000000000000000000000000000000004C
:1004B000000000000000000000000000000000003C
:1004C000000000000000000000000000000000002C
:1004D000000000000000000000000000000000001C
:1004E0000000000000008091BA209091BB208D3A5E
:1004F0009E4D11F0898138C000000000000000000E
:1005000000000000000000000000000000000000EB
:1005100000000000000000000000000000000000DB
:1005200000000000000000000000000000000000CB
:1005300000000000000000000000000000000000BB
:1005400000000000000000000000000000000000AB
:100550000000000000000000000000000E944106B2
:100560008FEF0E94520D80E02596CDBFDEBFDF9158
:10057000CF910895CF93DF93CDB7DEB78091072059
:100580009091082021E130E2232F2F9321E130E2E6
:100590002F93292F2F938F930E9491050F900F90E7
:1005A0000F900F908BE595E00E945F0D80E00E9418
:1005B000520D80910720909108202EE130E2232FE8
:1005C0002F932EE130E22F93292F2F938F930E94A8
:1005D00091050F900F900F900F90DF91CF9108959C
:1005E000CF93DF931F921F92CDB7DEB78A8380919E
:1005F00007209091082020E230E2232F2F9320E261
:1006000030E22F93292F2F938F930E9491050F9003
:100610000F900F900F908A818823A9F48091072072
:100620009091082025E330E2232F2F9325E330E239
:100630002F93292F2F938F930E9491050F900F9046
:100640000F900F901EC019820AC0809107209091D0
:10065000082068E50E942F0589818F5F8983998131
:100660008A81981790F30AC0809107209091082002
:1006700060E20E942F0589818F5F8983898188309C
:1006800098F380910720909108202EE330E2232FE9
:100690002F932EE330E22F93292F2F938F930E94D5
:1006A00091050F900F900F900F900F900F90DF918A
:1006B000CF910895CF93DF93CDB7DEB72997CDBF04
:1006C000DEBF8B839C836D837E834F83588729870E
:1006D00019828B819C810E94B1058A838981882F30
:1006E00090E02D813E81820F931F2A81FC0120839F
:1006F0008981282F30E08F81988501972817390745
:1007000018F489818F5F89839A818985981759F4B4
:100710008981882F90E001972D813E81820F931F60
:10072000FC01108201C0D5CF89812996CDBFDEBFE3
:10073000DF91CF910895CF93DF93CDB7DEB7669762
:10074000CDBFDEBF1092BD201092BE2014C080919C
:10075000BD209091BE209E012F5F3F4F820F931FBF
:10076000FC0110828091BD209091BE200196809363
:10077000BD209093BE208091BD209091BE204697D1
:1007800034F366E170E0CE0101960E94B4018091DD
:1007900007209091082021E430E2232F2F9321E4B9
:1007A00030E22F93292F2F938F930E9491050F9062
:1007B0000F900F900F9080910720909108202AE0D1
:1007C00040E250E0BE016F5F7F4F0E945A0380936A
:1007D000BC208E85882319F48091BC208E8766E129
:1007E00070E0CE0101960E94D30180930020809199
:1007F00000200E94F00280910020882309F0FFCFA2
:1008000080910720909108202DE630E2232F2F932E
:100810002DE630E22F93292F2F938F930E9491057D
:100820000F900F900F900F9020910720309108208B
:10083000CE0101969F938F93832F8F93822F8F9357
:100840000E9491050F900F900F900F906696CDBF6C
:10085000DEBFDF91CF910895CF93DF93CDB7DEB7A1
:1008600080E590E020E530E0F90120812260FC0184
:100870002083000081E590E0FC018081882F90E0DA
:1008800082709927892BB1F388ED84BF81E0809332
:10089000400080E590E020E530E0F90120812E7FE6
:1008A000FC012083DF91CF910895CF93DF93CDB7E3
:1008B000DEB70E942C0480910720909108200E94AE
:1008C0009E040E9424060E94410680910720909178
:1008D00008202BE730E2232F2F932BE730E22F93D2
:1008E000292F2F938F930E9491050F900F900F90B7
:1008F0000F9080E00E94520D0E943B010E94770100
:100900001092BD201092BE208FEF809300200E9495
:100910009B03809107209091082029E930E2232F42
:100920002F9329E930E22F93292F2F938F930E9441
:1009300091050F900F900F900F90DBCFCF93DF9327
:100940001F921F92CDB7DEB789839A8389819A81DE
:10095000FC018281938129813A81F9012581FC0181
:10096000258389819A81FC018281938129813A8141
:10097000F9012581FC01218389819A81FC01828111
:10098000938129813A81F9012481FC01268389819F
:100990009A81FC018281938129813A81F901248124
:1009A000FC01228389819A81FC01808191812981C6
:1009B0003A81F90120813181F9012381FC012383EE
:1009C00089819A81FC018081918129813A81F90193
:1009D00020813181F9012381FC01238389819A815E
:1009E000FC018081918129813A81F9012081318145
:1009F000F9012381FC01238389819A81FC01808193
:100A0000918124E0FC01248389819A81FC01808109
:100A1000918123E0FC01258389819A81FC018081F9
:100A20009181FC01178289819A81FC0180819181E9
:100A300022E2FC01268389819A81FC0180819181D7
:100A400029813A81F90120813181F90124812861CC
:100A5000FC0124830F900F90DF91CF910895CF93E5
:100A6000DF9300D0CDB7DEB789839A836B83000014
:100A700089819A81FC0180819181FC018181882F8B
:100A800090E080729927892B99F389819A81FC01E2
:100A9000808191812B81FC012083000089819A81D2
:100AA000FC0180819181FC0181812396CDBFDEBF55
:100AB000DF91CF910895CF93DF931F92CDB7DEB72B
:100AC0008983809107209091082069810E942F05D9
:100AD0000F90DF91CF910895CF93DF9300D01F92B5
:100AE000CDB7DEB789839A836B837C830EC08B81FD
:100AF0009C81FC01208189819A81622F0E942F05AF
:100B00008B819C8101968B839C838B819C81FC01D2
:100B10008081882361F72496CDBFDEBFDF91CF911E
:100B20000895CF93DF931F921F92CDB7DEB7CE010A
:100B30000C9689839A8329813A818A859B85AC01A9
:100B400068E770E08FEB90E20E94C20D888599857E
:100B50006FEB70E20E946C050F900F90DF91CF91C8
:100B60000895CF93DF931F921F92CDB7DEB789838D
:100B70009A83000089819A81FC0180819181FC0126
:100B800081818823BCF789819A81FC0180819181D0
:100B9000FC0180810F900F90DF91CF910895CF934A
:100BA000DF93CDB7DEB780910720909108200E9497
:100BB000B105DF91CF910895CF93DF93CDB7DEB725
:100BC0002A97CDBFDEBF8C839D836E837F8348874A
:100BD00059872A8719821A828C819D810E94B105CA
:100BE0008B838C819D816B810E942F052E813F819B
:100BF00089819A81820F931F2B81FC012083888534
:100C000099859C012150310989819A818217930726
:100C100028F489819A81019689839A839B818A85A8
:100C2000981749F42E813F8189819A81820F931F01
:100C3000FC01108201C0D0CF89819A812A96CDBF54
:100C4000DEBFDF91CF910895CF93DF93CDB7DEB7AD
:100C500080E296E021E0FC01268380E296E021E03C
:100C6000FC012183DF91CF910895CF93DF93CDB71E
:100C7000DEB780E296E021E0FC012583DF91CF9191
:100C80000895CF93DF93CDB7DEB780E296E021E001
:100C9000FC012683DF91CF910895CF93DF93CDB7E9
:100CA000DEB780E296E021E0FC012783DF91CF915F
:100CB0000895CF93DF93CDB7DEB72897CDBFDEBFC2
:100CC00086E298E1A4E3B1EC80937B2190937C21B0
:100CD000A0937D21B0937E2187E99BEEA8E5BEEA33
:100CE00080937B2190937C21A0937D21B0937E21E2
:100CF0008FEF9BE3A2E2B5E680938321909384215A
:100D0000A0938521B093862182E09FEFA1E0B0E01F
:100D100089839A83AB83BC8389819A81AB81BC81AF
:100D20000BB6ABBFFC0187919791A791B6910BBE13
:100D30008D839E83AF83B8878D819E81AF81B88577
:100D4000AC01BD018BE691E20E94D00881E0809366
:100D500037212896CDBFDEBFDF91CF910895CF9385
:100D6000DF93CDB7DEB780913721882311F40E943D
:100D700059068BE691E20E944F08DC01CB01BC01D1
:100D8000CD01DF91CF910895EF92FF920F931F93C2
:100D9000CF93DF93CDB7DEB72A97CDBFDEBF89876C
:100DA0009A8789859A85FC0184859585A685B7856E
:100DB00089839A83AB83BC8389859A85FC01808172
:100DC0009181A281B3819C01AD015F7789859A856C
:100DD000FC0184819581A681B781282739274A277C
:100DE0005B2789859A85FC0180859185A285B385DD
:100DF00082279327A427B5278D839E83AF83B88747
:100E00008D819E81AF81B885880F991FAA1FBB1F56
:100E10002D813E814F81588582279327A427B527AE
:100E20008D839E83AF83B88789819A81AB81BC8192
:100E30009C01AD0156954795379527958D819E81EB
:100E4000AF81B88582279327A427B52729813A81C6
:100E50004B815C8182279327A427B52789839A83B6
:100E6000AB83BC8389859A85FC0184819581A681A9
:100E7000B78129853A85F90180839183A283B38361
:100E800089859A85FC0180859185A285B385298510
:100E90003A85F90184839583A683B78389819A81F2
:100EA000AB81BC819C01AD01012E1AE0220F331FE2
:100EB000441F551F1A95D1F7102D8D819E81AF814A
:100EC000B88582279327A427B52729853A85F90174
:100ED00080879187A287B38729853A8589819A81FE
:100EE000AB81BC81F90184879587A687B7878985FF
:100EF0009A85FC01248135814681578189819A81B7
:100F0000AB81BC8181709927AA27BB27B095A0959A
:100F1000909581959F4FAF4FBF4F7C018D01898583
:100F20009A85FC0180899189A289B3898E219F21AC
:100F3000A023B12382279327A427B52729853A85A3
:100F4000F90184839583A683B78389859A85FC01FB
:100F5000208531854285538589819A81AB81BC8109
:100F600081709927AA27BB27B095A0959095819568
:100F70009F4FAF4FBF4F7C018D0189859A85FC0142
:100F800084899589A689B7898E219F21A023B123C1
:100F900082279327A427B52729853A85F9018087D9
:100FA0009187A287B3872A96CDBFDEBFDF91CF910D
:100FB0001F910F91FF90EF900895CF93DF93CDB7DE
:100FC000DEB72A97CDBFDEBF89879A8789859A8544
:100FD000FC0184859585A685B78589839A83AB8333
:100FE000BC8389859A85FC012081318142815381AE
:100FF00089859A85FC0180859185A285B385892F95
:101000009A2FAB2FBB27820F931FA41FB51F8D8371
:101010009E83AF83B88729813A814B815C818D8122
:101020009E81AF81B88582279327A427B52789831E
:101030009A83AB83BC838D819E81AF81B88581709B
:101040009927AA27BB27B095A095909581959F4F8A
:10105000AF4FBF4F9C01AD0189859A85FC01808D02
:10106000918DA28DB38D82239323A423B52329814F
:101070003A814B815C8182279327A427B5278983F6
:101080009A83AB83BC8389819A81AB81BC81BC018B
:10109000CD012A96CDBFDEBFDF91CF910895CF93CA
:1010A000DF931F921F92CDB7DEB789839A83898120
:1010B0009A810E94C40689819A810E94DD07DC0121
:1010C000CB01BC01CD010F900F90DF91CF9108951E
:1010D000CF93DF931F921F92CDB7DEB789839A8398
:1010E00089819A81FC0180819181A281B381BF773E
:1010F000892B8A2B8B2B09F04EC089819A81FC01A8
:1011000084819581A681B781892B8A2B8B2B09F04D
:1011100042C089819A81FC0180859185A285B38531
:10112000892B8A2B8B2BB9F589819A81FC018485C7
:101130009585A685B785892B8A2B8B2B61F529810F
:101140003A8184E590E0A0E0B0E0F90180839183EA
:10115000A283B38329813A8189E490E0A0E0B0E0E2
:10116000F90184839583A683B78329813A818EE42C
:1011700090E0A0E0B0E0F90180879187A287B38773
:1011800029813A8189E590E0A0E0B0E0F901848707
:101190009587A687B7870F900F90DF91CF9108951D
:1011A000AF92BF92CF92DF92EF92FF920F931F9375
:1011B000CF93DF93CDB7DEB72C97CDBFDEBF8D8346
:1011C0009E834F83588769877A872D813E818F81DF
:1011D0009885A985BA85F90180839183A283B38319
:1011E0008D819E81FC0180899189A289B3892D819D
:1011F0003E81F90184839583A683B7838D819E8187
:10120000FC0184899589A689B7892D813E81F901E0
:1012100080879187A287B3878D819E81FC01808D15
:10122000918DA28DB38D2D813E81F90184879587A3
:10123000A687B78781E090E089839A8375C089810A
:101240009A81FC01E370FF27EB87FC8789819A81F3
:10125000837099272D813E81880F991F880F991FD0
:10126000820F931FDC01ED90FD900D911C918981FF
:101270009A815C01990FCC08DD0889819A810197D8
:10128000837099272D813E81880F991F880F991FA0
:10129000820F931FFC01208131814281538189811A
:1012A0009A810197837099276D817E81880F991F9C
:1012B000880F991F860F971FFC0180819181A28161
:1012C000B381072E7EE1B695A795979587957A9578
:1012D000D1F7702D82279327A427B5279C01AD0154
:1012E00065E679E887E09CE60E94980DDC01CB0179
:1012F0008A0D9B1DAC1DBD1D8E259F25A027B127E6
:101300004D815E812B853C85220F331F220F331FB9
:10131000240F351FF90180839183A283B3838981D0
:101320009A81019689839A8389819A8108970CF41E
:1013300086CF8D819E810E9468081B821C8209C015
:101340008D819E810E94C4068B819C8101968B8336
:101350009C838B819C8108979CF32C96CDBFDEBF2C
:10136000DF91CF911F910F91FF90EF90DF90CF9081
:10137000BF90AF900895CF93DF93CDB7DEB72C9792
:10138000CDBFDEBF8F83988769877A874B875C875D
:1013900019821A821B821C821D821E8220C08D81AE
:1013A0009E81880F991F880F991F29853A85820F82
:1013B000931FFC0180819181A281B38129813A81AF
:1013C0004B815C8182279327A427B52789839A8341
:1013D000AB83BC838D819E8101968D839E832D81FD
:1013E0003E818B859C8528173907CCF289819A81AB
:1013F000AB81BC812F813885AC01BD01C9010E9440
:10140000D0082C96CDBFDEBFDF91CF910895EF922B
:10141000FF920F931F93CF93DF9300D000D0CDB7EF
:10142000DEB78D839E838D819E81FC012081318179
:10143000428153818D819E81FC0184819581A681A9
:10144000B7817C018D01689414F816950795F7947F
:10145000E7941694D1F7072E7BE1880F991FAA1FF6
:10146000BB1F7A95D1F7702D8E299F29A02BB12B08
:1014700079018A01E81AF90A0A0B1B0BD801C70186
:1014800089839A83AB83BC838D819E81FC012481F7
:101490003581468157818D819E81FC0180859185B2
:1014A000A285B3857C018D010D2EDFE01695079591
:1014B000F794E794DA95D1F7D02D072E71E1880FD4
:1014C000991FAA1FBB1F7A95D1F7702D8E299F29CE
:1014D000A02BB12B82279327A427B5272D813E81EE
:1014E000F90180839183A283B3838D819E81FC0166
:1014F00020853185428553858D819E81FC018485BF
:101500009585A685B785820F931FA41FB51F2D81D2
:101510003E81F90184839583A683B7838D819E8163
:10152000FC01248535854685578589819A81AB8163
:10153000BC81820F931FA41FB51F2D813E81F9012D
:1015400080879187A287B3878D819E81FC0120814E
:1015500031814281538189819A81AB81BC81820F23
:10156000931FA41FB51F2D813E81F90184879587A4
:10157000A687B7878D819E81FC0184859585A68588
:10158000B785BC01CD012696CDBFDEBFDF91CF91DF
:101590001F910F91FF90EF900895CF93DF93CDB7F8
:1015A000DEB72A97CDBFDEBF8D839E834F835887DA
:1015B00069877A878D819E81FC0110821182128257
:1015C00013822D813E818F819885A985BA85F90185
:1015D00084879587A687B7878D819E81FC01848546
:1015E0009585A685B7852D813E81F90180879187F4
:1015F000A287B3878D819E81FC0180859185A2851C
:10160000B3852D813E81F90184839583A683B783B9
:1016100019821A821B821C820FC08D819E810E94BA
:10162000070A89819A81AB81BC810196A11DB11DF8
:1016300089839A83AB83BC8389819A81AB81BC8186
:101640004497A105B10548F32A96CDBFDEBFDF91CF
:10165000CF910895CF93DF931F92CDB7DEB78983E3
:1016600089818A3018F48981805D02C08981895A14
:101670000F90DF91CF910895CF93DF931F92CDB755
:10168000DEB789838981803330F089818A3318F409
:101690008981805313C08981813630F089818736F2
:1016A00018F4898187550AC08981813430F0898195
:1016B000873418F48981875301C080E30F90DF914C
:1016C000CF9108950F931F93CF93DF93CDB7DEB7DC
:1016D0002B97CDBFDEBF81E292E08A839B838A8114
:1016E0009B819C01F90185919591A591B4919F01F0
:1016F0008C839D83AE83BF832A833B838C819D81B2
:10170000AE81BF8188879987AA87BB87888599859D
:10171000AA85BB85AC01BD018BE391E20E94CD0A95
:10172000188619861A861B86198218C08981882F07
:1017300090E0880F991F880F991F8C01055B1E4D43
:101740008BE391E20E94070ADC01CB01F801808360
:101750009183A283B38389818F5F89838981883054
:1017600028F32B96CDBFDEBFDF91CF911F910F9154
:101770000895CF93DF931F92CDB7DEB78983898118
:10178000809338210F90DF91CF910895CF93DF930D
:10179000CDB7DEB72897CDBFDEBF8F8398871A827B
:1017A000198230C08981882F90E080509E4F8B83B2
:1017B0009C838B819C81FC0184918D838D818E83A0
:1017C0008981882F90E0855B9E4DFC0180819E8100
:1017D00089278E838981882F90E02F813885820F19
:1017E000931FFC0190818E819827809138218095EC
:1017F000892B882F90E0982F8A81892B8A83898171
:101800008F5F89838981803268F281E09A81992390
:1018100009F080E02896CDBFDEBFDF91CF9108951B
:101820001F93CF93DF93CDB7DEB72D97CDBFDEBF2C
:101830008C879D871A82198263C08981882F90E0E6
:10184000880F991F80509E4F8B839C838B819C8136
:10185000FC0184918D838D818E838981882F90E016
:10186000880F991F019680509E4F8F8398878F8194
:101870009885FC018491898789858A878981882F49
:1018800090E0880F991F855B9E4DFC0180819E81B1
:1018900089278E838981882F90E0880F991F019670
:1018A000855B9E4DFC0180819A8589278A878E8180
:1018B0000E943C0B882F90E082959295907F98270C
:1018C000807F9827182F8A850E943C0B812B8B875D
:1018D0008981882F90E02C853D85820F931FFC0124
:1018E00090818B859827809138218095892B882F2E
:1018F00090E0982F8A81892B8A8389818F5F8983E1
:101900008981803108F499CF81E09A81992309F087
:1019100080E02D96CDBFDEBFDF91CF911F9108955E
:10192000CF93DF931F92CDB7DEB7898389818093F0
:1019300039210F90DF91CF910895CF93DF93CDB7E9
:10194000DEB72797CDBFDEBF8E839F8319822AC063
:101950008981882F90E080509E4F8A839B838A8163
:101960009B81FC0184918C838C818D838981882F5C
:1019700090E0855B9E4DFC0180819D8189278D8350
:101980008981882F90E02E813F81820F931F2091C3
:101990003921322F30952D81232BFC012083898121
:1019A0008F5F89838981803298F22796CDBFDEBF11
:1019B000DF91CF910895FF920F931F93CF93DF9301
:1019C000CDB7DEB72B97CDBFDEBF8A879B87198245
:1019D0005CC08981882F90E0880F991F80509E4FAE
:1019E0008A839B838A819B81FC0184918C838C8177
:1019F0008D838981882F90E0880F991F01968050F0
:101A00009E4F8E839F838E819F81FC018491888766
:101A1000888589878981882F90E0880F991F855B49
:101A20009E4DFC0180819D8189278D838981882F2E
:101A300090E0880F991F0196855B9E4DFC01808187
:101A40009985892789878981882F90E02A853B8518
:101A50008901080F191F8D810E943C0B882F90E08F
:101A600082959295907F9827807F9827F82E898578
:101A70000E943C0B9F2D982B809139218095892BBA
:101A8000F801808389818F5F89838981803108F49F
:101A9000A0CF2B96CDBFDEBFDF91CF911F910F91CD
:101AA000FF900895CF93DF931F92CDB7DEB7898360
:101AB000898180933A210F90DF91CF910895CF9340
:101AC000DF93CDB7DEB72797CDBFDEBF8E839F8371
:101AD000198225C08981882F90E080509E4F8A838B
:101AE0009B838A819B81FC0184918C838C818D8373
:101AF0008981882F90E0855B9E4DFC0180819D81CE
:101B000089278D8380913A21982F90958D81892BFB
:101B10002E813F81F901199589818F5F89838981A0
:101B20008032C0F22796CDBFDEBFDF91CF910895FE
:101B3000DB018F939F930E94A80DBF91AF91A29F4D
:101B4000800D911DA39F900DB29F900D11240895BB
:101B50000E94B30DA59F900DB49F900DA49F800D82
:101B6000911D11240895A29FB001B39FC001A39FAE
:101B7000700D811D1124911DB29F700D811D1124C6
:101B8000911D08950F931F93CF93DF93CDB7DEB7C9
:101B90002E97CDBFDEBF8C01CA0146E04C8309837E
:101BA0001A8377FF02C060E070E8FB013197ED8394
:101BB000FE83A901BC01CE0101960E94F50D4D8165
:101BC0005E8157FD0AC02F813885421753070CF4F8
:101BD0009A01F801E20FF31F10822E96CDBFDEBFEF
:101BE000DF91CF911F910F9108952F923F924F92C5
:101BF0005F926F927F928F929F92AF92BF92CF929D
:101C0000DF92EF92FF920F931F93CF93DF93CDB7A5
:101C1000DEB72C97CDBFDEBF7C016B018A01FC01D2
:101C200016821782838181FFBDC1CE0101964C01CE
:101C3000F7019381F60193FD859193FF81916F01E7
:101C4000882309F4ABC1853239F493FD859193FF64
:101C500081916F01853229F4B70190E00E94001054
:101C6000E7CF512C312C20E02032A0F48B3269F0E8
:101C700030F4803259F0833269F420612CC08D3207
:101C800039F0803339F4216026C02260246023C0FB
:101C9000286021C027FD27C030ED380F3A3078F496
:101CA00026FF06C0FAE05F9E300D1124532E13C0AC
:101CB0008AE0389E300D1124332E20620CC08E3203
:101CC00021F426FD6BC1206406C08C3611F4206817
:101CD00002C0883641F4F60193FD859193FF81910E
:101CE0006F018111C1CF982F9F7D9554933028F4B7
:101CF0000C5F1F4FFFE3F9830DC0833631F083374C
:101D000071F0833509F05BC022C0F80180818983BE
:101D10000E5F1F4F44244394512C540115C03801C9
:101D2000F2E06F0E711CF801A080B18026FF03C0A5
:101D3000652D70E002C06FEF7FEFC5012C870E9418
:101D4000F50F2C0183012C852F77222E17C0380127
:101D5000F2E06F0E711CF801A080B18026FF03C075
:101D6000652D70E002C06FEF7FEFC5012C870E94E8
:101D7000EA0F2C012C852068222E830123FC1BC036
:101D8000832D90E048165906B0F4B70180E290E048
:101D90000E9400103A94F4CFF50127FC859127FEAC
:101DA00081915F01B70190E00E94001031103A94D8
:101DB000F1E04F1A51084114510471F7E5C084361F
:101DC00011F0893639F5F80127FF07C0608171816C
:101DD000828193810C5F1F4F08C060817181072E43
:101DE000000C880B990B0E5F1F4F2F76722E97FFFA
:101DF00009C090958095709561957F4F8F4F9F4F4B
:101E00002068722E2AE030E0A4010E943810A82E2B
:101E1000A81844C0853729F42F7EB22E2AE030E07E
:101E200025C0F22FF97FBF2E8F36C1F018F4883508
:101E300079F0B4C0803719F0883721F0AFC02F2F68
:101E40002061B22EB4FE0DC08B2D8460B82E09C067
:101E500024FF0AC09F2F9660B92E06C028E030E00C
:101E600005C020E130E002C020E132E0F801B7FE19
:101E700007C060817181828193810C5F1F4F06C012
:101E80006081718180E090E00E5F1F4FA4010E948D
:101E90003810A82EA818FB2DFF777F2E76FE0BC0DA
:101EA000372D3E7FA51450F474FE0AC072FC08C0A2
:101EB000372D3E7E05C0BA2C372D03C0BA2C01C089
:101EC000B52C34FF0DC0FE01EA0DF11D8081803379
:101ED00011F4397E09C032FF06C0B394B39404C034
:101EE000832F867809F0B39433FD13C030FF06C00A
:101EF0005A2CB31418F4530C5B18B32CB31468F4B5
:101F0000B70180E290E03C870E940010B3943C85CA
:101F1000F5CFB31410F43B1801C0312C34FF12C0BC
:101F2000B70180E390E03C870E9400103C8532FFBF
:101F300017C031FD03C088E790E002C088E590E05B
:101F4000B7010CC0832F867859F031FF02C08BE2B5
:101F500001C080E237FD8DE2B70190E00E940010E1
:101F6000A51438F4B70180E390E00E9400105A9461
:101F7000F7CFAA94F401EA0DF11D8081B70190E03A
:101F80000E940010A110F5CF332009F451CEB70103
:101F900080E290E00E9400103A94F6CFF70186812B
:101FA000978102C08FEF9FEF2C96CDBFDEBFDF91F0
:101FB000CF911F910F91FF90EF90DF90CF90BF9046
:101FC000AF909F908F907F906F905F904F903F90D9
:101FD0002F900895FC010590615070400110D8F7D2
:101FE000809590958E0F9F1F0895FC016150704061
:101FF00001900110D8F7809590958E0F9F1F08953E
:102000000F931F93CF93DF93FB01238121FD03C027
:102010008FEF9FEF28C022FF16C046815781248191
:1020200035814217530744F4A081B1819D012F5F90
:102030003F4F208331838C93268137812F5F3F4F21
:102040002683378310C0EB01092F182F0084F185F8
:10205000E02D1995892BE1F68E819F8101968E8363
:102060009F83812F902FDF91CF911F910F91089522
:10207000FA01AA27283051F1203181F1E8946F93B9
:102080006E7F6E5F7F4F8F4F9F4FAF4FB1E03ED05F
:10209000B4E03CD0670F781F891F9A1FA11D680FFD
:1020A000791F8A1F911DA11D6A0F711D811D911D30
:1020B000A11D20D009F468943F912AE0269F1124A5
:1020C0003019305D3193DEF6CF010895462F477009
:1020D000405D4193B3E00FD0C9F7F6CF462F4F7064
:1020E000405D4A3318F0495D31FD4052419302D0C2
:1020F000A9F7EACFB4E0A695979587957795679568
:10210000BA95C9F700976105710508959B01AC0167
:102110000A2E06945795479537952795BA95C9F78E
:10212000620F731F841F951FA01D0895F894FFCFA1
:10213000FFA008400604080120B00960064080099D
:10214000200A596F757220666C61673A20000A0098
:102150000A526567756C61746F722073746174756F
:10216000733A205B00204F4B2020202020005D0A86
:10217000000A576861742066696C746572206C652A
:1021800076656C20646F20796F752077616E74209E
:10219000746F206170706C793F0A3E200046696C54
:1021A000746572206C6576656C20000A434F32209E
:1021B0006C6576656C20726567756C61746F7220F2
:1021C000626F6F7465642E0A00206170706C6965BF
:1021D00064207375636365737366756C6C792E0A1E
:0221E0000000FD
:00000001FF
