:100000000C9438010C945E010C945E010C945E011A
:100010000C945E010C945E010C945E010C945E01E4
:100020000C945E010C945E010C945E010C945E01D4
:100030000C945E010C945E010C945E010C945E01C4
:100040000C945E010C945E010C945E010C945E01B4
:100050000C945E010C945E010C945E010C945E01A4
:100060000C945E010C945E010C945E010C945E0194
:100070000C945E010C945E010C945E010C945E0184
:100080000C945E010C945E010C945E010C945E0174
:100090000C945E010C945E010C945E010C945E0164
:1000A0000C945E010C945E010C945E010C945E0154
:1000B0000C945E010C945E010C945E010C945E0144
:1000C0000C945E010C945E010C945E010C945E0134
:1000D0000C945E010C945E010C945E010C945E0124
:1000E0000C945E010C945E010C945E010C945E0114
:1000F0000C945E010C945E010C945E010C945E0104
:100100000C945E010C945E010C945E010C945E01F3
:100110000C945E010C945E010C945E010C945E01E3
:100120000C945E010C945E010C945E010C945E01D3
:100130000C945E010C945E010C945E010C945E01C3
:100140000C945E010C945E010C945E010C945E01B3
:100150000C945E010C945E010C945E010C945E01A3
:100160000C945E010C945E010C945E010C945E0193
:100170000C945E010C945E010C945E010C945E0183
:100180000C945E010C945E010C945E010C945E0173
:100190000C945E010C945E010C945E010C945E0163
:1001A0000C945E010C945E010C945E010C945E0153
:1001B0000C945E010C945E010C945E010C945E0143
:1001C0000C945E010C945E010C945E010C945E0133
:1001D0000C945E010C945E010C945E010C945E0123
:1001E0000C945E010C945E010C945E010C945E0113
:1001F0000C945E010C945E010C945E01D806DD0641
:10020000E206E706EC06F106F606FB060007050720
:100210000A070C940A070C9446050C94F6060C94F5
:100220001A050C94E2060C94F1060C94EC060C945E
:100230009C050C94D8060C9400070C94DD060C94D5
:10024000FB060C94E7060C94050700000000000074
:10025000000000000000000000000000000000009E
:10026000000000000000000000000000000000008E
:1002700011241FBECFEFCDBFDFE3DEBF00E00CBF18
:1002800018BE19BE1ABE1BBE11E2A0E0B0E2E4E245
:10029000F3E200E00BBF02C007900D92A437B10754
:1002A000D9F71BBE22E2A4E7B1E201C01D92AD3333
:1002B000B207E1F70E9413030C9490110C94000014
:1002C000CF93DF93CDB7DEB780E590E020E530E057
:1002D000F90120812260FC012083000081E590E08B
:1002E000FC018081882F90E082709927892BB1F3DF
:1002F00088ED84BF81E08093400080E590E020E5B8
:1003000030E0F90120812E7FFC012083DF91CF9125
:100310000895CF93DF93CDB7DEB784E096E024E075
:1003200036E0F901308123E02327FC012083DF91AF
:10033000CF910895CF93DF9300D01F92CDB7DEB752
:1003400081E090E08B839C8319821A820E94690766
:10035000DC01CB018B839C8319821A820BC09091A4
:10036000742182E489278093742189819A8101967E
:1003700089839A8329813A818B819C812817390747
:1003800070F32496CDBFDEBFDF91CF910895CF9358
:10039000DF93CDB7DEB72B97CDBFDEBF8E839F83B4
:1003A000688779874A875B878E819F8189839A8353
:1003B000888599858B839C831D821BC00E949A012E
:1003C00089819A819C012F5F3F4F29833A83FC01E9
:1003D00040818B819C819C012F5F3F4F2B833C830D
:1003E000FC0180818427882F90E0982F8D81892BB4
:1003F0008D838A859B859C01215031092A873B8703
:10040000892BE1F681E09D81992309F480E0882F12
:1004100090E02B96CDBFDEBFDF91CF910895CF93B3
:10042000DF93CDB7DEB72B97CDBFDEBF8E839F8323
:10043000688779874A875B878E819F8189839A83C2
:10044000888599858B839C831D8219C089819A81B7
:100450009C012F5F3F4F29833A83FC0140818B81B0
:100460009C819C012F5F3F4F2B833C83FC0180814B
:100470008427882F90E0982F8D81892B8D838A8502
:100480009B859C01215031092A873B87892BF1F6F6
:1004900081E09D81992309F480E0882F90E02B96DC
:1004A000CDBFDEBFDF91CF910895CF93DF931F9231
:1004B0001F92CDB7DEB789839A8389819A81809311
:1004C0000020909301200F900F90DF91CF9108951D
:1004D000CF93DF93CDB7DEB72797CDBFDEBF8B833A
:1004E0009C836D837E834F8319821A822DC08981FC
:1004F0009A812D813E81820F931FFC018081282FDC
:1005000030E089819A81880F991FAC018B819C8191
:10051000840F951F432F4F932F9322E130E2232F17
:100520002F9322E130E22F93292F2F938F930E9454
:10053000920E0F900F900F900F900F900F90898157
:100540009A81019689839A838F81282F30E089814F
:100550009A81821793075CF22796CDBFDEBFDF91A9
:10056000CF910895CF93DF9300D000D0CDB7DEB701
:100570008D839E8319821A828091002090910120A0
:100580009C0136952795369527958091002090916E
:1005900001202827392780910020909101209695ED
:1005A00087959695879596958795282739278091E1
:1005B00000209091012096958795929582958F7055
:1005C00089279F70892782279327817099278B839A
:1005D0009C8380910020909101209C013695279565
:1005E0008B819C819927869597958827822B932BC1
:1005F000809300209093012089819A8101968983BC
:100600009A8329813A818D819E812817390708F4C0
:10061000B3CF80910020909101202696CDBFDEBF00
:10062000DF91CF910895CF93DF93CDB7DEB7CC594B
:10063000D109CDBFDEBF19821A821B821C821D82A6
:100640001E821F8218860E9460018091082090916E
:1006500009200E948904CE018A589F4F0E943206C9
:10066000CE018A589F4F9C012D5F3F4FCE01845A87
:100670009F4F48E050E0B9010E94890ECE01845A94
:100680009F4FFC0110869E01245A3F4FCE018B598B
:100690009F4F48E0B9010E94680287E393E10E94FE
:1006A000550219821A8230C089819A819E01245A8A
:1006B0003F4F820F931FFC01808191818F83988728
:1006C0008EEF9AEC9C01098002C0220F331F0A941E
:1006D000E2F78F819885822793270E94B2028F8349
:1006E000988789819A81880F991F9E01275F3F4FC4
:1006F000820F931F2F813885FC01208331838981EC
:100700009A81019689839A8389819A81089764F2F4
:100710009E01275F3F4FCE01CB9640E1B9010E9479
:100720006802CE01855A9F4FFC0110820E94200C66
:1007300080E096E023E0FC012083CE018F579F4F9D
:100740002EE0FC01322F11923A95E9F7CE018F5736
:100750009F4F22E0FC012383CE018F579F4F2AE158
:1007600035E0FC0120873187CE0181579F4F2EE075
:10077000FC01322F11923A95E9F7CE0181579F4F34
:1007800021E0FC012383CE0181579F4F2CE935E006
:10079000FC012287338780E896E021E0FC0120837A
:1007A00080E09AE021E0FC01208380E09AE021E1F2
:1007B000FC01218380E09AE0FC0110A611A6809143
:1007C00008209091092027E130E2232F2F9327E181
:1007D00030E22F93292F2F938F930E947C050F9047
:1007E0000F900F900F9080910820909109209E010A
:1007F0002B593F4F432F4F932F9327E630E2232F60
:100800002F9327E630E22F93292F2F938F930E9467
:100810007C050F900F900F900F900F900F9080918C
:1008200008209091092024E930E2232F2F9324E916
:1008300030E22F93292F2F938F930E947C050F90E6
:100840000F900F900F908091082090910920BE0189
:10085000665E7F4F2AE041E250E00E94C7050E9499
:100860009A019E01255C3F4FCE014A9640E250E03E
:10087000B9010E94C701892B09F043C00E949A0167
:100880009E01255C3F4FCE014A9640E250E0B901FF
:100890000E94C701892BA9F5809108209091092019
:1008A0002AE031E2232F2F932AE031E22F93292FE0
:1008B0002F938F930E947C050F900F900F900F90B5
:1008C0008FEF0E94100E86E495E00E941D0E80E0DE
:1008D0000E94100E809108209091092021E631E2BB
:1008E000232F2F9321E631E22F93292F2F938F93DC
:1008F0000E947C050F900F900F900F9080E090E089
:1009000001C05DCFC456DF4FCDBFDEBFDF91CF91B9
:100910000895CF93DF931F921F92CDB7DEB78983DF
:100920009A8389819A81FC018281938129813A810C
:10093000F9012581FC01258389819A81FC0182814D
:10094000938129813A81F9012581FC0121838981E3
:100950009A81FC018281938129813A81F901248164
:10096000FC01268389819A81FC01828193812981FE
:100970003A81F9012481FC01228389819A81FC0159
:100980008081918129813A81F90120813181F901A8
:100990002381FC01238389819A81FC0180819181DB
:1009A00029813A81F90120813181F9012381FC01FA
:1009B000238389819A81FC018081918129813A81F7
:1009C000F90120813181F9012381FC01238389818F
:1009D0009A81FC018081918124E0FC01248389813A
:1009E0009A81FC018081918123E0FC01258389812A
:1009F0009A81FC0180819181FC01178289819A8111
:100A0000FC018081918122E2FC01268389819A8107
:100A1000FC018081918129813A81F9012081318114
:100A2000F90124812861FC0124830F900F90DF914C
:100A3000CF910895CF93DF9300D0CDB7DEB78983F0
:100A40009A836B83000089819A81FC018081918166
:100A5000FC018181882F90E080729927892B99F37E
:100A600089819A81FC01808191812B81FC01208305
:100A7000000089819A81FC0180819181FC01818142
:100A80002396CDBFDEBFDF91CF910895CF93DF9343
:100A90001F92CDB7DEB789838091082090910920FD
:100AA00069810E941A050F90DF91CF910895CF932D
:100AB000DF9300D01F92CDB7DEB789839A836B8313
:100AC0007C830EC08B819C81FC01208189819A816D
:100AD000622F0E941A058B819C8101968B839C83D7
:100AE0008B819C81FC018081882361F72496CDBF96
:100AF000DEBFDF91CF910895CF93DF931F921F92B6
:100B0000CDB7DEB7CE010C9689839A8329813A81CD
:100B10008A859B85AC0168E770E085E791E20E94D9
:100B2000BC0E8885998565E771E20E9457050F9094
:100B30000F90DF91CF910895CF93DF931F921F9273
:100B4000CDB7DEB789839A83000089819A81FC0141
:100B500080819181FC0181818823BCF789819A8100
:100B6000FC0180819181FC0180810F900F90DF91C9
:100B7000CF910895CF93DF93CDB7DEB78091082052
:100B8000909109200E949C05DF91CF910895CF9309
:100B9000DF93CDB7DEB72A97CDBFDEBF8C839D83B1
:100BA0006E837F83488759872A8719821A828C81AE
:100BB0009D810E949C058B838C819D816B810E940D
:100BC0001A052E813F8189819A81820F931F2B8183
:100BD000FC012083888599859C01215031098981F8
:100BE0009A818217930728F489819A8101968983D3
:100BF0009A839B818A85981749F42E813F81898148
:100C00009A81820F931FFC01108201C0D0CF89818D
:100C10009A812A96CDBFDEBFDF91CF910895CF9301
:100C2000DF9300D000D0CDB7DEB78D839E838AECF2
:100C300091E022E0FC0120838D819E8189839A834B
:100C400089819A81FC0184918B838B818C838AECCE
:100C500091E0FC0110828C812696CDBFDEBFDF9132
:100C6000CF9108950F931F93CF93DF931F921F92FD
:100C7000CDB7DEB789839A8388E090E00E940F06A3
:100C8000282F89819A81FC01208389819A818C0196
:100C90000F5F1F4F89E090E00E940F06F8018083EC
:100CA00089819A818C010E5F1F4F8AE090E00E943B
:100CB0000F06F801808389819A818C010D5F1F4F97
:100CC0008BE090E00E940F06F801808389819A8171
:100CD0008C010C5F1F4F8CE090E00E940F06F80122
:100CE000808389819A818C010B5F1F4F8DE090E09A
:100CF0000E940F06F801808389819A818C010A5F26
:100D00001F4F80E190E00E940F06F80180838981E7
:100D10009A818C01095F1F4F82E190E00E940F06CB
:100D2000F801808389819A818C01085F1F4F83E1DC
:100D300090E00E940F06F801808389819A818C01DE
:100D4000075F1F4F84E190E00E940F06F801808347
:100D500089819A818C01065F1F4F85E190E00E9496
:100D60000F06F80180830F900F90DF91CF911F91B4
:100D70000F910895CF93DF931F92CDB7DEB789838C
:100D80008981882F90E0092E000CAA0BBB0B40E054
:100D900050E02AE030E0841B950B2817390708F44F
:100DA0003EC0FC018827E250FF4F8F4F0C94660E27
:100DB00088E090E00E940F0632C089E090E00E9437
:100DC0000F062DC08AE090E00E940F0628C08BE03D
:100DD00090E00E940F0623C08CE090E00E940F0676
:100DE0001EC08DE090E00E940F0619C080E190E0E7
:100DF0000E940F0614C082E190E00E940F060FC00F
:100E000083E190E00E940F060AC084E190E00E9416
:100E10000F0605C085E190E00E940F0600C00F900C
:100E2000DF91CF910895CF93DF93CDB7DEB72897A9
:100E3000CDBFDEBF86E298E1A4E3B1EC809331221E
:100E400090933222A0933322B093342287E99BEE11
:100E5000A8E5BEEA8093312290933222A0933322F8
:100E6000B09334228FEF9BE3A2E2B5E68093392260
:100E700090933A22A0933B22B0933C2282E09FEFD2
:100E8000A1E0B0E089839A83AB83BC8389819A8196
:100E9000AB81BC810BB6ABBFFC0187919791A79149
:100EA000B6910BBE8D839E83AF83B8878D819E8163
:100EB000AF81B885AC01BD0181E292E20E948A094E
:100EC00081E08093ED212896CDBFDEBFDF91CF91E9
:100ED0000895CF93DF93CDB7DEB78091ED218823BE
:100EE00011F40E94130781E292E20E940909DC01D9
:100EF000CB01BC01CD01DF91CF910895EF92FF921C
:100F00000F931F93CF93DF93CDB7DEB72A97CDBF53
:100F1000DEBF89879A8789859A85FC0184859585B6
:100F2000A685B78589839A83AB83BC8389859A8597
:100F3000FC0180819181A281B3819C01AD015F7729
:100F400089859A85FC0184819581A681B7812827AE
:100F500039274A275B2789859A85FC0180859185F9
:100F6000A285B38582279327A427B5278D839E83E7
:100F7000AF83B8878D819E81AF81B885880F991F17
:100F8000AA1FBB1F2D813E814F8158858227932741
:100F9000A427B5278D839E83AF83B88789819A81E3
:100FA000AB81BC819C01AD0156954795379527953E
:100FB0008D819E81AF81B88582279327A427B5278D
:100FC00029813A814B815C8182279327A427B52709
:100FD00089839A83AB83BC8389859A85FC0184814C
:100FE0009581A681B78129853A85F901808391830E
:100FF000A283B38389859A85FC0180859185A2852A
:10100000B38529853A85F90184839583A683B783BF
:1010100089819A81AB81BC819C01AD01012E1AE0CE
:10102000220F331F441F551F1A95D1F7102D8D81A4
:101030009E81AF81B88582279327A427B52729856C
:101040003A85F90180879187A287B38729853A85F8
:1010500089819A81AB81BC81F90184879587A687B4
:10106000B78789859A85FC0124813581468157811E
:1010700089819A81AB81BC8181709927AA27BB277E
:10108000B095A095909581959F4FAF4FBF4F7C0134
:101090008D0189859A85FC0180899189A289B3890E
:1010A0008E219F21A023B12382279327A427B52730
:1010B00029853A85F90184839583A683B783898539
:1010C0009A85FC01208531854285538589819A81E5
:1010D000AB81BC8181709927AA27BB27B095A095C9
:1010E000909581959F4FAF4FBF4F7C018D018985B2
:1010F0009A85FC0184899589A689B7898E219F21CB
:10110000A023B12382279327A427B52729853A85D1
:10111000F90180879187A287B3872A96CDBFDEBF6A
:10112000DF91CF911F910F91FF90EF900895CF9392
:10113000DF93CDB7DEB72A97CDBFDEBF89879A8709
:1011400089859A85FC0184859585A685B7858983DF
:101150009A83AB83BC8389859A85FC012081318188
:101160004281538189859A85FC0180859185A2857C
:10117000B385892F9A2FAB2FBB27820F931FA41FF4
:10118000B51F8D839E83AF83B88729813A814B81B8
:101190005C818D819E81AF81B88582279327A427AA
:1011A000B52789839A83AB83BC838D819E81AF8170
:1011B000B88581709927AA27BB27B095A0959095EF
:1011C00081959F4FAF4FBF4F9C01AD0189859A8597
:1011D000FC01808D918DA28DB38D82239323A42356
:1011E000B52329813A814B815C8182279327A427EB
:1011F000B52789839A83AB83BC8389819A81AB812C
:10120000BC81BC01CD012A96CDBFDEBFDF91CF915D
:101210000895CF93DF931F921F92CDB7DEB78983D6
:101220009A8389819A810E947E0789819A810E948E
:101230009708DC01CB01BC01CD010F900F90DF912D
:10124000CF910895CF93DF931F921F92CDB7DEB752
:1012500089839A8389819A81FC0180819181A2810D
:10126000B381BF77892B8A2B8B2B09F04EC08981E4
:101270009A81FC0184819581A681B781892B8A2B73
:101280008B2B09F042C089819A81FC018085918570
:10129000A285B385892B8A2B8B2BB9F589819A81FD
:1012A000FC0184859585A685B785892B8A2B8B2B98
:1012B00061F529813A8184E590E0A0E0B0E0F90190
:1012C00080839183A283B38329813A8189E490E06A
:1012D000A0E0B0E0F90184839583A683B7832981D8
:1012E0003A818EE490E0A0E0B0E0F9018087918738
:1012F000A287B38729813A8189E590E0A0E0B0E038
:10130000F90184879587A687B7870F900F90DF91A3
:10131000CF910895AF92BF92CF92DF92EF92FF925A
:101320000F931F93CF93DF93CDB7DEB72C97CDBF2D
:10133000DEBF8D839E834F83588769877A872D818F
:101340003E818F819885A985BA85F9018083918333
:10135000A283B3838D819E81FC0180899189A289BA
:10136000B3892D813E81F90184839583A683B78358
:101370008D819E81FC0184899589A689B7892D81FB
:101380003E81F90180879187A287B3878D819E81F5
:10139000FC01808D918DA28DB38D2D813E81F9014F
:1013A00084879587A687B78781E090E089839A83B1
:1013B00075C089819A81FC01E370FF27EB87FC8768
:1013C00089819A81837099272D813E81880F991F89
:1013D000880F991F820F931FDC01ED90FD900D91F6
:1013E0001C9189819A815C01990FCC08DD08898163
:1013F0009A810197837099272D813E81880F991FCB
:10140000880F991F820F931FFC0120813181428137
:10141000538189819A810197837099276D817E819B
:10142000880F991F880F991F860F971FFC018081D5
:101430009181A281B381072E7EE1B695A7959795FC
:1014400087957A95D1F7702D82279327A427B52702
:101450009C01AD0165E679E887E09CE60E94560EA6
:10146000DC01CB018A0D9B1DAC1DBD1D8E259F256A
:10147000A027B1274D815E812B853C85220F331F2C
:10148000220F331F240F351FF90180839183A2831C
:10149000B38389819A81019689839A8389819A810C
:1014A00008970CF486CF8D819E810E9422091B82B1
:1014B0001C8209C08D819E810E947E078B819C8148
:1014C00001968B839C838B819C8108979CF32C963F
:1014D000CDBFDEBFDF91CF911F910F91FF90EF90B5
:1014E000DF90CF90BF90AF900895CF93DF93CDB7AB
:1014F000DEB72C97CDBFDEBF8F83988769877A8749
:101500004B875C8719821A821B821C821D821E8275
:1015100020C08D819E81880F991F880F991F298572
:101520003A85820F931FFC0180819181A281B38152
:1015300029813A814B815C8182279327A427B52793
:1015400089839A83AB83BC838D819E8101968D8331
:101550009E832D813E818B859C8528173907CCF28F
:1015600089819A81AB81BC812F813885AC01BD0115
:10157000C9010E948A092C96CDBFDEBFDF91CF91B1
:101580000895EF92FF920F931F93CF93DF9300D0B4
:1015900000D0CDB7DEB78D839E838D819E81FC0107
:1015A00020813181428153818D819E81FC01848122
:1015B0009581A681B7817C018D01689414F81695F8
:1015C0000795F794E7941694D1F7072E7BE1880FDF
:1015D000991FAA1FBB1F7A95D1F7702D8E299F29BD
:1015E000A02BB12B79018A01E81AF90A0A0B1B0B0F
:1015F000D801C70189839A83AB83BC838D819E8187
:10160000FC0124813581468157818D819E81FC01B9
:1016100080859185A285B3857C018D010D2EDFE04B
:1016200016950795F794E794DA95D1F7D02D072E04
:1016300071E1880F991FAA1FBB1F7A95D1F7702DF2
:101640008E299F29A02BB12B82279327A427B5276A
:101650002D813E81F90180839183A283B3838D81A3
:101660009E81FC0120853185428553858D819E8137
:10167000FC0184859585A685B785820F931FA41FDD
:10168000B51F2D813E81F90184839583A683B7839D
:101690008D819E81FC01248535854685578589810C
:1016A0009A81AB81BC81820F931FA41FB51F2D812E
:1016B0003E81F90180879187A287B3878D819E81C2
:1016C000FC01208131814281538189819A81AB81E2
:1016D000BC81820F931FA41FB51F2D813E81F9018C
:1016E00084879587A687B7878D819E81FC01848535
:1016F0009585A685B785BC01CD012696CDBFDEBFF9
:10170000DF91CF911F910F91FF90EF900895CF93AC
:10171000DF93CDB7DEB72A97CDBFDEBF8D839E8323
:101720004F83588769877A872D813E818FE294EABB
:10173000A2ECB4E8F90180839183A283B3832D8165
:101740003E818F819885A985BA85F901848795871F
:10175000A687B7878D819E81FC0184859585A685A6
:10176000B7852D813E81F90180879187A287B38754
:101770008D819E81FC0180859185A285B3852D8117
:101780003E81F90184839583A683B78319821A82E7
:101790001B821C820FC08D819E810E94C10A89819B
:1017A0009A81AB81BC810196A11DB11D89839A8369
:1017B000AB83BC8389819A81AB81BC814497A105AD
:1017C000B10548F32A96CDBFDEBFDF91CF910895D2
:1017D000CF93DF931F92CDB7DEB7898389818A309B
:1017E00018F48981805D02C08981895A0F90DF9148
:1017F000CF910895CF93DF931F92CDB7DEB7898342
:101800008981803330F089818A3318F4898180534B
:1018100013C08981813630F08981873618F4898137
:1018200087550AC08981813430F08981873418F462
:101830008981875301C080E30F90DF91CF91089594
:101840000F931F93CF93DF93CDB7DEB72B97CDBF09
:10185000DEBF8BE692E08A839B838A819B819C0119
:10186000F90185919591A591B4919F018C839D83F8
:10187000AE83BF832A833B838C819D81AE81BF81F0
:1018800088879987AA87BB8788859985AA85BB851C
:10189000AC01BD0181EF91E20E94870B1886198689
:1018A0001A861B86198218C08981882F90E0880FBC
:1018B000991F880F991F8C010F5F1D4D81EF91E2D9
:1018C0000E94C10ADC01CB01F80180839183A283CD
:1018D000B38389818F5F89838981883028F32B9630
:1018E000CDBFDEBFDF91CF911F910F910895CF93B0
:1018F000DF931F92CDB7DEB7898389818093EE2174
:101900000F90DF91CF910895CF93DF93CDB7DEB7DE
:101910002897CDBFDEBF8F8398871A82198230C087
:101920008981882F90E0865B9D4F8B839C838B8180
:101930009C81FC0184918D838D818E838981882F88
:1019400090E08F5F9D4DFC0180819E8189278E8371
:101950008981882F90E02F813885820F931FFC01A9
:1019600090818E8198278091EE218095892B882FF8
:1019700090E0982F8A81892B8A8389818F5F898360
:101980008981803268F281E09A81992309F080E0B0
:101990002896CDBFDEBFDF91CF9108951F93CF93DF
:1019A000DF93CDB7DEB72D97CDBFDEBF8C879D8788
:1019B0001A82198263C08981882F90E0880F991F4D
:1019C000865B9D4F8B839C838B819C81FC018491E2
:1019D0008D838D818E838981882F90E0880F991F58
:1019E0000196865B9D4F8F8398878F819885FC0138
:1019F0008491898789858A878981882F90E0880FDB
:101A0000991F8F5F9D4DFC0180819E8189278E8368
:101A10008981882F90E0880F991F01968F5F9D4DD7
:101A2000FC0180819A8589278A878E810E94FA0B22
:101A3000882F90E082959295907F9827807F9827B5
:101A4000182F8A850E94FA0B812B8B878981882F1A
:101A500090E02C853D85820F931FFC0190818B8542
:101A600098278091EE218095892B882F90E0982FE0
:101A70008A81892B8A8389818F5F898389818031DB
:101A800008F499CF81E09A81992309F080E02D969E
:101A9000CDBFDEBFDF91CF911F910895CF93DF932C
:101AA0001F92CDB7DEB7898389818093EF210F9094
:101AB000DF91CF910895CF93DF93CDB7DEB727970E
:101AC000CDBFDEBF8E839F8319822AC08981882F74
:101AD00090E0865B9D4F8A839B838A819B81FC017A
:101AE00084918C838C818D838981882F90E08F5F96
:101AF0009D4DFC0180819D8189278D838981882F5F
:101B000090E02E813F81820F931F2091EF21322F91
:101B100030952D81232BFC01208389818F5F898360
:101B20008981803298F22796CDBFDEBFDF91CF91B9
:101B30000895FF920F931F93CF93DF93CDB7DEB736
:101B40002B97CDBFDEBF8A879B8719825CC08981B6
:101B5000882F90E0880F991F865B9D4F8A839B8317
:101B60008A819B81FC0184918C838C818D83898106
:101B7000882F90E0880F991F0196865B9D4F8E837A
:101B80009F838E819F81FC018491888788858987C6
:101B90008981882F90E0880F991F8F5F9D4DFC01F0
:101BA00080819D8189278D838981882F90E0880F8E
:101BB000991F01968F5F9D4DFC0180819985892732
:101BC00089878981882F90E02A853B858901080FC4
:101BD000191F8D810E94FA0B882F90E082959295B3
:101BE000907F9827807F9827F82E89850E94FA0B8E
:101BF0009F2D982B8091EF218095892BF801808370
:101C000089818F5F89838981803108F4A0CF2B96E9
:101C1000CDBFDEBFDF91CF911F910F91FF9008954F
:101C2000CF93DF931F92CDB7DEB7898389818093ED
:101C3000F0210F90DF91CF910895CF93DF93CDB72F
:101C4000DEB72797CDBFDEBF8E839F83198225C065
:101C50008981882F90E0865B9D4F8A839B838A8150
:101C60009B81FC0184918C838C818D838981882F59
:101C700090E08F5F9D4DFC0180819D8189278D8340
:101C80008091F021982F90958D81892B2E813F8115
:101C9000F901199589818F5F898389818032C0F22A
:101CA0002796CDBFDEBFDF91CF910895DB018F93E3
:101CB0009F930E946F0EBF91AF91A29F800D911DC7
:101CC000A39F900DB29F900D11240895EE0FFF1F5A
:101CD000881F8BBF0790F691E02D1BBE19940E94C0
:101CE0007A0EA59F900DB49F900DA49F800D911D1D
:101CF00011240895A29FB001B39FC001A39F700D4E
:101D0000811D1124911DB29F700D811D1124911D03
:101D10000895FB01DC0102C001900D92415050403A
:101D2000D8F708950F931F93CF93DF93CDB7DEB706
:101D30002E97CDBFDEBF0E891F8986E08C83098375
:101D40001A838FEF9FE78D839E83AE01465E5F4FC0
:101D5000688D798DCE0101960E94EF0E2F81388516
:101D6000F801E20FF31F10822E96CDBFDEBFDF9188
:101D7000CF911F910F9108950F931F93CF93DF93EE
:101D8000CDB7DEB72E97CDBFDEBF8C01CA0146E0CE
:101D90004C8309831A8377FF02C060E070E8FB017F
:101DA0003197ED83FE83A901BC01CE0101960E940B
:101DB000EF0E4D815E8157FD0AC02F813885421795
:101DC00053070CF49A01F801E20FF31F10822E96CC
:101DD000CDBFDEBFDF91CF911F910F9108952F925C
:101DE0003F924F925F926F927F928F929F92AF92AB
:101DF000BF92CF92DF92EF92FF920F931F93CF93F8
:101E0000DF93CDB7DEB72C97CDBFDEBF7C016B0172
:101E10008A01FC0116821782838181FFBDC1CE0138
:101E200001964C01F7019381F60193FD859193FF93
:101E300081916F01882309F4ABC1853239F493FD98
:101E4000859193FF81916F01853229F4B70190E06C
:101E50000E94FA10E7CF512C312C20E02032A0F460
:101E60008B3269F030F4803259F0833269F42061AA
:101E70002CC08D3239F0803339F4216026C02260C5
:101E8000246023C0286021C027FD27C030ED380F13
:101E90003A3078F426FF06C0FAE05F9E300D112438
:101EA000532E13C08AE0389E300D1124332E206249
:101EB0000CC08E3221F426FD6BC1206406C08C3626
:101EC00011F4206802C0883641F4F60193FD859133
:101ED00093FF81916F018111C1CF982F9F7D955400
:101EE000933028F40C5F1F4FFFE3F9830DC0833656
:101EF00031F0833771F0833509F05BC022C0F801FF
:101F0000808189830E5F1F4F44244394512C5401D8
:101F100015C03801F2E06F0E711CF801A080B1808D
:101F200026FF03C0652D70E002C06FEF7FEFC50193
:101F30002C870E94EF102C0183012C852F77222EF5
:101F400017C03801F2E06F0E711CF801A080B1805B
:101F500026FF03C0652D70E002C06FEF7FEFC50163
:101F60002C870E94E4102C012C852068222E8301EE
:101F700023FC1BC0832D90E048165906B0F4B7012E
:101F800080E290E00E94FA103A94F4CFF50127FC29
:101F9000859127FE81915F01B70190E00E94FA10C0
:101FA00031103A94F1E04F1A51084114510471F77D
:101FB000E5C0843611F0893639F5F80127FF07C0EE
:101FC00060817181828193810C5F1F4F08C06081A5
:101FD0007181072E000C880B990B0E5F1F4F2F7617
:101FE000722E97FF09C090958095709561957F4FEF
:101FF0008F4F9F4F2068722E2AE030E0A4010E948C
:102000003211A82EA81844C0853729F42F7EB22E8D
:102010002AE030E025C0F22FF97FBF2E8F36C1F0C5
:1020200018F4883579F0B4C0803719F0883721F07A
:10203000AFC02F2F2061B22EB4FE0DC08B2D846057
:10204000B82E09C024FF0AC09F2F9660B92E06C083
:1020500028E030E005C020E130E002C020E132E0BD
:10206000F801B7FE07C060817181828193810C5FA6
:102070001F4F06C06081718180E090E00E5F1F4FAE
:10208000A4010E943211A82EA818FB2DFF777F2EE5
:1020900076FE0BC0372D3E7FA51450F474FE0AC0A7
:1020A00072FC08C0372D3E7E05C0BA2C372D03C008
:1020B000BA2C01C0B52C34FF0DC0FE01EA0DF11D94
:1020C0008081803311F4397E09C032FF06C0B39499
:1020D000B39404C0832F867809F0B39433FD13C002
:1020E00030FF06C05A2CB31418F4530C5B18B32CF1
:1020F000B31468F4B70180E290E03C870E94FA10C4
:10210000B3943C85F5CFB31410F43B1801C0312CC7
:1021100034FF12C0B70180E390E03C870E94FA10C0
:102120003C8532FF17C031FD03C088E790E002C054
:1021300088E590E0B7010CC0832F867859F031FF15
:1021400002C08BE201C080E237FD8DE2B70190E072
:102150000E94FA10A51438F4B70180E390E00E94C1
:10216000FA105A94F7CFAA94F401EA0DF11D808178
:10217000B70190E00E94FA10A110F5CF332009F4C6
:1021800051CEB70180E290E00E94FA103A94F6CF67
:10219000F7018681978102C08FEF9FEF2C96CDBF0C
:1021A000DEBFDF91CF911F910F91FF90EF90DF90F5
:1021B000CF90BF90AF909F908F907F906F905F90E7
:1021C0004F903F902F900895FC0105906150704012
:1021D0000110D8F7809590958E0F9F1F0895FC01F0
:1021E0006150704001900110D8F7809590958E0F46
:1021F0009F1F08950F931F93CF93DF93FB012381BC
:1022000021FD03C08FEF9FEF28C022FF16C046813B
:102210005781248135814217530744F4A081B1814D
:102220009D012F5F3F4F208331838C93268137811F
:102230002F5F3F4F2683378310C0EB01092F182FE4
:102240000084F185E02D1995892BE1F68E819F811F
:1022500001968E839F83812F902FDF91CF911F91C5
:102260000F910895FA01AA27283051F1203181F108
:10227000E8946F936E7F6E5F7F4F8F4F9F4FAF4F8E
:10228000B1E03ED0B4E03CD0670F781F891F9A1FA1
:10229000A11D680F791F8A1F911DA11D6A0F711D55
:1022A000811D911DA11D20D009F468943F912AE061
:1022B000269F11243019305D3193DEF6CF01089549
:1022C000462F4770405D4193B3E00FD0C9F7F6CF7A
:1022D000462F4F70405D4A3318F0495D31FD405242
:1022E000419302D0A9F7EACFB4E0A69597958795D8
:1022F00077956795BA95C9F70097610571050895B7
:102300009B01AC010A2E0694579547953795279562
:10231000BA95C9F7620F731F841F951FA01D0895FA
:04232000F894FFCF5F
:10232400FECAA008400604080220B00960064080E6
:102334000A2025303258000A0A596F7572206361E9
:10234400722069732074616B656E20686F737461A9
:10235400676520627920524556454E414E54544F8C
:1023640041442072616E736F6D776172652076658A
:102374007273696F6E2044454255475F61346661EC
:10238400653836632E0A00546F2067657420796FB0
:10239400757220636172206261636B2C2073656EB9
:1023A4006420796F757220757365722049443A0A06
:1023B40025730A000A616E64202431333337207494
:1023C4006F2074686520666F6C6C6F77696E672028
:1023D40072686D6533636F696E20616464726573DE
:1023E400733A200A5B43454E534F5245445D2E0ACF
:1023F4000A416C726561647920706169643F20549C
:1024040068656E20656E74657220746865207265F7
:1024140063656976656420756E6C6F636B20636FAA
:10242400646520686572653A0A00497420776173AF
:10243400206120706C65617375726520646F696ECC
:102444006720627573696E65737320776974682099
:10245400796F752E0A596F757220636172206973E2
:10246400206E6F7720756E6C6F636B65642E0A48FF
:10247400657265206973206120626F6E75733A0A14
:10248400000A486176652061206E69636520646195
:0424940079210A00A0
:00000001FF
