:100000000C942C010C9452010C9452010C9452014A
:100010000C9452010C9452010C9452010C94520114
:100020000C9452010C9452010C9452010C94520104
:100030000C9452010C9452010C945C190C945201D2
:100040000C9452010C9452010C9452010C945201E4
:100050000C9452010C9452010C9452010C945201D4
:100060000C9452010C9452010C9452010C945201C4
:100070000C9452010C9452010C9452010C945201B4
:100080000C9452010C9452010C9452010C945201A4
:100090000C9452010C9452010C9452010C94520194
:1000A0000C9452010C9452010C9452010C94E218DD
:1000B0000C941F190C9452010C9452010C9452018F
:1000C0000C9452010C9452010C9452010C94520164
:1000D0000C9452010C9452010C9452010C94520154
:1000E0000C9452010C9452010C9452010C94520144
:1000F0000C9452010C9452010C9452010C94520134
:100100000C9452010C9452010C9452010C94520123
:100110000C9452010C9452010C9452010C94520113
:100120000C9452010C9452010C9452010C94520103
:100130000C9452010C9452010C9452010C945201F3
:100140000C9452010C9452010C9452010C945201E3
:100150000C9452010C9452010C9452010C945201D3
:100160000C9452010C9452010C9452010C945201C3
:100170000C9452010C9452010C9452010C945201B3
:100180000C9452010C9452010C9452010C945201A3
:100190000C9452010C9452010C9452010C94520193
:1001A0000C9452010C9452010C9452010C94520183
:1001B0000C9452010C9452010C9452010C94520173
:1001C0000C9452010C9452010C9452010C94520163
:1001D0000C9452010C9452010C9452010C94520153
:1001E0000C9452010C9452010C9452010C94520143
:1001F0000C9452010C9452010C9452011C1B4B1B89
:10020000571B631B6F1B761B821B841B8E1B0C945E
:100210001C1B0C948E1B0C94761B0C94821B0C9450
:10022000841B0C94571B0C946F1B0C94631B0C9435
:100230004B1BF1B896993CBE1FBB01545DE698BAC2
:1002400092F676BEAC2A81D68C7018FB534F92DDA5
:1002500073F50058E89D610011241FBECFEFCDBF9C
:10026000DFE3DEBF00E00CBF18BE19BE1ABE1BBE26
:1002700011E2A0E0B0E2E3EDFFE300E00BBF02C05B
:1002800007900D92A634B107D9F71BBE22E2A6E46F
:10029000B1E201C01D92A334B207E1F70E94031A34
:1002A0000C94AE1F0C940000EF92FF920F931F93DB
:1002B000CF93DF9300D000D0CDB7DEB78D839E8380
:1002C0008D819E81FC0120813181428153818D810C
:1002D0009E81FC0184819581A681B7817C018D017D
:1002E000689414F816950795F794E7941694D1F747
:1002F000072E7BE1880F991FAA1FBB1F7A95D1F7A4
:10030000702D8E299F29A02BB12B79018A01E81A23
:10031000F90A0A0B1B0BD801C70189839A83AB83A7
:10032000BC838D819E81FC0124813581468157816A
:100330008D819E81FC0180859185A285B3857C019C
:100340008D010D2EDFE016950795F794E794DA9569
:10035000D1F7D02D072E71E1880F991FAA1FBB1F5F
:100360007A95D1F7702D8E299F29A02BB12B82274A
:100370009327A427B5272D813E81F901808391839E
:10038000A283B3838D819E81FC01208531854285C6
:1003900053858D819E81FC0184859585A685B785D1
:1003A000820F931FA41FB51F2D813E81F901848305
:1003B0009583A683B7838D819E81FC012485358535
:1003C0004685578589819A81AB81BC81820F931FB5
:1003D000A41FB51F2D813E81F90180879187A287D7
:1003E000B3878D819E81FC012081318142815381BF
:1003F00089819A81AB81BC81820F931FA41FB51F95
:100400002D813E81F90184879587A687B7878D81E5
:100410009E81FC0184859585A685B785BC01CD01AB
:100420002696CDBFDEBFDF91CF911F910F91FF9038
:10043000EF900895CF93DF93CDB7DEB72A97CDBF66
:10044000DEBF8D839E834F83588769877A872D818E
:100450003E818DEE9EE5AAEEB1EFF9018083918396
:10046000A283B3832D813E818F819885A985BA852A
:10047000F90184879587A687B7878D819E81FC01C6
:1004800084859585A685B7852D813E81F901808774
:100490009187A287B3878D819E81FC01808591859C
:1004A000A285B3852D813E81F90184839583A6833E
:1004B000B78319821A821B821C820FC08D819E8194
:1004C0000E94540189819A81AB81BC810196A11D52
:1004D000B11D89839A83AB83BC8389819A81AB8167
:1004E000BC814497A105B10548F32A96CDBFDEBF74
:1004F000DF91CF910895CF93DF931F92CDB7DEB7F1
:10050000898389818A3018F48981805D02C089815C
:10051000895A0F90DF91CF910895CF93DF931F9267
:10052000CDB7DEB789838981803330F089818A3302
:1005300018F48981805313C08981813630F0898114
:10054000873618F4898187550AC08981813430F053
:100550008981873418F48981875301C080E30F9023
:10056000DF91CF9108950F931F93CF93DF93CDB772
:10057000DEB72B97CDBFDEBF83E592E08A839B83F6
:100580008A819B819C01F90185919591A591B491F6
:100590009F018C839D83AE83BF832A833B838C81A1
:1005A0009D81AE81BF8188879987AA87BB8788850F
:1005B0009985AA85BB85AC01BD0189E491E20E94C1
:1005C0001A02188619861A861B86198218C0898114
:1005D000882F90E0880F991F880F991F8C01075A68
:1005E0001E4D89E491E20E945401DC01CB01F80127
:1005F00080839183A283B38389818F5F898389817B
:10060000883028F32B96CDBFDEBFDF91CF911F91AD
:100610000F910895CF93DF931F92CDB7DEB78983F3
:100620008981809346210F90DF91CF910895CF93D8
:10063000DF93CDB7DEB72897CDBFDEBF8F83988716
:100640001A82198230C08981882F90E08E5C9D4F7C
:100650008B839C838B819C81FC0184918D838D8114
:100660008E838981882F90E0875A9E4DFC0180817E
:100670009E8189278E838981882F90E02F813885FC
:10068000820F931FFC0190818E81982780914621D3
:100690008095892B882F90E0982F8A81892B8A83D7
:1006A00089818F5F89838981803268F281E09A81B4
:1006B000992309F080E02896CDBFDEBFDF91CF916E
:1006C00008951F93CF93DF93CDB7DEB72D97CDBF9E
:1006D000DEBF8C879D871A82198263C08981882F2B
:1006E00090E0880F991F8E5C9D4F8B839C838B813C
:1006F0009C81FC0184918D838D818E838981882FDB
:1007000090E0880F991F01968E5C9D4F8F8398878C
:100710008F819885FC018491898789858A87898161
:10072000882F90E0880F991F875A9E4DFC01808189
:100730009E8189278E838981882F90E0880F991F59
:100740000196875A9E4DFC0180819A8589278A8768
:100750008E810E948D02882F90E082959295907FE5
:100760009827807F9827182F8A850E948D02812BD9
:100770008B878981882F90E02C853D85820F931F80
:10078000FC0190818B859827809146218095892B4B
:10079000882F90E0982F8A81892B8A8389818F5FA7
:1007A00089838981803108F499CF81E09A819923E6
:1007B00009F080E02D96CDBFDEBFDF91CF911F9174
:1007C0000895CF93DF931F92CDB7DEB789838981D8
:1007D000809347210F90DF91CF910895CF93DF93BE
:1007E000CDB7DEB72797CDBFDEBF8E839F8319823B
:1007F0002AC08981882F90E08E5C9D4F8A839B83DD
:100800008A819B81FC0184918C838C818D83898179
:10081000882F90E0875A9E4DFC0180819D81892719
:100820008D838981882F90E02E813F81820F931FD5
:1008300020914721322F30952D81232BFC012083DD
:1008400089818F5F89838981803298F22796CDBF15
:10085000DEBFDF91CF910895FF920F931F93CF9347
:10086000DF93CDB7DEB72B97CDBFDEBF8A879B87DF
:1008700019825CC08981882F90E0880F991F8E5C57
:100880009D4F8A839B838A819B81FC0184918C8309
:100890008C818D838981882F90E0880F991F019624
:1008A0008E5C9D4F8E839F838E819F81FC018491FE
:1008B0008887888589878981882F90E0880F991F8C
:1008C000875A9E4DFC0180819D8189278D83898176
:1008D000882F90E0880F991F0196875A9E4DFC0142
:1008E00080819985892789878981882F90E02A8549
:1008F0003B858901080F191F8D810E948D02882F69
:1009000090E082959295907F9827807F9827F82E87
:1009100089850E948D029F2D982B8091472180957B
:10092000892BF801808389818F5F89838981803158
:1009300008F4A0CF2B96CDBFDEBFDF91CF911F91E2
:100940000F91FF900895CF93DF931F92CDB7DEB73D
:1009500089838981809348210F90DF91CF910895F9
:10096000CF93DF93CDB7DEB72797CDBFDEBF8E83A2
:100970009F83198225C08981882F90E08E5C9D4FCE
:100980008A839B838A819B81FC0184918C838C81E7
:100990008D838981882F90E0875A9E4DFC0180814C
:1009A0009D8189278D8380914821982F90958D81F5
:1009B000892B2E813F81F901199589818F5F898368
:1009C00089818032C0F22796CDBFDEBFDF91CF9103
:1009D0000895AF92BF92CF92DF92EF92FF920F9362
:1009E0001F93CF93DF93EB012D81283009F0F2C0E4
:1009F0004E81242F22952F70213069F1DB01EC010B
:100A0000213020F0223009F448C0E7C043FF07C07E
:100A1000FC01EA5FFE4F10828EEF9FEFE3C0FC0106
:100A2000EE5FFE4F408311968D919C911297319607
:100A30008083918350E0695F7F4FCE010E94D11C7B
:100A4000CA5FDE4F888192E09883882309F4BFC093
:100A50008BEF9FEFC7C03F813730D0F24F70C1F6A8
:100A6000FB01389646E0DC0101900D924A95E1F7D2
:100A7000FC01EB5FFE4F2083349746E040833297C2
:100A8000108211823396308349815A813196408396
:100A90005183339680812083D8CF7C012AEFE21ADC
:100AA0002EEFF20AF7018081813009F099C04F7072
:100AB0006E01FBEFCF1AFEEFDF0AF60180818E0197
:100AC00001501F4F481320C0339740813197508108
:100AD000852F90E0242F30E0281B390B283031057A
:100AE00014F4451B01C047E050E0BD01695F7F4F32
:100AF0008C0F9D1F0E94D11CD8018D919C91119744
:100B000081608D939C9341C0481B4F7081E090E0C1
:100B10005C01042E02C0AA0CBB1C0A94E2F7F80187
:100B2000808191818A219B21892B19F0D7011C9208
:100B300057C0FE01EF5FFE4F8081E7E04E9F800DC2
:100B40001124FE01EE5FFE4F4081841728F0D7018B
:100B50001C928CEF9FEF46C097E0980F941710F00F
:100B6000481B01C047E050E0BD01695F7F4FFE01B7
:100B7000E80FF11DCF010E94D11CD8018D919C91ED
:100B80001197A82AB92AAD92BC92FE01EE5FFE4FE2
:100B9000CF5FDE4FD8018D919C9180FF18C0969554
:100BA0008795D8018D939C93D6018C918F5F8F7020
:100BB0008C9390818881292F281B283028F49883D2
:100BC00082E0F701808303C0895F8883E3CF80E000
:100BD00090E008C089EF9FEF05C08FEF9FEF02C044
:100BE0008DEF9FEFDF91CF911F910F91FF90EF90CD
:100BF000DF90CF90BF90AF9008955F926F927F92F9
:100C00008F929F92AF92BF92CF92DF92EF92FF921C
:100C10000F931F93CF93DF93CDB7DEB72F97CDBF41
:100C2000DEBF5B012AEFA21A2EEFB20AD5012C918A
:100C3000243009F09AC0542E8B016C0188E08E8319
:100C4000FB01ED5FFE4F208131812A833B831982B6
:100C5000FE013796DF011D928A95E9F77B01B1E02D
:100C6000EB0EFB1EF70190819B012E5F3E4F490169
:100C700091113CC0D9018C918830D0F48F83482FDA
:100C800050E0CE0108960E94D11C452DBE016F5F39
:100C90007F4FC6010E947617009709F063C0F401E8
:100CA0003081D7012C91230F2C93F50110825FC066
:100CB00090E19F83888786E0FB01DE011996019011
:100CC0000D928A95E1F7BE016F5F7F4FC6010E94CA
:100CD0007617009709F046C0D7012C912A5F2C9314
:100CE000F801EB5FFE4F21E0208341C03B01BBEFE9
:100CF0006B1ABEEF7B0AF30180818F7080628F8355
:100D0000D9012C91291B283008F027E0422F50E010
:100D1000B801690F711DCE0108962F870E94D11C62
:100D2000452DBE016F5F7F4FC6010E9476172F854C
:100D3000892B49F4F7018081280F2083D3018C91FE
:100D40008F5F8F708C93F7019081D4018C918917FC
:100D500028F4F50110828CEF9FEF09C0981302C0B0
:100D6000D5011C9280E090E002C08AEF9FEF2F96A1
:100D7000CDBFDEBFDF91CF911F910F91FF90EF901C
:100D8000DF90CF90BF90AF909F908F907F906F90AB
:100D90005F900895CF93DF93EC01FC01EE5FFE4F6F
:100DA000408331966083718332961082349710822B
:100DB00050E0B9010E94D11CCA5FDE4F84E08883F5
:100DC000DF91CF910895FC01A281B38185811596B1
:100DD0008C93A281B381858111968C93A281B3817A
:100DE000848116968C93A281B381848112968C9310
:100DF000A081B18180E313968C93A081B18184E0BE
:100E000014968C93A081B18183E015968C93A08178
:100E1000B18117961C92A081B18182E216968C93C3
:100E20000190F081E02D8481886084830895DC0145
:100E3000ED91FC91818185FFFDCF60830895682F3E
:100E400080910020909101200E94170708950F9330
:100E50001F93CF93DF938C01EB016991662321F0FF
:100E6000C8010E941707F9CFDF91CF911F910F9111
:100E70000895CF93DF93CDB7DEB79E01265F3F4F36
:100E80004885598568E770E089E791E20E94DA1C9D
:100E900069E771E28E819F810E942707DF91CF91E0
:100EA0000895DC01ED91FC91818187FFFDCF808168
:100EB00008958F929F92AF92BF92CF92DF92FF924E
:100EC0000F931F93CF93DF931F92CDB7DEB75C01D3
:100ED0008B01812C912C6A0181E0C81AD108C501CF
:100EE00029830E945107F82E682FC5010E94170719
:100EF000F801E80DF91DF08229818C149D0418F485
:100F00008FEF881A980AF212EACFF801E80DF91D5E
:100F10001082C4010F90DF91CF911F910F91FF902C
:100F2000DF90CF90BF90AF909F908F900895FC017D
:100F3000A081B181828116968C93A081B18182813A
:100F400011968C930895DC01ED91FC911197129606
:100F50008C9185830895DC01ED91FC911197129697
:100F60008C9186830895DC01ED91FC911197129686
:100F70008C918783089580E090E00895E0EAF0E0A6
:100F800082818560828308950E944D0880910020AF
:100F9000909101200E94E3068091102090911120F1
:100FA0000E949707089578940E94BE070895809143
:100FB000AE209091AF20FC01EA57FF4F6081718114
:100FC0003297808191810E942310809124209091FA
:100FD0002520FC01EA57FF4F6081718132978081A3
:100FE00091810E942310F8948FB798ED94BF91E0FF
:100FF000909379008FBF0895CF93DF93EC010E9407
:10100000141461E0CE010E9478144FEF5FE060E0BD
:1010100070E0CE010E943515CE010E943E16DF9190
:10102000CF910895CF93DF93EC010E94141461E0F7
:10103000CE010E947814CE010E946815CE010E9454
:101040003E16DF91CF9108956093F1217093F221C4
:101050008093F3219093F4218091F1219091F221DA
:10106000A091F321B091F421892B8A2B8B2BA1F72E
:1010700008958091500082608093500080915100CB
:1010800081FFFCCF88ED84BF81E080934000809198
:1010900050008E7F809350000895809150008660AC
:1010A000809350008091510082FFFCCF80915100CD
:1010B00081FFFCCF81E08093600088ED84BF81E0F8
:1010C00080934000809150008E7F8093500008955F
:1010D0008BEC809352008091500088608093500088
:1010E0008091510083FFFCCF82EC8093550080916A
:1010F00050008061809350008091510084FFFCCFAC
:1011000088ED84BF84E0809340000895E0E0F8E03B
:1011100010A211A28CE790E086A397A381E08683BA
:101120008487118286E080830895CF92DF92EF92C8
:101130000F93FC01D6018181082B018381E0E81225
:1011400009C080E412968C93129780EB11968C93D1
:10115000206508C080E411968C93119780EB12965D
:101160008C932064422B40830F91EF90DF90CF90BF
:101170000895FC01828180780895FC018281807449
:101180000895FC016383828187FFFDCF83810895E9
:10119000FC01228127FFFCCF8381FB01808308951E
:1011A000FC0190918906611106C09F6090938906A9
:1011B00080E185830895907F9093890680E18683FE
:1011C0000895CF93DF9300D0CDB7DEB73FE73983E3
:1011D0004A832B83685F7F4F9E012F5F3F4F43E021
:1011E0000E94CA062396CDBFDEBFDF91CF9108953E
:1011F000CF93DF931F921F92CDB7DEB7FB01BA01E9
:10120000422FDC01AE5FBE4F2C91223039F023E13A
:10121000CF010E94E1088DEF9FEF20C0DC01119605
:101220009C91892F881F8827881F9F7739F022E19A
:10123000CF010E94E1088CEF9FEF10C081110CC01C
:10124000406449831A82685F7F4F9E012F5F3F4F42
:1012500042E0CF010E94CA0680E090E00F900F901C
:10126000DF91CF910895CF92DF92EF92FF920F938B
:101270001F93CF93DF931F921F92CDB7DEB78B01E1
:101280007A01422FFC01EE5FFE4F2081223041F0B7
:1012900023E1B701C8010E94E1088DEF9FEF72C002
:1012A000FC018181982F9F77881F8827881F2FEF47
:1012B000290F223040F022E1B701C8010E94E10865
:1012C0008CEF9FEF5FC0811137C0842F80648983CA
:1012D0009A83B701685F7F4F9E012F5F3F4F42E0C7
:1012E000C8010E94CA06F5EEEF16F7E0FF0629F4E2
:1012F000E090AE20F090AF2004C0E0902420F09069
:10130000252084E690E080933E2290933F2268015E
:101310008AEFC81A8EEFD80A80913E2290913F2220
:10132000892B51F0F6018081882331F043E0B80128
:10133000C7010E94FD05F0CF8091AE209091AF20B3
:10134000FC01EA57FF4F6081718132978081918162
:101350000E9423108091242090912520FC01EA57BF
:10136000FF4F608171813297808191810E942310AB
:10137000F8948FB798ED94BF91E0909379008FBF68
:1013800080E090E00F900F90DF91CF911F910F912F
:10139000FF90EF90DF90CF9008955F926F927F92D1
:1013A0008F929F92AF92BF92CF92DF92EF92FF9275
:1013B0000F931F93CF93DF93CDB7DEB7E397CDBFE6
:1013C000DEBF3C015B017A01522E403E87E05807A8
:1013D000A9F400911A201091F82144E150E066E947
:1013E0007FE3CE014D960E94C81C74E0872E72E206
:1013F000972E80E090E820E030E021C0433D574048
:10140000A9F4009119201091F52144E150E062E81F
:101410007FE3CE014D960E94C81C6EEF862E61E2DE
:10142000962E80E090EC20E030E809C021E1452DC7
:10143000B701C5010E94E1088FEF9FEF93C0023012
:1014400011F4123049F023E3452DB701C5010E9484
:10145000E1088BEF9FEF86C0F4014481442349F0FB
:1014600022E2452DB701C5010E94E1088AEF9FEFF6
:1014700079C0F301EE5FFE4F5081533048F423E111
:10148000452DB701C5010E94E1088DEF9FEF6AC0AD
:10149000F3014181442349F021E3452DB701C50102
:1014A0000E94E10889EF9FEF5DC0F3014281642F44
:1014B00062956F704F70423079F7623069F757303C
:1014C000F1F6038110E0102F00274481042BC58022
:1014D000D12CDC2CCC244681C42A02171307E0F25D
:1014E00008171907C8F6801B910B8C159D05A0F2F3
:1014F0004CE150E066E67FE3CE0101963C010E949C
:10150000C81CCE014D969F938F937F926F928091CE
:1015100001208F93809100208F930E943907F4015E
:10152000008311830C0D1D1D02831383158282E03D
:101530008483852D806489AB80E18AAB8DEF8BAB92
:10154000B701685F7F4F9E012F5C3F4F43E0C501AD
:101550000E94CA060F900F900F900F900F900F905F
:1015600080E090E0E396CDBFDEBFDF91CF911F9189
:101570000F91FF90EF90DF90CF90BF90AF909F9032
:101580008F907F906F905F900895CF92DF92EF924F
:10159000FF920F931F93CF93DF93CDB7DEB7522FF8
:1015A000CDB6DEB6AE2DB0E09D012E5F3F4FEDB75C
:1015B000FEB7E21BF30BEDBFFEBF2DB73EB72F5FAB
:1015C0003F4F40644183F90151834DB75EB74D5F92
:1015D0005F4F1196FA01E21BF30BAE17BF074CF0F9
:1015E000F801C895F02CFA01F192AF010F5F1F4F7F
:1015F000F1CF42E04E0D685F7F4F0E94CA06CDBE1C
:10160000DEBEDF91CF911F910F91FF90EF90DF90A1
:10161000CF900895EF92FF920F931F93CF93DF9394
:10162000DC01CB01BA01422F603E07E0700739F4BC
:1016300030911A202091F821E4E0F2E211C0633DDC
:1016400027E0720739F4309119202091F521EEEF4F
:10165000F1E206C021E10E94E1088FEF9FEF6EC02A
:10166000323011F4223031F024E20E94E10888EF98
:101670009FEF64C0548135811FEF150F1330A0F721
:10168000ED01CE5FDE4F2881223031F023E10E9450
:10169000E1088DEF9FEF52C011962C91A32FB0E07F
:1016A000C22FD0E07D010FEFE01AF00ACE15DF0562
:1016B00081F4123071F000811181ADEF3A9F000D7D
:1016C000111D11243F5F35835230C1F431E0348362
:1016D00015C0231311C0222379F05D7F513061F4CE
:1016E00011973DEF3A9F80013B9F100D1124A0817F
:1016F000B1810A0F1B1F02C023E70BC0E280F380F9
:10170000E016F10628F0A081B1810A171B0730F41A
:1017100021E70E94E10889EF9FEF10C0D701A01BCD
:10172000B10BAE3FB10520F433E03483E01A02C0C0
:101730003DEFE32E0E94C50A80E090E0DF91CF915B
:101740001F910F91FF90EF900895CF93DF931F9219
:10175000CDB7DEB7DC01CB01BA01422F603E27E0F6
:10176000720739F430911A202091F821E4E0F2E276
:1017700011C0633D27E0720739F4309119202091A0
:10178000F521EEEFF1E206C021E10E94E1088FEFC2
:101790009FEF26C0AE5FBE4F5C91513031F023E128
:1017A0000E94E1088DEF9FEF1BC0323011F4223010
:1017B00031F024E20E94E10888EF9FEF11C02481FC
:1017C00021502330B0F7148240644983685F7F4F13
:1017D0009E012F5F3F4F41E00E94CA0680E090E0EB
:1017E0000F90DF91CF9108950F931F93CF93DF93C5
:1017F0001F921F92CDB7DEB7DB01BA01422F653EC3
:1018000027E0720739F0633DE7E07E0731F00AE137
:1018100010E205C00BE110E202C009E110E29C01F8
:101820002E5F3E4FF9012081223039F023E1CD01B6
:101830000E94E1088DEF9FEF22C0FC018181982F6B
:101840009F77913011F0923089F4F801908387FDF1
:1018500014C0406449839A83685F7F4F9E012F5F65
:101860003F4F42E0CD010E94CA0607C022E1CD01F0
:101870000E94E1088CEF9FEF02C080E090E00F90A3
:101880000F90DF91CF911F910F9108958F929F92AA
:10189000AF92BF92CF92DF92EF92FF920F931F937E
:1018A000CF93DF93CDB7DEB72597CDBFDEBFFC0169
:1018B0005B018A01422F053E87E0180739F48090CA
:1018C0001B207BEFE72E71E2F72E11C0033DA7E04E
:1018D0001A0739F48090192065EFE62E61E2F62EA2
:1018E00006C080901A2058EFE52E51E2F52EDF0158
:1018F000AE5FBE4F9C91923050F423E1B801C50118
:101900000E94E1083DEFC32EDD24DA9493C0B2E0DB
:101910008B1611F022E24BC08181982E991C9924DC
:10192000991C8F77813019F08230E1F177C09230C5
:1019300021F7F7018081823019F4118212821CC0D4
:101940006091302270913122809132229091332225
:101950004D830E94AB124D81009731F0D701119653
:101960008D939C93129705C08AE59EE7F7018183CA
:10197000928381E0D7018C9391105AC040644983CF
:1019800081E08A83F701818192819B838C83B801F6
:10199000685F7F4F9E012F5F3F4F44E0C5010E946B
:1019A000CA0646C0D7018C91813051F024E2B801BB
:1019B000C5010E94E10828EFC22EDD24DA943AC066
:1019C000943009F09ACF628170E0762F6627838188
:1019D000682BF701818192814D830E94F8126C017E
:1019E0004D81892B99F491100DC0406449838A82FE
:1019F000B801685F7F4F9E012F5F3F4F42E0C501F6
:101A00000E94CA0682E0D7018C9314C025E3B80176
:101A1000C5010E94E108F70110820AC022E1B80165
:101A2000C5010E94E1088CEFC82EDD24DA9402C0C3
:101A3000C12CD12CC6012596CDBFDEBFDF91CF9141
:101A40001F910F91FF90EF90DF90CF90BF90AF90DC
:101A50009F908F900895CF93DF9300D000D0CDB7A3
:101A6000DEB7FB01BA01422FDC01AE5FBE4F2C9105
:101A7000223039F023E1CF010E94E1088DEF9FEF82
:101A8000B7C0DC0111968C91653EB7E07B0709F089
:101A900067C0803201F178F48D3051F18F3191F1CE
:101AA00081115AC0406449831A821B8288E08C836A
:101AB0001D8283E017C0823409F440C08C35C1F127
:101AC000803409F049C0406449838A838B831C8237
:101AD0001D8280E107C0406449838A831B821C8287
:101AE0001D8281E08E839E012F5F3F4F46E031C013
:101AF000406449838A838DE88B839E012F5F3F4F2B
:101B000043E027C0406449838A83809136229091C4
:101B10003722A0913822B09139229B8380913622BE
:101B200090913722A0913822B09139228F700CC049
:101B3000406449838A8387E88B8307C04064498374
:101B40008A838EE28B8380EE8C839E012F5F3F4FD2
:101B500044E06DEE77E03DC022E165EE77E040C005
:101B6000603E97E0790721F0633DA7E07A07F1F541
:101B7000882301F18F3199F5942F906499838A839A
:101B80008091362290913722A0913822B09139224B
:101B90009B838091362290913722A0913822B09178
:101BA00039228F708C83685F7F4F9E012F5F3F4F7C
:101BB00044E00FC0942F906499831A821B821C8288
:101BC0001D8282E08E83685F7F4F9E012F5F3F4FB3
:101BD00046E0CF010E94CA0680E090E009C022E101
:101BE000CF010E94E1088CEF9FEF02C08EEF9FEFC4
:101BF0002696CDBFDEBFDF91CF910895EF92FF9281
:101C00000F931F93CF93DF93CDB7DEB76697CDBF0A
:101C1000DEBF7B018A01422FFC01EE5FFE4F208177
:101C2000223041F023E1B801C7010E94E1088DEFA5
:101C30009FEF61C0FC018181053EF7E01F0749F07D
:101C4000003E97E0190729F0033DE7E01E0709F081
:101C50004DC08230A1F08A3029F181114AC0406420
:101C600049831A8280E48B838C831D821E82B80193
:101C7000685F7F4F9E012F5F3F4F46E033C0406457
:101C800049838A8341E150E062EC7FE3CE01039611
:101C90000E94C81CB801685F7F4F9E012F5F3F4FB5
:101CA00043E120C0406449838A83033DF7E01F0776
:101CB00051F0003E87E0180719F06AEA7FE305C09B
:101CC00066E97FE302C062E87FE344E150E0CE01D1
:101CD00003960E94C81CB801685F7F4F9E012F5F6A
:101CE0003F4F46E1C7010E94CA0603C08EEF9FEF37
:101CF00002C080E090E06696CDBFDEBFDF91CF915D
:101D00001F910F91FF90EF900895CF92DF92EF9285
:101D1000FF920F931F93CF93DF931F92CDB7DEB740
:101D20008B01BA01422FEDB6FEB6633D27E0720784
:101D300039F021E1C8010E94E1088FEF9FEF66C0F2
:101D4000209119203091F521323011F4223049F0E0
:101D500023E363ED77E0C8010E94E1088BEF9FEF7A
:101D600055C0FC01EE5FFE4F2081223049F023E197
:101D700063ED77E0C8010E94E1088DEF9FEF46C058
:101D8000FC018181982F991F9927991F8F7749F01E
:101D900022E163ED77E0C8010E94E1088CEF9FEF3C
:101DA00035C0911131C08FEF49830E94E10382E376
:101DB00092E00E94EE038DB79EB789978DBF9EBFBC
:101DC000EDB7FEB731966F0149814064EDB7FEB7BC
:101DD0004183F6011182039646E050E060E67FE31E
:101DE0000E94C81C81E2E2E3F2E0D601189601905D
:101DF0000D928A95E1F7960149E26BED77E0C80113
:101E00000E94CA06EDBEFEBE80E090E0EDBEFEBEC2
:101E10000F90DF91CF911F910F91FF90EF90DF9086
:101E2000CF900895CF93DF93DC01242FFC01EE5F68
:101E3000FE4F8081882309F473C04C913196019044
:101E4000F081E02DE53E87E0F80749F0E03E87E0CD
:101E5000F80729F0E33D87E0F80709F064C0EB01DB
:101E6000CD01222339F0413009F446C0493009F44C
:101E700049C04EC04732D9F188F4493009F442C014
:101E800018F44130C9F144C0403161F1413109F0E9
:101E90003FC021E1AF010E94330947C04733E9F059
:101EA00048F44533A9F0463399F526E3AF010E9483
:101EB0000A0B3BC04E3339F0403A51F520EAAF01EE
:101EC0000E94850E32C02EE3AF010E94F8082DC09B
:101ED00025E3AF010E94CD0928C027E3AF010E948E
:101EE000A50B23C020E1AF010E94F40B1EC027E226
:101EF000AF010E94460C19C021E0AF01BE010E9453
:101F00002B0D13C029E0AF01BE010E94FE0D0DC0D4
:101F100021E1BF01CE010E94E1088FEF9FEF05C0D4
:101F20008DEF9FEF02C08EEF9FEFDF91CF9108956D
:101F3000EF92FF920F931F93CF93DF931F92CDB732
:101F4000DEB77C018B0161E0C80149830E94D008A3
:101F500063E0C7010E94C1084981642FC7010E9444
:101F6000C10860E0C7010E94C108F82E60E0C80106
:101F70000E94D0088F2D0F90DF91CF911F910F916C
:101F8000FF90EF900895EF92FF920F931F93CF93DE
:101F9000DF931F921F92CDB7DEB77C018B0161E00A
:101FA000C8012A8349830E94D00862E0C7010E94C9
:101FB000C1084981642FC7010E94C1082A81622F8C
:101FC000C7010E94C10860E0C8010E94D0080F90BC
:101FD0000F90DF91CF911F910F91FF90EF90089597
:101FE000CF92DF92EF92FF920F93CF93DF931F92E6
:101FF0001F92CDB7DEB76C017B0161E0C7012A8378
:1020000049830E94D00865E0C6010E94C108498149
:10201000642FC6010E94C1082A81622FC6010E9456
:10202000C108602FC6010E94C10860E0C7010E947C
:10203000D0080F900F90DF91CF910F91FF90EF900C
:10204000DF90CF9008950F931F93CF93DF938C0170
:10205000EB0161E0CE010E94D00860ECC8010E9453
:10206000C10860E0CE010E94D008DF91CF911F919E
:102070000F91089528604295407F405D0E94C30FF4
:102080000895CF92DF92EF92FF920F93CF93DF9359
:102090001F921F92CDB7DEB76C017B0161E0C701D3
:1020A00029834A830E94D00862E0C6010E94C108C9
:1020B00068E2C6010E94C108602FC6010E94C108E3
:1020C0002981622FC6010E94C1084A81642FC6017E
:1020D0000E94C10860E0C7010E94D0080F900F90D5
:1020E000DF91CF910F91FF90EF90DF90CF90089507
:1020F0000F931F93CF93DF938C01EB0161E0CE012F
:102100000E94D00860EBC8010E94C10860E0C801CD
:102110000E94C108182F60E0CE010E94D008812FD4
:10212000DF91CF911F910F9108950F931F93CF933C
:10213000DF938C01EB0161E0CE010E94D00860EAE0
:10214000C8010E94C10860E0C8010E94C108182FA0
:1021500060E0CE010E94D008812FDF91CF911F91C6
:102160000F9108950F9321E030E001C0220F4A95AE
:10217000EAF7022F4BE20E94F00F0F9108954CE214
:102180000E94980F08950F9321E030E001C0220FC4
:102190004A95EAF700E04CE20E94F00F0F91089593
:1021A0004EE00E94980F82958695877008956F92F1
:1021B0007F928F929F92AF92BF92CF92DF92EF92D7
:1021C0000F931F93CF93DF931F92CDB7DEB73C01E0
:1021D0006B014801590161E0C60149830E94D008A2
:1021E00062E0C3010E94C1084981642FC3010E94BB
:1021F000C108C501B40153E0969587957795679519
:102200005A95D1F7182D1295110F107EC301EE20AB
:1022100039F10E94C108D501C4012BE1B695A795FB
:10222000979587952A95D1F7812B682F6860C30110
:102230000E94C108C501B40133E196958795779551
:1022400067953A95D1F7C3010E94C108C501B40151
:102250004BE096958795779567954A95D1F70BC092
:102260000E94C108612FC3010E94C10860E0C30140
:102270000E94C10860E0C3010E94C10860E0C6017D
:102280000E94D0080F90DF91CF911F910F91EF9096
:10229000DF90CF90BF90AF909F908F907F906F9086
:1022A00008956F927F928F929F92AF92BF92CF923A
:1022B000DF92EF92FF920F931F93CF93DF93EC0186
:1022C0003B01D42E4801590161E0C3010E94D008AE
:1022D00062E0CE010E94C1086D2D6295607F6F5C47
:1022E000CE010E94C108C501B401C4FE25C035E17C
:1022F00096958795779567953A95D1F7CE010E9487
:10230000C108D501C4014DE0B695A795979587956D
:102310004A95D1F7682F607E8A2D8370682B68609C
:10232000CE010E94C10899278B2D7A2D692DCE01EF
:102330000E94C108682D16C023E096958795779571
:1023400067952A95D1F7CE010E94C108682D629544
:10235000660F607ECE010E94C10860E0CE010E943F
:10236000C10860E0CE010E94C1081C2D1F70C5FC91
:1023700002C060E001C060E4612BCE010E94C10890
:102380004701A12EB12CC4018E199F098A159B0506
:102390003CF4F40161914F01CE010E94C108F3CFDA
:1023A00060E0C3010E94D0082C2D22952695269529
:1023B00023704D2DB301CE010E943A10DF91CF91D1
:1023C0001F910F91FF90EF90DF90CF90BF90AF9053
:1023D0009F908F907F906F9008958F929F92AF9271
:1023E000BF92CF92DF92EF92FF920F931F93CF9302
:1023F000DF931F92CDB7DEB78C017B01490161E00D
:10240000C70149830E94D00863E0C8010E94C10847
:1024100049814295407F61E6640FC8010E94C1086E
:10242000640185E0C80ED11C540160E0C8010E941F
:10243000C108F50181935F01EC15FD05B1F7F401C9
:10244000448150E0495F5F4FC6018819990960E0F7
:10245000481759073CF0C8010E94C108F601819352
:102460006F01EDCFC7010E94D0080F90DF91CF918F
:102470001F910F91FF90EF90DF90CF90BF90AF90A2
:102480009F908F900895CF92DF92EF92FF920F93DB
:102490001F93CF93DF937C016B01C42F042F029510
:1024A000000F007E20EE4FE00E94F00F00E513ECDD
:1024B000D0E04EE0B601C7010E94980F8295869544
:1024C0008770282F30E02C173D0759F001151105B2
:1024D00019F001501109EDCF0E94D7070FEF1FEF40
:1024E000E8CFDF91CF911F910F91FF90EF90DF9098
:1024F000CF900895E0911720F091182081E081831A
:10250000858392E091839583E0E8F6E094E09183FF
:10251000968398E09183E0E0FAE0808381E881830C
:1025200016A617A608958627682F62956827062E97
:10253000669566956025062E669560256770082E5F
:10254000892F669507946795902D86270694679541
:102550009025862708958F929F92BF92CF92DF9207
:10256000EF92FF920F931F93CF93DF9300D01F92B0
:10257000CDB7DEB76B017C010DE311E2812C912C0C
:1025800095E0B92EB00EF80161918F01C4010E944F
:1025900093124C01B012F7CFC701B60124E630E028
:1025A00040E050E00E948E1C14E0622FC401298399
:1025B0003A834B835C830E9493124C0129813A81B8
:1025C0004B815C81232F342F452F5527115069F7FC
:1025D000C4012496CDBFDEBFDF91CF911F910F9133
:1025E000FF90EF90DF90CF90BF909F908F900895D5
:1025F000DF92EF92FF920F931F93CF93DF93F82E0A
:10260000E92E8B01C8E3D1E280E090E0DC2E25E0EA
:10261000D20E69910E949312DC12FBCF6E2D0E94A4
:1026200093126F2D0E949312492F5527212F332784
:102630004217530771F431E0892B09F030E021E0B3
:10264000012B09F420E081E090E0321721F080E0D6
:1026500002C081E090E0DF91CF911F910F91FF9038
:10266000EF90DF900895CF93682F62956F70C82F19
:10267000CF7080910020909101206A3010F4605D4D
:1026800001C0695C0E941707809100209091012091
:10269000CA3010F460E301C067E36C0F0E941707B3
:1026A000CF910895EF92FF920F931F93CF93DF93F3
:1026B000F82E8B01C2E4D1E2EC2E84E0E80E6991A1
:1026C00080910020909101200E941707EC12F7CF13
:1026D0008F2D0E94331382E00E943313802F0E94BB
:1026E0003313812F0E943313DF91CF911F910F91EC
:1026F000FF90EF900895BC0180E30E94521308956B
:10270000BC0181E30E9452130895BC0182E30E9440
:1027100052130895BC0183E30E9452130895BC0133
:1027200084E30E9452130895BC0185E30E94521372
:102730000895BC0187E30E9452130895BC0188E309
:102740000E9452130895EF92FF920F931F93CF931D
:10275000DF938C01C2E4D1E2FC2E84E0F80E699193
:1027600080910020909101200E941707FC12F7CF62
:1027700086E30E943313F80101900020E9F73197B6
:10278000CF01801B910BF82E0E943313E02EC02F37
:10279000D12F8C2F8E198F1520F489910E9433131D
:1027A000F8CFDF91CF911F910F91FF90EF90089597
:1027B000CF93DF931F921F92CDB7DEB719821A8293
:1027C00029813A81283833413CF429813A812F5FAD
:1027D0003F4F29833A83F4CFFC01EA57FF4F6081D2
:1027E00071813297808191810E94231019821A820F
:1027F00089819A818838934134F489819A8101963C
:1028000089839A83F5CF0F900F90DF91CF91089530
:10281000462FFC01EA57FF4F60817181329780811A
:1028200091810E94431208958F929F92AF92BF921E
:10283000CF92DF92EF920F93CF93DF93EC01E98178
:10284000FA8189858183EB81FC818A858283ED8190
:10285000FE818B858183EF81F8858C858183E98179
:10286000FA8189858583ED81FE818B858683E0E011
:10287000FAE081E0808381E8818316A617A6E981CA
:10288000FA8189858683E981FA81898585834E016C
:1028900086E8880E911CF401C080D1805E01F4E8C6
:1028A000AF0EB11CEE24E39400E020E040E060E0D5
:1028B000F501808191810E949508CE010E94D81374
:1028C000F401608171814FE0F501808191810E9466
:1028D000980F60E0CE010E940814DF91CF910F9114
:1028E000EF90DF90CF90BF90AF909F908F90089522
:1028F0000F931F93CF93DF93EC01162F64E00E9498
:102900000814DE01AA57BF4FFE01EC57FF4F1130EC
:1029100089F050F01330A1F01430C1F46D917C9126
:1029200005E028EB40EC17C06D917C9105E028EBA9
:102930004EEC11C06D917C9105E028EB49EC0BC089
:102940006D917C9105E028EB41EC05C06D917C9187
:1029500005E028EB44EC808191810E94411060E009
:10296000CE010E940814DF91CF911F910F9108951D
:102970004F925F926F927F928F929F92AF92BF928F
:10298000CF92DF92EF92FF920F931F93CF93DF933B
:10299000EC01F62E6A01590144244394461608F0CE
:1029A000412C64E0CE010E940814860120E030E052
:1029B0008F2D880F880F92E09F1510F040E001C026
:1029C00044E0480F3E01E6E86E0E711CF3016081A1
:1029D00071814E01F4E88F0E911CE12CF40180818D
:1029E00091810E94D710512C850120E030E0A20196
:1029F000485F5F4F440F440FF30160817181F40120
:102A0000808191810E94D71060E0CE010E9408145D
:102A1000888190E00197FC01EE0FFF1FE40DF51D8A
:102A2000EE0FFF1FE45EFF4DA082B18226E0289FDB
:102A3000F001299FF00D1124EF0DF11DEE0FFF1F86
:102A4000E45FFD4DC082D182DF91CF911F910F9144
:102A5000FF90EF90DF90CF90BF90AF909F908F90BE
:102A60007F906F905F904F900895EF92FF920F9339
:102A70001F93CF93DF93EC018B017A019A01AB0195
:102A800060E00E94B8149701A80161E0CE010E94A5
:102A9000B8149701A80162E0CE010E94B814970112
:102AA000A80163E0CE010E94B8149701A80164E078
:102AB000CE010E94B8149701A80165E0CE010E94E2
:102AC000B814DF91CF911F910F91FF90EF9008956F
:102AD000FF920F931F93CF93DF938C01C0E0D0E060
:102AE000E6E0FE2E6C2FF801808190E0019721E056
:102AF00030E0C23010F420E030E0FC01EE0FFF1FA8
:102B0000E20FF31FEE0FFF1FE45EFF4D20813181C6
:102B1000F89EF001F99EF00D1124EC0FFD1FEE0F51
:102B2000FF1FE45FFD4D40815181C8010E94B81430
:102B30002196C630D105B1F6DF91CF911F910F914B
:102B4000FF900895FC01EA57FF4F60817181329731
:102B5000808191810E949510982F847092FF09C006
:102B600094FF04C096FD04C082E0089581E00895BA
:102B700083E00895CF92EF92FF920F931F93CF932C
:102B8000DF93EC018B01C42E79010E94A2158330E2
:102B900088F420E030E0FE01EA57FF4F6081718148
:102BA000CC57DF4F482F888199810E94511180E0D6
:102BB00090E002C08DEF9FEFDF91CF911F910F91B9
:102BC000FF90EF90CF900895AF92BF92CF92EF9287
:102BD000FF920F931F93CF93DF93EC015B01142FB0
:102BE0000E94A215482F8330E8F5D5019C91892FCA
:102BF0008170C82EC29420EFC22215962C912F709E
:102C0000C22A91FBEE24E0F8F12C35E0EE0CFF1C1B
:102C10003A95E1F7EC28B0E41B9F90011124CE2CEB
:102C2000C22AF50136967F01FE01EA57FF4FCC57C5
:102C3000DF4FD501882339F011960D911D912D910B
:102C40003C91149706C011960D911C91129720E0AB
:102C500030E060817181888199810E94511180E00A
:102C600090E002C08DEF9FEFDF91CF911F910F9108
:102C7000FF90EF90CF90BF90AF900895EF92FF92AA
:102C80000F931F93CF93DF93EC0164E00E9408142D
:102C90007E0186E8E80EF11CF701608171818E01EA
:102CA0000C571F4F40E0F801808191810E94B210C3
:102CB000F7016081718141E0F801808191810E947A
:102CC000B210F7016081718145E0F8018081918146
:102CD0000E94B21060E0CE010E940814ED85FE85CE
:102CE00083E08083EF85F8898A858083EB81FC818E
:102CF00091858989892B8187DF91CF911F910F91D0
:102D0000FF90EF9008950F931F93CF93DF93DB0114
:102D1000FC01EE57FF4F7081EC01CD57DF4F68810A
:102D2000761709F46EC068816F5F688368816830C8
:102D300009F418826881FC012EE0629FE00DF11D0C
:102D4000112472969281858186FB442740F950E0D8
:102D5000440F551F94FB222720F930E0220F331F28
:102D6000220F331F242B93FB992790F9822F892B55
:102D70008C934281918150E080FF25C060E070E03B
:102D80009A01112700278381182B8481082B237037
:102D90003327592BC5E07695679557954795CA9582
:102DA000D1F7D2E1440F551F661F771FDA95D1F78F
:102DB000402B512B622B732B11964D935D936D938A
:102DC0007C9314970AC0592B85E0569547958A95B0
:102DD000E1F711964D935C93129785818F7015964C
:102DE0008C931597893080F436961696EF019C2FB8
:102DF0009E1B981718F499919D93F9CF80E090E06D
:102E000005C08FEF9FEF02C08EEF9FEFDF91CF9154
:102E10001F910F9108952EE0FC0111922A95E9F778
:102E200008958F929F92AF92BF92DF92EF92FF929E
:102E30000F931F93CF93DF931F921F92CDB7DEB7EF
:102E40008C01D62E7C0186E8E80EF11C61E0F701CA
:102E50008081918149835A830E94D0084801F4E817
:102E60008F0E911C63E0F401808191810E94C10862
:102E70008D2D8295807F60E6680FF40180819181BD
:102E80000E94C1084981042F5A81152F5801FEE084
:102E9000AF0EB11C60E0F401808191810E94C108F5
:102EA000F80181938F01EA15FB05A1F760E0F701B6
:102EB000808191810E94D00841E0D11001C040E0A2
:102EC000F70160817181F401808191810E94C310BA
:102ED0000F900F90DF91CF911F910F91FF90EF9086
:102EE000DF90BF90AF909F908F9008956F927F92E8
:102EF0009F92AF92BF92CF92DF92EF92FF920F9389
:102F00001F93CF93DF931F92CDB7DEB73C015B01D8
:102F1000942E10E37C0186E8E80EF11C6301A4E81E
:102F2000CA0ED11CF7016081718100E020E2412FBF
:102F3000D6018D919C910E94F00F105F103691F791
:102F400065E070E080E090E00E942408492DB50122
:102F5000C3010E94E4158C01892B51F4D301EC913B
:102F6000F0E0EE0FFF1FEE5DFD4D1082118269C093
:102F7000F701608171814CE1D6018D919C910E9495
:102F8000980FB82E20E3F70160817181422FD6019E
:102F90008D919C9129830E94980F298185FD14C0F1
:102FA000205F203681F7D3012C9130E02150310988
:102FB000F901E65FFD4D9081B91206C0F901E25DAD
:102FC000FD4D808185FF1FC0D301EC91F0E0EE0F35
:102FD000FF1FEE5DFD4D108211820BEF1FEFF3011D
:102FE000A080B12CF1E0AF1AB108D7016D917C91AE
:102FF0004CE1F601808191810E94980FF501E65F16
:10300000FD4D80831EC0220F331FF901EC5DFD4D85
:10301000808191810A9730F480819181019680832B
:103020009183DDCFC3010E941208D301EC91F0E03F
:10303000EE0FFF1FEE5DFD4D108211820CEF1FEFB2
:10304000CECFC8010F90DF91CF911F910F91FF90CC
:10305000EF90DF90CF90BF90AF909F907F906F9058
:103060000895AF92BF92CF92DF92EF92FF920F93AB
:103070001F93CF93DF938C01BFB6F8946C0186E861
:10308000C80ED11CF601608171817801F4E8EF0E61
:10309000F11CF701808191810E94BF10857009F4B5
:1030A00045C0F601608171814DE2F7018081918117
:1030B0000E94980FA82EF801C081C150D0E0FE01F7
:1030C000E25DFD4D8081A81631F0A08281E0FE0115
:1030D000E45DFD4D8083F601608171814CE1F70173
:1030E000808191810E94980FFE01E65DFD4D8083F5
:1030F000F601608171814DE1F701808191810E942B
:10310000980FFE01E85DFD4D8083A5FE06C0CC0F43
:10311000DD1FCC5DDD4D18821982F6016081718161
:1031200045E0F701808191810E94C310F601608122
:103130007181F701808191810E947810C82FC2951A
:10314000C695C695C370C0FF17C0F801EE57FF4F74
:1031500080818F5F80838081883009F41082808134
:10316000A801FEE08F9F400D511D11244E5E5F4F60
:1031700060E0C8010E941117C27061F4BFBEDF9108
:10318000CF911F910F91FF90EF90DF90CF90BF9064
:10319000AF900895F801EE57FF4F80818F5F8083D5
:1031A0008081883009F410828081A8019EE0899F87
:1031B000400D511D11244E5E5F4F61E0C8010E9419
:1031C0001117DCCF1F920F920FB60F92112408B681
:1031D0000F9218BE09B60F9219BE0BB60F921BBE06
:1031E0002F933F934F935F936F937F938F939F930F
:1031F000AF93BF93EF93FF93809110209091112094
:103200000E94A3078091AE209091AF200E943118B8
:10321000FF91EF91BF91AF919F918F917F916F91AE
:103220005F914F913F912F910F900BBE0F9009BE70
:103230000F9008BE0F900FBE0F901F9018951F9211
:103240000F920FB60F92112408B60F9218BE09B64E
:103250000F9219BE0BB60F921BBE2F933F934F9345
:103260005F936F937F938F939F93AF93BF93EF93EE
:10327000FF9380911020909111200E94A3078091CC
:103280002420909125200E943118FF91EF91BF9149
:10329000AF919F918F917F916F915F914F913F91EE
:1032A0002F910F900BBE0F9009BE0F9008BE0F908C
:1032B0000FBE0F901F9018951F920F920FB60F928E
:1032C000112408B60F9218BE09B60F9219BE2F939B
:1032D0003F938F939F93AF93BF932FB7F8948091B1
:1032E000F1219091F221A091F321B091F421892B49
:1032F0008A2B8B2B99F08091F1219091F221A09152
:10330000F321B091F4210197A109B1098093F12132
:103310009093F221A093F321B093F42180913C2269
:1033200090913D22019680933C2290933D22809182
:10333000302290913122A0913222B0913322019615
:10334000A11DB11D8093302290933122A09332228F
:10335000B093332280913C2290913D2280FF03C0A4
:1033600081E08093352280913C2290913D22843FE0
:10337000914049F581E08093342210923C221092D2
:103380003D2280913A2290913B22019680933A22ED
:1033900090933B2280913A2290913B2280FF13C070
:1033A0008091362290913722A0913822B091392213
:1033B0000196A11DB11D8093362290933722A093D0
:1033C0003822B093392280913E2290913F22892B5E
:1033D00081F42FBFBF91AF919F918F913F912F911A
:1033E0000F9009BE0F9008BE0F900FBE0F901F9058
:1033F000189580913E2290913F22019780933E2222
:1034000090933F22E6CFCF93DF93CDB7DEB7CD5475
:10341000D540CDBFDEBFF8940E94C4078091AE2096
:103420009091AF200E94FC0780912420909125204C
:103430000E94FC074FEF5FE06FED77E08091AE20D8
:103440009091AF200E9435154FEF5FE06FED77E070
:1034500080912420909125200E9435152FEF3FE088
:1034600045EE57E062E08091AE209091AF200E943F
:10347000B8142FEF3FE040EE57E062E08091242047
:10348000909125200E94B814E6E4F1E2E491EE2345
:1034900059F02FEF3FE043ED57E063E080912420A7
:1034A000909125200E94B8140E9486080E94D3079C
:1034B0007E012CEDE21A2AEFF20A8EE0D7011D926E
:1034C0008A95E9F72E01B3EE4B1ABBEF5B0A87E052
:1034D00091E0F2019C01119221503040E1F76E0120
:1034E0003AEEC31A3CEFD30AD601FC011D92319784
:1034F000E9F79E01215F3D4FCC5BDA4F288339838A
:10350000C454D540D901FC011D923197E9F78E01D1
:10351000085F1E4FD801FC011D923197E9F72E502C
:103520003240CA5BDA4F28833983C654D540D9016B
:10353000FC011D923197E9F7CE5CDA4F1882C25335
:10354000D54081E0CD5CDA4F8883C353D54095E008
:10355000CC5CDA4F9883C453D54097E0CB5CDA4F0C
:103560009883C553D540CE5BDA4F8883C254D5408B
:10357000CD5BDA4F1882C354D540C05CDA4F8883E4
:10358000C054D54090E2CF5BDA4F9883C154D54008
:10359000C25CDA4F8883CE53D54090E4C15CDA4FE9
:1035A0009883CF53D540C45CDA4F8883CC53D54041
:1035B00092E4C35CDA4F9883CD53D5405E01F6ECBC
:1035C000AF1AFAEFBF0AD5018C938DE011968C9358
:1035D0004E01B8EC8B1ABAEF9B0A89E0F4018083A4
:1035E00011823E01FAEC6F1AFAEF7F0AD3018C9335
:1035F0008AE011968C930E94B30210925202212C01
:10360000312C80913422882309F490C0C25FDD4FB1
:103610008881CE50D240811189C010923422832DEE
:1036200090E08930910508F081C0FC018827E250C4
:10363000FF4F8F4F0C94B01C2091302230913122DB
:103640004091322250913322C85BDA4F288339836C
:103650004A835B83C854D540F701A681222D30E010
:10366000B0E00E94B91CC85BDA4F288139814A81D9
:103670005B81C854D540620F731F841F951F0E9441
:10368000AB128370282EE2E3F5E0EC0FFD1FE80F8C
:10369000F11D30804BC09E012E5B3A4F42E06FED32
:1036A00077E0C8010E94CA0642E0342E3FC09E0166
:1036B000205C3A4F42E06FED77E0C8010E94CA06F5
:1036C00033E0332E33C09E01225C3A4F42E06FED6F
:1036D00077E0C8010E94CA0624E0322E27C09E016E
:1036E000245C3A4F42E06FED77E01CC09E012E5BF8
:1036F0003A4F42E065EE77E0C8010E94CA0696E0C4
:10370000392E14C095010BC0940142E065EE77E0BC
:10371000C8010E94CA0688E0382E08C0930142E022
:1037200065EE77E0C8010E94CA06312CB70180918E
:10373000AE209091AF200E948316892B99F4D70177
:103740008C9180FD0FC011968D919C911297853EB2
:10375000B7E09B0719F08F3D974021F4B701C201F4
:103760000E94E904B70180912420909125200E94B5
:103770008316892BA1F4D7018C9180FD10C011967E
:103780008D919C911297833DB7E09B0721F08F5D4F
:103790009740029720F4B701C6010E94E904CD5D6D
:1037A000DA4F8881C352D540823009F040C0C05EF4
:1037B000DA4F28813981C052D5402F3DE7E03E07DE
:1037C00051F585EE97E0C05EDA4F88839983C05249
:1037D000D54041E0BE01615F7D4FC201C45BDA4F5D
:1037E0002883CC54D540C35BDA4F3883CD54D540C1
:1037F0000E94120FC45BDA4F2881CC54D540C35BC2
:10380000DA4F3881CD54D540C05EDA4F28833983F2
:10381000C052D54007C040E0BE01615F7D4FC2018C
:103820000E94120FCD5DDA4F1882C352D540C45E9C
:10383000DB4F8881CC51D440823009F04BC0C75E49
:10384000DB4F28813981C951D4402F3DF7E03F0734
:10385000B9F540EE57E0C75EDB4F48835983C95145
:10386000D44041E0B801C601C45BDA4F2883CC5490
:10387000D540C35BDA4F3883CD54D5400E94120F38
:1038800083ED97E0C75EDB4F88839983C951D440AD
:1038900041E0BE016F5F7F4FC6010E94120FC45B03
:1038A000DA4F2881CC54D540C35BDA4F3881CD54F0
:1038B000D540C75EDB4F28833983C951D44005C04A
:1038C00040E0B801C6010E94120FC45EDB4F1882AF
:1038D000CC51D44080913522882309F492CE1092A5
:1038E000352241E0B80180912420909125200E944A
:1038F000FD0541E0BE016F5F7F4F809124209091D4
:1039000025200E94FD0541E0BE01615F7D4F809151
:10391000AE209091AF200E94FD0573CEA1E21A2E39
:10392000AA1BBB1BFD010DC0AA1FBB1FEE1FFF1F63
:10393000A217B307E407F50720F0A21BB30BE40BB3
:10394000F50B661F771F881F991F1A9469F76095FA
:103950007095809590959B01AC01BD01CF010895B4
:10396000EE0FFF1F881F8BBF0790F691E02D1BBE47
:103970001994A29FB001B39FC001A39F700D811D38
:103980001124911DB29F700D811D1124911D089568
:10399000FB01DC0102C005900D9241505040D8F768
:1039A0000895FB01DC0102C001900D92415050408E
:1039B000D8F708950F931F93CF93DF93CDB7DEB75A
:1039C0002E97CDBFDEBF8C01CA0146E04C83098330
:1039D0001A8377FF02C060E070E8FB013197ED8346
:1039E000FE83A901BC01CE0101960E940D1D4D81EF
:1039F0005E8157FD0AC02F813885421753070CF4AA
:103A00009A01F801E20FF31F10822E96CDBFDEBFA0
:103A1000DF91CF911F910F9108952F923F924F9276
:103A20005F926F927F928F929F92AF92BF92CF924E
:103A3000DF92EF92FF920F931F93CF93DF93CDB757
:103A4000DEB72C97CDBFDEBF7C016B018A01FC0184
:103A500016821782838181FFBDC1CE0101964C0180
:103A6000F7019381F60193FD859193FF81916F0199
:103A7000882309F4ABC1853239F493FD859193FF16
:103A800081916F01853229F4B70190E00E94181FDF
:103A9000E7CF512C312C20E02032A0F48B3269F09A
:103AA00030F4803259F0833269F420612CC08D32B9
:103AB00039F0803339F4216026C02260246023C0AD
:103AC000286021C027FD27C030ED380F3A3078F448
:103AD00026FF06C0FAE05F9E300D1124532E13C05E
:103AE0008AE0389E300D1124332E20620CC08E32B5
:103AF00021F426FD6BC1206406C08C3611F42068C9
:103B000002C0883641F4F60193FD859193FF8191BF
:103B10006F018111C1CF982F9F7D9554933028F468
:103B20000C5F1F4FFFE3F9830DC0833631F08337FD
:103B300071F0833509F05BC022C0F8018081898370
:103B40000E5F1F4F44244394512C540115C038017B
:103B5000F2E06F0E711CF801A080B18026FF03C057
:103B6000652D70E002C06FEF7FEFC5012C870E94CA
:103B70000D1F2C0183012C852F77222E17C03801B1
:103B8000F2E06F0E711CF801A080B18026FF03C027
:103B9000652D70E002C06FEF7FEFC5012C870E949A
:103BA000021F2C012C852068222E830123FC1BC0C0
:103BB000832D90E048165906B0F4B70180E290E0FA
:103BC0000E94181F3A94F4CFF50127FC859127FE37
:103BD00081915F01B70190E00E94181F31103A9463
:103BE000F1E04F1A51084114510471F7E5C08436D1
:103BF00011F0893639F5F80127FF07C0608171811E
:103C0000828193810C5F1F4F08C060817181072EF4
:103C1000000C880B990B0E5F1F4F2F76722E97FFAB
:103C200009C090958095709561957F4F8F4F9F4FFC
:103C30002068722E2AE030E0A4010E94501FA82EB6
:103C4000A81844C0853729F42F7EB22E2AE030E030
:103C500025C0F22FF97FBF2E8F36C1F018F48835BA
:103C600079F0B4C0803719F0883721F0AFC02F2F1A
:103C70002061B22EB4FE0DC08B2D8460B82E09C019
:103C800024FF0AC09F2F9660B92E06C028E030E0BE
:103C900005C020E130E002C020E132E0F801B7FECB
:103CA00007C060817181828193810C5F1F4F06C0C4
:103CB0006081718180E090E00E5F1F4FA4010E943F
:103CC000501FA82EA818FB2DFF777F2E76FE0BC065
:103CD000372D3E7FA51450F474FE0AC072FC08C054
:103CE000372D3E7E05C0BA2C372D03C0BA2C01C03B
:103CF000B52C34FF0DC0FE01EA0DF11D808180332B
:103D000011F4397E09C032FF06C0B394B39404C0E5
:103D1000832F867809F0B39433FD13C030FF06C0BB
:103D20005A2CB31418F4530C5B18B32CB31468F466
:103D3000B70180E290E03C870E94181FB3943C8555
:103D4000F5CFB31410F43B1801C0312C34FF12C06E
:103D5000B70180E390E03C870E94181F3C8532FF4A
:103D600017C031FD03C088E790E002C088E590E00D
:103D7000B7010CC0832F867859F031FF02C08BE267
:103D800001C080E237FD8DE2B70190E00E94181F6C
:103D9000A51438F4B70180E390E00E94181F5A94EC
:103DA000F7CFAA94F401EA0DF11D8081B70190E0EC
:103DB0000E94181FA110F5CF332009F451CEB7018E
:103DC00080E290E00E94181F3A94F6CFF7018681B6
:103DD000978102C08FEF9FEF2C96CDBFDEBFDF91A2
:103DE000CF911F910F91FF90EF90DF90CF90BF90F8
:103DF000AF909F908F907F906F905F904F903F908B
:103E00002F900895FC010590615070400110D8F783
:103E1000809590958E0F9F1F0895FC016150704012
:103E200001900110D8F7809590958E0F9F1F0895EF
:103E30000F931F93CF93DF93FB01238121FD03C0D9
:103E40008FEF9FEF28C022FF16C046815781248143
:103E500035814217530744F4A081B1819D012F5F42
:103E60003F4F208331838C93268137812F5F3F4FD3
:103E70002683378310C0EB01092F182F0084F185AA
:103E8000E02D1995892BE1F68E819F8101968E8315
:103E90009F83812F902FDF91CF911F910F910895D4
:103EA000FA01AA27283051F1203181F1E8946F936B
:103EB0006E7F6E5F7F4F8F4F9F4FAF4FB1E03ED011
:103EC000B4E03CD0670F781F891F9A1FA11D680FAF
:103ED000791F8A1F911DA11D6A0F711D811D911DE2
:103EE000A11D20D009F468943F912AE0269F112457
:103EF0003019305D3193DEF6CF010895462F4770BB
:103F0000405D4193B3E00FD0C9F7F6CF462F4F7015
:103F1000405D4A3318F0495D31FD4052419302D073
:103F2000A9F7EACFB4E0A695979587957795679519
:103F3000BA95C9F700976105710508959B01AC0119
:103F40000A2E06945795479537952795BA95C9F740
:103F5000620F731F841F951FA01D0895F894FFCF53
:103F6000464C41473A00416363657373696E67204D
:103F70002573204D656D2053706163652E2E2E0DC7
:103F80000A00466C784361705F4374726C000000F5
:103F9000000000000000466C784361705F47617468
:103FA00065776179000000000000507772547261FB
:103FB000696E5F4374726C00000000000000E02E28
:103FC000878D4C4A435043424C4358313130303056
:103FD0003233370220A008400604080A20B00960E6
:103FE000064080122020060180066006010101FFC4
:103FF0000FFF0FFF0FFF0F2620026006800620062E
:1040000080060202020891068B060C0000000000E8
:1040100000000000000000000000000000000000A0
:104020000000000000000000000000000000000090
:104030000000000000000000000000000000000080
:104040000000000000000000000000000000000070
:104050000000000000000000000000000000000060
:104060000000000000000000000000000000000050
:1040700000000000000000000000000000C0084038
:1040800006B0200160068006800680060101040853
:1040900090068A06030000000000000000000000F7
:1040A0000000000000000000000000000000000010
:1040B0000000000000000000000000000000000000
:1040C00000000000000000000000000000000000F0
:1040D00000000000000000000000000000000000E0
:1040E00000000000000000000000000000000000D0
:1040F00000000000000000000000000000000000C0
:1041000000000000000000C009600645713D8B4FB3
:104110001083B2C7A6E824F65A007049675A12AB5A
:104120008828F217115C245A330C99ACEC85C05BDB
:104130002E131482855427AB91229E1ECD3C3E0344
:10414000BB9932522680AC4F05D30BBFBA87C82A21
:10415000C1F04C50F58CF910AD62CA69D5FEDDF5A1
:104160004D8DFD02CA52763D75257BDAE4F6B68E9A
:104170005FBACA257DC13BF7EA00D29728096308D8
:104180004D8AD770A00984EF231EB0245B980D1FC1
:1041900055B09BF1205DF3CEE967EE8F5199BC8E4F
:1041A0009D8232D05BD5AC4AD67FA00804F87A094C
:1041B00052FF996383242305C9F25FF3B591B324B9
:1041C000AF310CEC1B6942F7EEB5B0EC855DCD4C20
:1041D000253D920A22386BD5E84C7D03000D8BF308
:1041E000195D8685EEE1D61F16A69327EA6D834CEE
:1041F000856968F702D36F3C51708D76C9EA39B38F
:10420000FFFFFFFFFFFFFFFFFFFFFFFFFFFFFFFFBE
:10421000FFFFFFFFFFFFFFFFFFFFFFFFFFFFFFFFAE
:10422000FFFFFFFFFFFFFFFFFFFFFFFFFFFFFFFF9E
:10423000FFFFFFFFFFFFFFFFFFFFFFFFFFFFFFFF8E
:00000001FF
