S0130000413375476C6974636865722E73726563F6
S11300000C94FE000C9417010C9417010C94170126
S11300100C9417010C9417010C9417010C941701FC
S11300200C9417010C9417010C9417010C941701EC
S11300300C9417010C9417010C9417010C941701DC
S11300400C9417010C9417010C9417010C941701CC
S11300500C9417010C9417010C9417010C941701BC
S11300600C9417010C9417010C9417010C941701AC
S11300700C9417010C9417010C9417010C9417019C
S11300800C9417010C9417010C9417010C9417018C
S11300900C9417010C9417010C9417010C9417017C
S11300A00C9417010C9417010C9417010C9417016C
S11300B00C9417010C9417010C9417010C9417015C
S11300C00C9417010C9417010C9417010C9417014C
S11300D00C9417010C9417010C9417010C9417013C
S11300E00C9417010C9417010C9417010C9417012C
S11300F00C9417010C9417010C9417010C9417011C
S11301000C9417010C9417010C9417010C9417010B
S11301100C9417010C9417010C9417010C941701FB
S11301200C9417010C9417010C9417010C941701EB
S11301300C9417010C9417010C9417010C941701DB
S11301400C9417010C9417010C9417010C941701CB
S11301500C9417010C9417010C9417010C941701BB
S11301600C9417010C9417010C9417010C941701AB
S11301700C9417010C9417010C9417010C9417019B
S11301800C9417010C9417010C9417010C9417018B
S11301900C9417010C9417010C9417010C9417017B
S11301A00C9417010C9417010C9417010C9417016B
S11301B00C9417010C9417010C9417010C9417015B
S11301C00C9417010C9417010C9417010C9417014B
S11301D00C9417010C9417010C9417010C9417013B
S11301E00C9417010C9417010C9417010C9417012B
S11301F00C9417010C9417010C94170111241FBEC1
S1130200CFEFCDBFDFE3DEBF00E00CBF10E2A0E024
S1130210B0E2ECEDF3E000E00BBF02C007900D92FA
S1130220A232B107D9F70E94E6010C94EC010C94B8
S11302300000E0E4F6E088E08583818384E086833F
S11302408283E0EAF8E0848383E08583178283E293
S113025086838481886184830895FC01918195FF5C
S1130260FDCF60830895CF93DF93FC016081662303
S113027049F0EC01219680EA98E00E942D016991F1
S11302806111F9CFDF91CF910895E0E5F0E080812D
S113029082608083E1E5F0E0808181FFFDCF88ED1D
S11302A084BF81E080934000E0E5F0E080818E7FB0
S11302B080830895E8E2F6E0908192FFFDCF90817B
S11302C091FF04C0908191FDFDCFF6CF908191FF05
S11302D0FDCF908192FFF0CF882311F08150F1F788
S11302E0E0E8F6E081E0858300000000868308955D
S11302F0E8E2F6E0908192FFFDCF908191FF04C087
S1130300908191FDFDCFF6CF908191FFFDCF90813B
S113031092FFF0CF882311F08150F1F70000E0E85C
S1130320F6E081E0858300000000868308959BEA5F
S1130330899F912D11249695292F220F920F282FF2
S1130340291B213071F028F0223099F02330C9F0B4
S113035008959BEA899F812D112486950E945A0154
S113036008959BEA899F812D112486950E94780126
S113037008959BEA899F812D112486950E945A0134
S113038008959BEA899F812D112486950E94780106
S1130390089586E080932206E0E8F6E081E0868313
S11303A0818380E090E20E94330180E30E94970100
S11303B084E190E20E9433012FE788EC96E6215015
S11303C080409040E1F700C00000EFCF0E9445015B
S10F03D00E9419010E94C901F894FFCF9B
S11303DC49276D2077616974696E67206F6E207987
S11303EC6F750A00676C697463682073656E740AB0
S10503FC0000FB
S9030000FC
