:100000000C94FE000C9417010C9417010C9417012A
:100010000C9417010C9417010C9417010C94170100
:100020000C9417010C9417010C9417010C941701F0
:100030000C9417010C9417010C9417010C941701E0
:100040000C9417010C9417010C9417010C941701D0
:100050000C9417010C9417010C9417010C941701C0
:100060000C9417010C9417010C9417010C941701B0
:100070000C9417010C9417010C9417010C941701A0
:100080000C9417010C9417010C9417010C94170190
:100090000C9417010C9417010C9417010C94170180
:1000A0000C9417010C9417010C9417010C94170170
:1000B0000C9417010C9417010C9417010C94170160
:1000C0000C9417010C9417010C9417010C94170150
:1000D0000C9417010C9417010C9417010C94170140
:1000E0000C9417010C9417010C9417010C94170130
:1000F0000C9417010C9417010C9417010C94170120
:100100000C9417010C9417010C9417010C9417010F
:100110000C9417010C9417010C9417010C941701FF
:100120000C9417010C9417010C9417010C941701EF
:100130000C9417010C9417010C9417010C941701DF
:100140000C9417010C9417010C9417010C941701CF
:100150000C9417010C9417010C9417010C941701BF
:100160000C9417010C9417010C9417010C941701AF
:100170000C9417010C9417010C9417010C9417019F
:100180000C9417010C9417010C9417010C9417018F
:100190000C9417010C9417010C9417010C9417017F
:1001A0000C9417010C9417010C9417010C9417016F
:1001B0000C9417010C9417010C9417010C9417015F
:1001C0000C9417010C9417010C9417010C9417014F
:1001D0000C9417010C9417010C9417010C9417013F
:1001E0000C9417010C9417010C9417010C9417012F
:1001F0000C9417010C9417010C94170111241FBEC5
:10020000CFEFCDBFDFE3DEBF00E00CBF10E2A0E028
:10021000B0E2EAE3F4E000E00BBF02C007900D9209
:10022000A232B107D9F70E9415020C941B020C945C
:100230000000E0E4F6E088E08583818384E0868343
:100240008283E0EAF8E0848383E08583178283E297
:1002500086838481886184830895FC01918195FF60
:10026000FDCF60830895CF93DF93FC016081662307
:1002700049F0EC01219680EA98E00E942D016991F5
:100280006111F9CFDF91CF910895E0E5F0E0808131
:1002900082608083E1E5F0E0808181FFFDCF88ED21
:1002A00084BF81E080934000E0E5F0E080818E7FB4
:1002B00080830895E8E2F6E0908191FFFDCF908180
:1002C00091FFFACF882311F08150F1F7E0E2F6E0D8
:1002D00081E0858300000000000086830895E8E245
:1002E000F6E0908191FFFDCF908191FFFACF8823B6
:1002F00011F08150F1F70000E0E2F6E081E0858343
:1003000000000000000086830895E8E2F6E0908196
:1003100091FFFDCF908191FFFACF882311F081509A
:10032000F1F700000000E0E2F6E081E085830000E4
:100330000000000086830895E8E2F6E0908191FFD6
:10034000FDCF908191FFFACF882311F08150F1F712
:10035000000000000000E0E2F6E081E0858300009C
:1003600000000000868308959BEA899F912D112447
:100370009695292F220F920F282F291B213071F0DB
:1003800028F0223099F02330C9F008959BEA899F24
:10039000812D112486950E945A0108959BEA899F18
:1003A000812D112486950E946F0108959BEA899FF3
:1003B000812D112486950E94850108959BEA899FCD
:1003C000812D112486950E949C010895E0E2F6E0BB
:1003D00086E0828380E1818B828B91E09183808BA8
:1003E000968380E090E20E943301C1E0DAE3C0FF2F
:1003F00004C08C2F8695865C05C08C2F86952D2F8A
:10040000281B822F882379F00E94B40184E190E2B6
:100410000E9433018FE798EC26E6815090402040FF
:10042000E1F700C00000CF5FE2CF0E9445010E94CB
:0A04300019010E94E601F894FFCFC5
:10043A0049276D2077616974696E67206F6E20792C
:10044A006F750A00676C697463682073656E740A55
:02045A000000A0
:00000001FF
